:020000040E06E6
:104000003DB8F3960006012300020000448500003D
:104010002000000000000000000000000000000080
:104020000000000000000000000000000000000090
:104030000000000000000000000000000000000080
:104040000000000000000000000000000000000070
:104050000000000000000000000000000000000060
:104060000000000000000000000000000000000050
:104070000000000000000000000000000000000040
:104080000000000000000000000000000000000030
:104090000000000000000000000000000000000020
:1040A0000000000000000000000000000000000010
:1040B0000000000000000000000000000000000000
:1040C00000000000000000000000000000000000F0
:1040D00000000000000000000000000000000000E0
:1040E00000000000000000000000000000000000D0
:1040F00000000000000000000000000000000000C0
:1041000000000000000000000000000000000000AF
:10411000000000000000000000000000000000009F
:10412000000000000000000000000000000000008F
:10413000000000000000000000000000000000007F
:10414000000000000000000000000000000000006F
:10415000000000000000000000000000000000005F
:10416000000000000000000000000000000000004F
:10417000000000000000000000000000000000003F
:10418000000000000000000000000000000000002F
:10419000000000000000000000000000000000001F
:1041A000000000000000000000000000000000000F
:1041B00000000000000000000000000000000000FF
:1041C00000000000000000000000000000000000EF
:1041D00000000000000000000000000000000000DF
:1041E00000000000000000000000000000000000CF
:1041F00000000000000000000000000000000000BF
:1042000090A90123E52001234D660123D12001233C
:10421000D1200123D1200123D1200123D12001234A
:104220000000000000000000000000004122012307
:10423000D120012300000000D9210123D120012336
:10424000852301238523012385230123852301233E
:10425000852301238523012385230123852301232E
:10426000852301238523012385230123852301231E
:10427000852301238523012385230123852301230E
:1049900085230123852301238523012353B94AB9A4
:1049A000002908BF00281CBF4FF0FF314FF0FF3037
:1049B00000F00CB8ADF1080C6DE904CE00F018F869
:1049C000DDF804E0DDE9022304B07047704700BF62
:1049D000034611F8012B03F8012B002AF9D1704787
:1049E000034613F8012B002AFBD1181A013870472F
:1049F0002DE9F04786468C460846089E15467446C3
:104A00001946002B40F0C1808542B2FA82F245D9A6
:104A10004AB1C2F1200300FA02FC954094402EFAFC
:104A200003F343EA0C0C4FEA154EA8B2230CBCFB6F
:104A3000FEF80EFB18CC08FB00F943EA0C4399453D
:104A400028D9EB1808F1FF3704D2994502D9A8F10B
:104A500002072B44A3EB0903A4B2B3FBFEFC0EFB3D
:104A60001C330CFB00F044EA0344A04214D92C1977
:104A70000CF1FF3304D2A04202D9ACF102032C4462
:104A8000241A43EA07401EB1D44000233460736007
:104A9000BDE8F0874746DDE76346F1E792BB431B7D
:104AA00001214FEA154EAFB2200CB3FBFEFC0EFB0A
:104AB0001C330CFB07F840EA0343984561D9EB1817
:104AC0000CF1FF3004D2984502D9ACF102002B441E
:104AD000A3EB0803A4B2B3FBFEFC0EFB1C330CFBE0
:104AE00007F744EA0344A7424DD92C190CF1FF33D0
:104AF00004D2A74202D9ACF102032C44E41B43EADE
:104B00000040C0E7C2F120039540944020FA03F131
:104B10002EFA03F34FEA154E9040AFB20343B1FBB8
:104B2000FEFC0EFB1C10190C0CFB07F841EA0041BF
:104B3000884522D969180CF1FF3004D2884502D982
:104B4000ACF102002944A1EB08019BB2B1FBFEFCD1
:104B50000EFB1C110CFB07F743EA01439F420ED9E1
:104B6000EB180CF1FF3104D29F4202D9ACF10201E3
:104B70002B44DB1B41EA004193E76046E3E76146D3
:104B8000F7E76046A4E76346B8E7834206D916B95B
:104B9000002108467CE7C6E900E0F9E7B3FA83F7AD
:104BA0008FB9834201D3724508D8BEEB020460EB93
:104BB000030301209C461EB9002169E73846FAE745
:104BC000C6E9004CF8E7C7F1200CBB400EFA07F528
:104BD00022FA0CF42EFA0CF1BA401C4320FA0CF322
:104BE000B8404FEA144901431FFA84FEB3FBF9F8B9
:104BF00009FB18300B0C08FB0EFA43EA00439A45F8
:104C000040D9E31808F1FF3004D29A4502D9A8F13F
:104C100002002344A3EB0A0389B2B3FBF9F809FBB2
:104C2000183308FB0EFE41EA03418E452CD961186A
:104C300008F1FF3304D28E4502D9A8F102032144C2
:104C400043EA0040A1EB0E01A0FB02984145CE468D
:104C5000434602D306D14D4504D20138B9EB020ECA
:104C600068EB0403002EA7D0B5EB0E0261EB030145
:104C700001FA0CFC22FA07F3F9404CEA0303C6E9F7
:104C8000003199E74046C5E74346D9E7012208B518
:104C90000C4BC3F840241A60002141F66A0003F06F
:104CA000EBFA01F07FFD40F2145005F0B8FE6420ED
:104CB00005F0B5FE4FF4967005F0DFFC01F078FDCD
:104CC000EAE700BF00E00053014B1B68184700BF34
:104CD0005089012330B585B004460D4610220021CD
:104CE000684606F05EF802238DF80230044B2A462F
:104CF00021466846019303F06FFE05B030BD00BF4A
:104D0000C912012380B505460E461746984603F0A2
:104D100005FB034606F04EF80446DFF818904246BD
:104D200049F8003039463046A84754F8090000F0E9
:104D30003DFF00BF0800000008B5EFF311832023FA
:104D400083F31288BFF36F8F00F0FCFE024804F07B
:104D500009F905F091F9FCE7588701232DE9F0479F
:104D6000058B04462807904611D4022905F0070553
:104D700040F0CC80204604F0D5FA78B10138218B80
:104D8000042811D8DFE800F0C2106D8595000129D4
:104D90000CBF45F0100545F02005258388F31188E8
:104DA000BFF36F8FBDE8F08701F0070AAA4500F056
:104DB000A5800027B9463E46A368002B00F0BC80C2
:104DC00041F00801218388F31188BFF36F8FA16838
:104DD000002900F0BA800D68002900F0B680334643
:104DE00052462046D1F80480C047002D76D02B686B
:104DF00029461D46F0E701F007035A1F012A1BD878
:104E0000002221F00701062B276889B2C4E900229D
:104E100009D13B4603E0628B013262831B68002BA1
:104E2000F9D141F002012046218304F07BFA0028E9
:104E30007AD041F0200176E0042B0AD121F007015D
:104E400089B22046218304F06DFA10B141F02001AF
:104E50002183218B01F0070AAA454FD00027B946CC
:104E6000AAE7236921F0070141F00601062DD3F8D6
:104E7000009021832DD1B9F1000F3FD041F00801FE
:104E8000218388F31188BFF36F8F20463949C847C3
:104E900029E021F00701236941F0040189B2042DC2
:104EA000D3F804902183E6D000274FF0040A3E4651
:104EB00082E721F00701236941F0050189B2052D40
:104EC000D3F808902183D6D000274FF0050A3E463C
:104ED00072E700274FF0060A3E466DE72B4687E74C
:104EE000B9F1000FD1D1EFF31188202383F3128899
:104EF000BFF36F8F238B23F008032383258BEA06F0
:104F00002ED525F01003238305F007056669218B54
:104F1000002EBFF670AF00232768C4E9003321F0EC
:104F2000070141F001012183218B4FF0000901F0BD
:104F3000070AAA457FF440AF002F9CD041F008013A
:104F4000218388F31188BFF36F8F002FC8D03D688D
:104F5000394633465246204604F010FA2F46F4E70D
:104F6000AB067FF51BAF25F02003238305F0070573
:104F700000E700BFA959012301690346024A4068BE
:104F8000043100F051BA00BFE8850123F7B51B4E8C
:104F90004568377804696FB9194805F07BFC4FF014
:104FA000FF334FF4007217491548009702F03AFE9C
:104FB0000123337025606B692A6A93422CBF00235A
:104FC000012384F8C83004F1440005F094FB0E4935
:104FD00004F1580005F014FC0122002104F16800DE
:104FE00005F090FB4FF0FF330020C4F8BC30C4F84C
:104FF000C030C4F8B83003B0F0BD00BF4C950123F9
:10500000488D012350950123DF5F0123016901F1E0
:10501000C403D3E8EF0F40F00040C3E8E20F002ADA
:10502000F7D10248583105F016BC00BF488D012366
:1050300070B50024036903F1780520012E589642CB
:1050400012D102211A188032D2E8EF0F012803D1C1
:10505000C2E8E41F002CF7D132D11C4803F15801FB
:1050600005F0F9FB002070BD0134042CE5D103F1FB
:10507000C400D0E8EF4F651CC0E8E65F002EF8D111
:105080004FF6FC700442A5B21DD1280100F178064C
:105090001844826793F8C8201E4432B1EAB253FA2A
:1050A00084F480F8842084F8B82000F17C02012088
:1050B000D2E8EF4FC2E8E50F002DF9D10E60CCE742
:1050C0006FF01500CFE76FF00B00CCE7488D0123A0
:1050D0002DE9F3410229146967D94578032D64D875
:1050E0000378032B61D8DFE803F0380216098178D2
:1050F000204602B0BDE8F04104F0EDBB81782046C7
:1051000004F0E9FB002850DB2946204602B0BDE848
:10511000F04104F049BD877820680123394601AA8F
:10512000143004F0FEFA00283FD004F144064FF09A
:10513000FF324FF0FF33304604EB450502F04AFBE7
:105140003046A5F8BC7004F044FB194804F158013E
:1051500002B0BDE8F04105F07EBB90F80280276800
:1051600001236A46414607F1140004F0DAFA2946A1
:105170000646204604F018FD0546B6B1A8B14146E2
:10518000386B03F0C6FF2B6830469A691D69009999
:10519000A8474146386B01AA03F0DBFF019B23B906
:1051A00001223146204604F035FB02B0BDE8F08113
:1051B000488D01231FB50024074B4FF4A0620293D2
:1051C00002AB009305494FF0FF330548039402F00A
:1051D00029FD204604B010BD92870123509701237A
:1051E000F88D012310B50446006804F0C0FD0028C6
:1051F0000BDB0D220549206804F0E7FD002804DBE5
:105200000C28CCBF00206FF0150010BDB98701231A
:10521000024802F1280105F01EBB00BFF88D0123F2
:105220002DE9F0410446A2B000F11405D5E8AF7FA6
:105230007B1E052B27D8DFE803F0863803268686F9
:1052400050F8240C0DF1060202A904F033FE60BBF5
:10525000BDF806200D2A28D17049029805F010FDEE
:1052600018BBA4F12800FFF7BDFF00280EDA54F8A0
:105270000C3CDB681BB154F8081C694898470021B6
:10528000284604F0C0FC22B0BDE8F0810121284688
:1052900004F0B9FC54F8040C04F0BDFC214661484C
:1052A00022B0BDE8F04105F0D6BA54F8280C04F05D
:1052B000B0FE228A83B2934206464FEA104705D1D8
:1052C000628A9742DFD1002BDDD022E073B354F81D
:1052D000280C04F04CFD00280EDA54F80C3CDB6876
:1052E0001BB154F8081C4E4898470421284622B0A8
:1052F000BDE8F04104F087BC618A54F8240C268292
:1053000041EA064104F090FE638A9F4214D1238A49
:1053100093B10621284604F076FC54F80C3C1B6837
:10532000002BB7D054F8080C9847B3E7638A9F4224
:10533000A9D1002AA7D0ECE754F8040C22B0BDE8AC
:10534000F04104F068BC002250F8240C114604F02F
:10535000EAFD461E7F2E2CD8802254F8240C02A988
:1053600004F0E1FD062F804628D0012F3FD10C2804
:1053700089D90D22294802A905F082FC002882D192
:1053800054F80C3C1B6813B154F8080C98470521DD
:10539000284604F038FC002254F8240C114604F08E
:1053A000C2FD051E54F8040C18BF012504F033FC9F
:1053B0002AE0062F7FF467AF4FF0000854F8280C5E
:1053C00004F027FE238A80B298420DD0042128469B
:1053D00004F019FC54F80C3C5B68002B3FF453AF0D
:1053E00054F8080C98474EE77F2E3FF64CAF54F820
:1053F0000C3C9B6863B9002254F8240C114604F05D
:1054000092FD051E18BF0125002D7FF447AF3AE736
:10541000414654F8082C02A89847ECE7B9870123C5
:105420009E870123F88D01232DE9F8430D46017C69
:105430000646012991461C4605F13C070DD1D7E8E7
:10544000EF3F002B03D1C7E8E21F002AF7D139D084
:105450006FF077042046BDE8F883384604F0D3FBAC
:105460005FFA80F8C5E907946E6205F1080005F05F
:1054700042F9686804F09DFC041E1EDB337C012B9E
:1054800023D0286804F0C5FD040C286804F0C1FD91
:10549000002381B22B87013189B2A142FBD00029C0
:1054A000F9D06868698704F0BFFDB8F1000F10D02B
:1054B000304604F0B0FB041ECCDA0021384604F07C
:1054C000A2FBC7E74FF00008CCE72846FFF78AFEAB
:1054D000EBE70F4905F1280005F092F9D6E9020142
:1054E00083685C6814B96FF05704E6E72B46094AF5
:1054F000A04704460028E0D1D6E9020183681B6971
:10550000002BF0D00122984704460028D0D0D4E7E1
:1055100021180123111801232DE9F8430546EFF363
:105520001186202383F31288BFF36F8F4FF00C098D
:105530000C4B0D4F1C68DFF834802CB986F31188B2
:10554000BFF36F8FBDE8F883D4E90123002D18BFA6
:1055500013462BB198F8102009FB02F2B85C98476B
:105560002468EAE7C8920123BC9201231095012325
:10557000012270B5124B1C7C04F01F039A40D043EB
:10558000104B610903EB8103D3E8EF1F01EA00052B
:10559000C3E8E65F002EF7D10A4210D00C235C432B
:1055A000094E35196978305D04F073FD0020FFF76E
:1055B000B3FF05F02CF800233351C5E9013370BD6A
:1055C00010950123D0920123BC9201232DE9F041D3
:1055D000354B04461D7C00F07FF8611C064604D064
:1055E000721C53D0A642A8BF2646EFF31188202391
:1055F00083F31288BFF36F8F0C246C432B4B2C4F1B
:10560000195D1A19002943D007CA07EB040C8CE86E
:10561000070000221A5588F31188BFF36F8F0C23FF
:105620006B43F85CFA1878B3906860B1731C0AD0C9
:1056300010F1200F8EBF4FF000601F304009012194
:10564000301A01F0D9FA012402F042FD0120FFF7DF
:1056500063FF184B6A0903EB820305F01F0204FA8B
:1056600002F2D3E8EF0F1043C3E8E10F0029F8D1AD
:105670000C235D437B19785D597800F05FFCFFF7E0
:1056800077FF02F039FD2046BDE8F0812646ACE701
:105690003146284600F06AF820B107C83C4484E847
:1056A0000700B8E73855B6E710950123B0920123FB
:1056B000BC920123D092012301289FBF044B53F8D1
:1056C00020300B60034B94BF185C0020704700BF74
:1056D00088860123C687012370B5EFF31186202346
:1056E00083F31288BFF36F8F0A4B1B687BB1D3E93A
:1056F000024505F033FA201A65EB0101002901DAB1
:105700000020014686F31188BFF36F8F70BD4FF004
:10571000FF30F6E7D4920123124B1A7882420CD163
:105720005878884211D0FF290FD0187A904216D1AC
:105730005B7A8B4213D1012308E01A7A82420ED1A0
:105740005B7A8B42F7D0FF29F4E70023064A02EB8D
:10575000C303D3E8AF0F003818BF01207047002003
:10576000704700BFAC8A0123B08A01232DE9F743BB
:105770000D464B1C18BF4D0101A914BF4FF0000886
:10578000A846FFF799FF0646441E24B204EB4404E2
:10579000DFF84C90A40026B93746384603B0BDE880
:1057A000F083019B1F197978185DFFF7B5FF90B959
:1057B000D9F80020BB68002A01DB9A420BD9B8F166
:1057C000FF3F08BFB5F1FF3FE7D07A6813449D4221
:1057D00078F10003E1DA013EB6B20C3CDBE700BF32
:1057E000A88A012330BFFFF7FDBF00BF2DE9F041BC
:1057F00005460B4EDFF82C80324606EB0807CC1B23
:105800002046094905F0C0FAA01942460021083C8B
:1058100005F0C7FAC5F8804007F10800BDE8F0813F
:1058200000000000040000005C850123054B9A691C
:105830009B689A421FBF044A536843F080535360E9
:10584000704700BF1095012300ED00E0154B9A6AE8
:1058500012F0007F9A6A14BF1E201D2012F0807F74
:105860009A6A18BF1F2012F4801F9A6A18BF02207C
:1058700012F4002F9A6A18BF212012F4802F9A6A1E
:1058800018BF222012F4003F9A6A18BF232012F496
:10589000803F9A6A18BF24206FEA02426FEA1242E0
:1058A0009A62704700ED00E010B5194B0246986A05
:1058B0009C6A10F4805F14BF1720162014F4006F48
:1058C0009C6A18BF1820A40509D5986B986A000433
:1058D00004D51AB19A6A22F400429A6219200C4B3C
:1058E0009A6A12F4806F9A6A18BF1A20D2050CD4F3
:1058F0009B6A13F4005F18BF1C20054A936A43F4A7
:105900007F43936200230B7010BD1B20F5E700BF9F
:1059100000ED00E010B51C4B0246986A9C6A10F03E
:10592000100F14BF1120102014F0080F9C6A18BF2C
:105930001220A40709D5586B986A000604D51AB13D
:105940009A6A22F080029A6213200F4B9A6A12F030
:10595000010F9A6A18BF142012F0200F9A6A18BF1C
:105960001520D40658BF9B6A074B9A6A920642BF1D
:105970005A6A22F400525A629A6A42F0FF029A620C
:1059800000230B7010BD00BF00ED00E0F0B5474BE9
:1059900004465B6800258BB0C3F3080385F31188C8
:1059A000BFF36F8F02F07F40B0F17F4F11D102F053
:1059B0000C0008280DD010074CBF0C460125002212
:1059C000033B8DF80720032B05D8DFE803F02462A2
:1059D000665F2C46F3E700239DF80720CAB902AEA4
:1059E00004F12007324620686168083403C2BC42D3
:1059F0001646F7D1099A002D53D0C2F3080121B9F8
:105A00006FEA52226FEA42220992184602A904F074
:105A100013FB0BB0F0BD254BDA6A9107DBD4DA6AD1
:105A2000002AD8DBDA6A5200D5D55A69A16942F456
:105A300080725A61BFF34F8FBFF36F8F5A6931F88D
:105A4000021C22F480725A61BFF34F8FBFF36F8F35
:105A50004DF60272914209D09A6AD2B242B1012047
:105A60000DF10701FFF756FF0346B5E72368B3E7DB
:105A70009A6A12F47F4F05D001200DF10701FFF75C
:105A800013FFF1E79B6AB3F5803FA4D3FFF7DEFE77
:105A9000EAE700200DF10701E4E700200DF107011E
:105AA000EDE722F4FF7222F00102ADE700ED00E025
:105AB000064B5A6942F010025A615A6942F48062F8
:105AC0005A615A6922F008025A61704700ED00E0FD
:105AD000EFF30880EFF3098101B57246FFF756FF37
:105AE00001BD00BF002080F31488BFF36F8F00203A
:105AF00080F30A8880F30B880F4880F3088801F050
:105B0000A9F800200D490860BFF34F8F00F02CF872
:105B1000202080F311880A484FF40061401880F378
:105B20000988EFF314800221084380F31488BFF33F
:105B30006F8F00F0BBF8000090A9012394ED00E006
:105B4000509C0123BFF34F8F0549064BCA6802F4EE
:105B5000E0621343CB60BFF34F8F00BFFDE700BF90
:105B600000ED00E00400FA0572B6002383F3138809
:105B70004FF0FF300C4A03F120010133102B42F8A3
:105B80002100F8D100234FF0FF30074A03F16001F4
:105B90000133102B42F82100F8D162B6BFF34F8FCA
:105BA000BFF36F8F704700BF00E100E0084B9B68B8
:105BB00083420BD1EFF3058343B1064B5A6842F0A1
:105BC00080525A605A6A22F400425A6202F0ACBB18
:105BD0001095012300ED00E016498A684FF030006F
:105BE0001044EFF3098C80E8F01F202080F3128826
:105BF000BFF36F8F104F4FF000668A698A603E6076
:105C0000D2F880000D4C2060D2F884000023C2F846
:105C1000843080F3118802F1300090E8F01F8CF39B
:105C2000098802F1000004B504F01BFABDE8044045
:105C3000704700001095012304ED00E0D892012385
:105C40001EF0040F0CBFEFF30880EFF309808169A9
:105C500011F8021C0229FFD001B5724604F0F2F9D6
:105C600001BD00BF00B2002807DB01234109034A40
:105C700000F01F00834042F82130704700E100E04F
:105C800000B2002801F10101ACBF00F16040064BF9
:105C90004FEA4111C9B2ABBF00F5614000F00F00FF
:105CA00080F800131954704714ED00E00A4A08B553
:105CB0000A4B22F07F029A60BFF34F8FBFF36F8FC2
:105CC000D3F8882022F47002C3F8882001F0FCFB8E
:105CD00000F048F801F042FC0008012300ED00E06C
:105CE00042F8203C009B0B4942F81C3C019B21F0F0
:105CF000010142F8183C029B42F8081C42F8143C8F
:105D00004FF0807342F8043C0023203A0265C0F84B
:105D1000843070470513012300B50B4B154698607E
:105D2000D0F88020094B0E461A60036F83F30B886E
:105D30002C4686F309880020054B98472046002111
:105D400000220023034C204710950123D892012301
:105D50006B660123051301231022014B1A61704762
:105D600000ED00E00023202040F2D71210B5044CD3
:105D7000E1180133934281F80003F9D110BD00BF4F
:105D800000E100E008B572B60A4B5A691AB1002268
:105D90005A61FFF7EDFB62B6EFF30583064A103B4D
:105DA00002EBC30152F8330049688847BDE8084058
:105DB000FFF73CBD10950123A075012308B50549E7
:105DC000054A21F007010548521A03F08CF800201B
:105DD00008BD00BFB7AE012300FE0223DC92012301
:105DE00010B500F0EBFA00F0A9FA1021364800F0E7
:105DF00019FA364AD2F8903423F00103C2F89034ED
:105E0000334BD3F8082522F04002C3F80825D3F815
:105E1000082522F08002C3F80825D3F8182522F0BF
:105E20004002C3F81825D3F8182522F08002C3F8E1
:105E30001825D3F80C2522F04002C3F80C25D3F81E
:105E40001C2522F04002C3F81C25D3F80C2522F0B3
:105E50008002C3F80C25D3F81C2522F08002C3F879
:105E60001C2540F23F12D3F808151143C3F808155A
:105E7000D3F818151143C3F81815C3F80C25C3F847
:105E80001C251022134BD3F81804D3F83014D3F880
:105E90001044114BE4B2C3F86824012280B289B2E5
:105EA000C3F88024C3F84044C3F84404C3F848143A
:105EB0000021C3F85014C3F880145A615A6100F0ED
:105EC00027FA00EAE07010BDE892012300E00153D8
:105ED0000020015300E0FF0F00D0005348B1054BF4
:105EE000054A1B68B3FBF2F35843044B43F001032C
:105EF00018477047448C012340420F0070850123EE
:105F000010B50C4C00F022FA00F02EFAD4F800354F
:105F100023F08003C4F8003500F058FAD4F80035B7
:105F2000102123F04003C4F800350348BDE81040B9
:105F300000F0B8B900200153E8920123022810B5FF
:105F40002ED172B6012922D902291ED1FFF7D8FF1E
:105F5000002383F31188BFF36F8FBFF34F8F30BFE0
:105F6000114CD4F8003543F04003C4F8003500F07C
:105F700025FAD4F8003543F08003C4F8003500F06A
:105F8000DDF91021094800F04DF962B610BD00237B
:105F900083F31188BFF36F8FBFF34F8F30BFF4E7E8
:105FA000BDE8104004F068B800200153E8920123D6
:105FB00008B50F490F4803F004FA002817DB0C4915
:105FC0000D4803F0FEF9002811DB09490B4803F0E6
:105FD000F8F900280BDB0649094803F0F2F900281C
:105FE00005DB0349074803F0ECF900EAE07008BD5F
:105FF0009C860123EC8B0123A08B0123548B01236E
:10600000088B0123BC8A012370B504460D46C1618B
:106010000B4BD3E8AF3FC3F340019B0703D42B46A0
:10602000BDE8704018470246002190F8200001F0BA
:1060300047F818B16FF004012046F0E770BD00BFCB
:10604000EC92012370B504460D46C1610B4BD3E8B9
:10605000AF3FC3F340019B0703D42B46BDE870401C
:1060600018470246012190F8200001F029F818B1E4
:106070006FF004012046F0E770BD00BFEC920123F1
:106080002DE9F0410246EFF31183202181F31288BC
:10609000BFF36F8F418B003918BF012183F3118843
:1060A000BFF36F8F264DD5E8EF3F23F48073C5E82B
:1060B000E03F0028F7D1D5E8EF3F23F01003C5E813
:1060C000E03F0028F7D192F8200000F0F9FF18B166
:1060D0006FF00400BDE8F08104F040FD4FF47A76E3
:1060E000A0FB060447F6122206FB01410023FEF73F
:1060F00055FCB04604460F4604F030FDA0FB080CEA
:1061000047F61222002306FB01C1FEF747FC001BE5
:1061100061EB0701B0F57A7F71F1000102DB6FF0EE
:106120007300D7E7D5E8AF3FDA05C3F30020CFD43B
:10613000D5E8AF3FDB06CDD402F01AF8DCE700BFAC
:10614000EC92012338B54FF0FF304FF0FF3101F0F2
:10615000CFF8C0B21A4C38BB1A4800F08FFF054682
:1061600010BB1948FFF78CFF00281FDB1748FFF70B
:1061700087FF00281ADB1648FFF782FF002815DB8F
:106180001448FFF77DFF002810DB1348FFF778FF66
:1061900000280BDBD4E8EF3F43F00203C4E8E23F02
:1061A000002AF7D1284638BD6FF00400D4E8EF3F4D
:1061B00043F00403C4E8E23F002AF4D0F6E700BF4E
:1061C000EC920123DD270123EC8B0123A08B01231B
:1061D000548B0123088B0123BC8A01230246104BF8
:1061E0000846D3E8AF1F890706D51178C36901B9FE
:1061F00018476FF00401FBE7127842B9D3E8EF1FAC
:1062000041F01001C3E8E21F002AF7D17047D3E83C
:10621000EF1F41F48071C3E8E21F002AF7D17047F5
:10622000EC9201230129F8B5044629D0102926D182
:10623000184DEFF31186202383F31288BFF36F8F7D
:10624000002002462B68144F3B60DBB900B13B6075
:106250003AB9124AD2F8903423EA01030B43C2F848
:1062600090342146284603F01AFF002323606B6810
:1062700063B9C5E9004486F31188BFF36F8FF8BD99
:10628000074DD6E701201B680132DEE71C606C6019
:10629000F1E700BFF4920123F092012300E00153E3
:1062A000FC920123012970B50C4623D0102920D17E
:1062B000134DEFF31186202383F31288BFF36F8F02
:1062C0000146284603F0EBFE78B100210A462B6810
:1062D0000C4D2B6083B901B12B6032B90A4AD2F858
:1062E000903423EA0403C2F8903486F31188BFF394
:1062F0006F8F70BD054DDCE701461B680132E9E791
:10630000F4920123F092012300E00153FC92012357
:1063100070B5084D084E2846F56003F0DBFE0446D4
:10632000284603F0E0FE21460246304602F0DBFD3F
:10633000002070BDA8860123049301230122024B93
:10634000C3F80424704700BF003008E0002307B5FD
:106350001A4619460093034803F0CDFE03B05DF8DA
:1063600004FB00BF003008E010B5054CD4F804343D
:10637000012B01D1FFF7EAFF0023C4F8043410BD5C
:10638000003008E007B50B460121024600910348A2
:10639000002103F0B0FE03B05DF804FB003008E01C
:1063A00007B50B46012102460091034803F0A3FE06
:1063B00003B05DF804FB00BF003008E00122024B8F
:1063C000C3F80424704700BF002008E00022024BFD
:1063D000C3F80424704700BF002008E070B50446ED
:1063E00003F08EFFA4F10805C0F103002946C0B2F6
:1063F00000F02CFE30B12846BDE870406FF004017B
:1064000003F09CBF04F1C0000023BDE87040014AC6
:1064100001F070BCB4C4040038B505691D4905F12C
:10642000C80004F03DFA1C4905F1B00004F0E8F999
:1064300005F1F80401220021204604F063F9174811
:1064400000F0F2FD18B16FF00404204638BD294673
:10645000032000F0FBFD0028F5D100232046104A60
:1064600001F0B4FA04460028EDD195F8C030012BB4
:10647000E9D100F0E5FD042128460A4A00F03CF885
:10648000002805DB084800F0CFFD0028DDD0DAE762
:106490000446DAE73B68012353680123456801237A
:1064A000B4C40400DD29012317680123114BD3F87C
:1064B000C83003F00F03072B18D8DFE803F00409F6
:1064C0000B0D0F1113154FF4FA7303800020704762
:1064D000FA23FAE79623F8E76423F6E74B23F4E779
:1064E0003223F2E71E23F0E71423EEE76FF01500E6
:1064F000704700BF0087FF0F2DE9F84304460D46A3
:1065000090460026DFF8349000F11C07B54208DC05
:1065100004F108004146257604F072F90020BDE838
:10652000F8833846494602F04CFF002807F124075B
:10653000F5DB07F8046C0136E8E700BFCC860123E1
:10654000026911B902F11C007047436808681B68B2
:10655000984224D891F90530002B20DB8B88C3F3B7
:106560000E01012907D00B4691B10E4909889942C5
:1065700006D800230CE00B4B1B881E2BF9D91E23D9
:1065800008498888984208D90989994207D802237E
:10659000242101FB03201C3070470123F8E7002071
:1065A000704700BFCC8C012341F2883337B5114CC2
:1065B0000569A380104BD3F8C830C3F30213063B20
:1065C000012B12D90DF10600FFF770FF00280FDB39
:1065D000A388BDF80620134403212846074AA38058
:1065E00003B0BDE83040FFF787BF41F2A633F3E7C1
:1065F00003B030BDCC8C01230087FF0F012C012399
:10660000F8B5044603F07CFE214E870006EB8000BF
:106610008378A4F10805022B15D11E4B0021C4F884
:10662000843003231C48C4F888308368C4F88C1075
:10663000DB6904F180029847011E28DA2846BDE88C
:10664000F84003F07BBED5E8EF3F23F48062C5E855
:10665000E12F0029F7D15B0504D50F48002183689D
:106660001B6A98473E44B67804F190000B4C46B93B
:106670000121C4F84464FFF715FE012300212360C3
:10668000DCE70121FFF7CEFDC4F84464F5E7F8BD6F
:10669000CC8C0123A12C01238074012300E0015341
:1066A000084610B5A1F18804191E04DA2046BDE899
:1066B000104003F043BED4E8EF3F43F48063C4E8E6
:1066C000E23F002AF7D101211030FFF7ABFD022293
:1066D000034B0021C3F8442401221A60E6E700BFFF
:1066E00000E0015370B50446EFF3108672B6B0F8BF
:1066F0005C3053B9094D0121C5F820315830D5F827
:106700002031FFF78FFD01232B65B4F85C30013396
:10671000A4F85C3086F3108870BD00BF00E0015320
:1067200010B5EFF3108472B6B0F85C3013B984F38F
:10673000108810BD013B9BB2A0F85C30002BF6D155
:106740000121034B58305965FFF7ACFDEFE700BF5F
:1067500000E0015338B505690F49284602F031FEC3
:10676000002815DB0D4BD3F8D8305A1C11D000246B
:106770001F3344F100025B0943EAC2635209C5E9D1
:10678000183205F120002246054904F0E9F92046B7
:1067900038BD6FF01500FBE7DC8601230087FF0F93
:1067A0001B6A01230148FFF79DBF00BFA88E01238C
:1067B0000148FFF7B5BF00BFA88E0123F0B50469FB
:1067C00011B904F11C00F0BD43680A681B689A42C5
:1067D00010D88A8894F80A61C2F30E03012B4FF097
:1067E000000308BFB4F808210E4D18BFC2F30E0213
:1067F0009E4201DC0020E6E72AB135F82300C0F311
:106800000E00904207D805EB830040784F79C0090D
:10681000B0EBD71F01D20133EAE7242202FB034089
:106820001C30D0E7D88C012370B504693D4800F0D6
:10683000BDFB064600286ED1032384F80A313A4B8B
:10684000D3F8C850C5F30215AB1F012B0FD81E2378
:10685000A4F8083104F1D0000022344904F080F992
:106860002046BDE870400521314AFFF745BE04F5DA
:106870008470FFF71BFE00284FDB022D24D0032D70
:106880003DD0002D4AD12B4BB4F808119A89C1F3A1
:106890000E0161F30E029A81C2F3072265F3C7125B
:1068A0005A7306229A731A8A61F30E021A82C2F38D
:1068B000072242F080025A740A229A7494F80A312C
:1068C000023384F80A31C5E71A4BB4F808119A89E3
:1068D000C1F30E0161F30E029A81C2F3072266F33F
:1068E000C7125A7307229A731A8A61F30E021A8228
:1068F000C2F3072242F080025A740B22DDE7B4F89B
:1069000008310C4AC3F30E0393810823937394F860
:106910000A310133D5E76FF0040070BD6FF0150048
:10692000FBE700BF856B01230087FF0F7B6B012313
:10693000392F0123D88C012337B5044603F0E0FC3E
:106940000F4BA4F1080503EB80002946807800F086
:1069500039FB38B16FF00401284603B0BDE8304080
:1069600003F0ECBC0022002304F1C800CDE90023B1
:1069700047F61222002301F095FF03B030BD00BF9F
:10698000D88C0123C0B22DE9F84303282CD8DFE8C6
:1069900000F0021F2327154BD3F80C530024144F8B
:1069A000DFF85080DFF8509025FA04F3DB070AD5B2
:1069B000002358F8246047F8243026B1214659F8BE
:1069C00024200E48B0470134202CEDD1BDE8F883D7
:1069D000064BD3F81C53E1E7044BD3F82C53DDE707
:1069E000024BD3F83C53D9E70025D7E700B0095F45
:1069F00000B1095F40940123C09301230075012376
:106A00001F299FBF054840F82120054A002094BF58
:106A100042F821306FF01500704700BF4094012309
:106A2000C09301231F2970B502D96FF0150070BD06
:106A300000200123044603FA01F12A4D2A4B55F8A0
:106A4000046B002E43D00E4241D01C6804EA0106BC
:106A500002B3002E43D10C4302281C60234C0FD0FC
:106A6000032813D0012803F1040304D0C4F804134D
:106A700014460120E3E7C4F8141314460220DEE7AD
:106A8000C4F82413144604330320D8E7C4F834139D
:106A90000020CCE71EB324EA010402281C60134C3A
:106AA0000DD0032810D0012803F1040303D0C4F84B
:106AB00008130124DDE7C4F818130446DEE7C4F820
:106AC000281304330124DFE7C4F83813E0E701306A
:106AD000042803F10403B2D1002CD9D1A5E76FF04B
:106AE0007700A4E700870123B093012300B0095F7A
:106AF000002341F2410118460F4A10B502F5807299
:106B0000C2F80812C2F81832C2F82832C2F8383275
:106B100021FA03F4E40748BF42F823000133202B95
:106B2000F6D1002201216020FFF7AAF86020FFF7CC
:106B300099F8002010BD00BF00B0095F73B514467E
:106B40001D46684600F0FCF8009BA342019BAB4148
:106B500014D30B4AD2E90061A41B24F01F0365EB98
:106B6000010064099B1941EB000144EAC060C2E9DD
:106B7000003102B0BDE8704001F0AEBD02B070BDA2
:106B80002090012310B5002201216D20FFF778F835
:106B9000002000F003F90A4B044698420AD1094844
:106BA00000F0F6F8A04208D14EF280020020064B19
:106BB0001A6010BD4FF0FF30FBE76FF00B00F8E7F5
:106BC0000000AD0B408C0123C094012307B568463B
:106BD00000F0B6F80098074AD2E90032C01A019BCB
:106BE0004FEA501063EB020340EAC36003B05DF864
:106BF00004FB00BF209001237FB5431C18BF20EA8F
:106C0000E07502A808BF6FF0004500F099F80299FE
:106C10000E4B2020D3E900268C1A039961EB060362
:106C20002146C5FB0013402973F1000436BF01461D
:106C300021F01F01002352184FF0010146EB03031E
:106C40000091034800F0FCF804B070BD20900123CF
:106C5000388C0123034AD2F88C3043F44063C2F8E5
:106C60008C30704700ED00E030B50468ACB1B4FA88
:106C700084F30122C3F11F03DBB29A4024EA02022B
:106C8000D0E8EF5FA54204D1C0E8EC2FBCF1000FC3
:106C9000F6D1EAD102480B7030BD0248FCE700BFD4
:106CA0000000AD0B0200AD0B70B500234EF2800466
:106CB0000126027A94FAA4F1B1FA81F1914203F12A
:106CC000010518D100210C24120102F1BF4202F586
:106CD000CE12C2F82C150B4ADBB204FB0323016869
:106CE000D960416819610121007A18759368814063
:106CF0000B43936070BD06FA01F12B4624EA0104B0
:106D0000D8E700BF488C0123012303FA00F04EF2BC
:106D10008003184209D0064A526823EA020303425C
:106D2000044B054818BF184670470448704700BF19
:106D3000488C01230000AD0B0400AD0B0800AD0B27
:106D4000002200232DE9F048C0E90023EFF3118170
:106D5000202383F31288BFF36F8F4FF0FF356FF05E
:106D60004044094ED6E900BC5D4574EB0C07F9D3ED
:106D7000CCF31303C0E900B381F31188BFF36F8F25
:106D80000248BDE8F08800BF70C7995F0000AD0BF6
:106D900001460148FFF768BF4C8C0123F8B5234D2D
:106DA0002A78002A3ED110234EF2800101F0010022
:106DB0000244013BD2B24FEA5101F7D1042A33D148
:106DC0001A460127194800244EF280065FFA82FC19
:106DD00096FAA6F15FFA84FEE645B1FA81F11BD37B
:106DE0000132042A017500F10C00ECD101204EF2B1
:106DF000800400260E499A0800FA02F222421CBFC3
:106E00005E505A580433402BF5D16D20FEF72AFF0F
:106E1000012308482B70F8BD07FA01F126EA0106A4
:106E20000134D5E70448F6E70448F4E7488C012329
:106E300000C1995F0000AD0B0C00AD0B0100AD0B64
:106E40002DE9F0410446007A1D461746FFF75CFF26
:106E5000194B064698429DF8188029D12046FFF725
:106E600023FFEFF31180202383F31288BFF36F8F8A
:106E7000227A124B9200134400221A60217AC5F341
:106E80001305090101F1BF4101F5CE111B68C1F8DD
:106E90002075C1F8245580F31188BFF36F8FB8F1C6
:106EA000000F05D00123227A9340054AC2F85433DB
:106EB0003046BDE8F08100BF0000AD0B00C1995F16
:106EC00000C0995FF7B54EF280010020244B0126E7
:106ED0005A689B6821EA020119400C4607460CBB20
:106EE0000127204B1E4DD3F850630640287D07FA3A
:106EF00000F333420FD0E96869B10201D5F810C040
:106F000002F1BF4202F5CE12D2F82435D2F8202584
:106F1000CDF800C088470134042C05F10C05E5D1FB
:106F200003B0F0BD94FAA4F5B5FA85F5AB0003F50E
:106F300080729B0806FA03F319420BD002F1BF429C
:106F400002F5CE12D2F800C0BCF1000F02D01760DB
:106F50001268184306FA05F524EA0504BFE700BFE6
:106F6000488C012300C0995F13B50F4B1A68BAB162
:106F70001B79ABB1038813F4804103D001238DF852
:106F8000043009E0C488012BADF805400AD0033B6A
:106F9000012B05D88DF80410D0F8021001A89047F5
:106FA00002B010BD0223EAE7C4940123044B024659
:106FB0001979012011B9187108461A60704700BF8D
:106FC000C494012307B5094B1B796BB103238DF8DA
:106FD0000600CDF8021068460721ADF8003003F036
:106FE00019FB03B05DF804FB0120FAE7C494012308
:106FF00007B50C4A13685BB112794AB10288510493
:1070000009D500228DF80420D0F8021001A8984775
:1070100003B05DF804FB40F601118A42F8D1012269
:10702000F0E700BFCC940123044B024619790120FC
:1070300011B9187108461A60704700BFCC9401233B
:107040000022014B1A717047CC94012307B50A4BFB
:107050001B7973B140F60113CDF802108DF80600CC
:1070600007216846ADF8003003F0D4FA03B05DF8AC
:1070700004FB0120FAE700BFCC940123044B024635
:107080001979012011B9187108461A60704700BFBC
:10709000D494012307B5094B1A6862B11B7953B127
:1070A0000388D0F8021013F4804318BF012301A80D
:1070B0008DF80430904703B05DF804FBD4940123AD
:1070C00007B50B4B1B7983B140F201338DF80600F5
:1070D0008DF8071068460821ADF80030CDF8022081
:1070E00003F098FA03B05DF804FB0120FAE700BF53
:1070F000D494012307B50C4B1A688AB11B797BB174
:107100000388D0F802105B0403D502238DF8043005
:1071100004E08379002BF9D0012BF7D001A8904728
:1071200003B05DF804FB00BFDC94012313B5114AE2
:107130001368A3B1127992B1028812F4804103D08E
:1071400002228DF800200EE0D0F80640019440F2B3
:107150000174A24205D040F202718A4208D002B006
:1071600010BD8DF80010D0F8021068469847F6E779
:107170000122E6E7E494012313B5114A136863B1D1
:10718000127952B1028812F4804108D001228DF8A0
:107190000420D0F8021001A8984702B010BD40F6B4
:1071A0000104A242F9D182798DF804108DF80720EC
:1071B000C2798DF80620027A8DF80520E9E700BF34
:1071C000EC94012370B50588ABB22D0404D50639C3
:1071D000063003F01EFA70BDC3F305230A2BFAD85C
:1071E000034A52F82330002BF5D0BDE87040184711
:1071F00014870123F8B506460C460625084F22469B
:107200003146384602F0C7F9844206DD012003F01A
:1072100006FC013DF3D10220F8BD0020FCE700BFD1
:10722000988C012310B501210C4803F01AFD0122AE
:107230000B4BD3E8EF1FC3E8E02F0028F9D1094B2F
:107240001B6A13B1084800F0E7FC084B1C6804B93E
:1072500010BD636898472468F9E700BF288D0123B3
:10726000A08C0123008D0123FC940123F4940123BD
:10727000034BD3E8AF0F431E58425841704700BF3D
:10728000A08C0123F0B58BB005460C4617461E4670
:1072900003F025FB48B9FFF7EBFF30B12146284644
:1072A0000BB0BDE8F040FFF7A5BF202C1AD85C2337
:1072B0002246294602A8ADF80430ADF8064003F096
:1072C00063FD09483A46334601A900F0C5F948B9BB
:1072D000FFF7CEFF20B1054800F09EFCC00F400034
:1072E0000BB0F0BD0220FBE7008D0123FC940123CD
:1072F00013B50446FFF7BCFF024610B1002002B0F0
:1073000010BD0548CDE90041012103F0ADFC012885
:10731000F4D06FF00A00F2E7288D012338B50F4D45
:107320000F49104803F06CFA286802F012F9041EA5
:1073300009DA14F1780F06D000222146052003F067
:1073400077F9204638BD6A680749286802F00FF9C6
:10735000041EF6DA002221460620F0E7908C012375
:107360006D390123FC940123988C012330B50C4D19
:107370008BB000220023284601A900F0C7F904467B
:1073800008B10BB030BDBDF8061002A8FFF732FF00
:107390000028EED001222146082003F049F9E8E751
:1073A000008D012338B5EFF31185202383F3128874
:1073B000BFF36F8F064B9C6803F06BF985F3118860
:1073C000BFF36F8F2046BDE83840FEF7EFBB00BF2C
:1073D0001095012338B50A4B53F82040013053F87B
:1073E0002050A54200D838BD606830B1037FDB076C
:1073F00001D403F051F90834F3E723689847FAE71A
:1074000040870123012270B52A4B032086B01A70F1
:10741000FFF7E0FF01F0AEFA03F057F90420FFF7A1
:10742000D9FF254C254D2646AE4204F1300410D339
:1074300000F04EFE204C224EAC4226D300F05CFE03
:10744000FDF724FC1F4A137B23F00103137306B0DE
:1074500070BD54F80C3C059354F8103C049354F858
:10746000143C039354F8183C029354F81C3C0193C9
:1074700054F8203C009354E90A2354E90C0100F02D
:107480003FFC54F8303C5E65CDE7D4E90A23B3F104
:10749000FF3F08BFB2F1FF3F05D052EA0301206869
:1074A00003D100F017FF3034C6E73146183001F041
:1074B0009DF8F8E74D950123588401235884012352
:1074C000EB6F0123B890012308B50348034A00215C
:1074D000121A03F0F8F808BD488D012350950123D6
:1074E000902370B5174E012203FB0066002386B07F
:1074F000CDE904230F220193CDE9023214234FF486
:10750000A0720446104D114903FB005502FB001107
:107510000F4B3046009500F0F3FB737B2C7423F087
:10752000040373730B4B013403EBC4236B600A4BEE
:10753000EE60D3E8EF1F0131C3E8E21F002AF8D163
:1075400006B070BD289001231095012350A401239B
:10755000213C0123509C01230C950123BFB5002041
:10756000FFF738FF264B03F5006282F3088883F3A8
:107570000A880024E023234D234F85F82230EC773E
:107580002C766C76AC766B6A43F4E0236B6285F8FC
:107590002340FEF78DFAFEF7DFFB4FF0FF331B4869
:1075A000AB62EB6200F018FC03F061FB0120FFF717
:1075B00011FF0220164DFFF70DFF00F0D1FD154B16
:1075C00015499D61154B4FF48062059301232846B0
:1075D000CDE90343CDE901443B46009400F090FB24
:1075E00006466A7B284622F004026A7303F0BAF961
:1075F0002046FFF775FF3A4631462846FEF78CFBDA
:10760000509C012300ED00E0053A0123489101233D
:10761000B89001231095012390A501232888012308
:10762000202408B50A4D0B4EEFF3118384F3128822
:10763000BFF36F8F03F07FFA3378686113B902F0FC
:107640001BFDF1E7FDF7C2FF0028EDD1F7E700BF12
:10765000109501234D9501232DE9F34104460E4673
:1076600000F10808EFF31187202181F31288BFF39E
:107670006F8F006AE168884234D22568AC421AD024
:10768000CDB1284603F022F805F1180003F032FAD4
:10769000A26800243146286903F076FB2846C5F825
:1076A000884003F05FF94046394600F0EBFC204685
:1076B00002B0BDE8F081A2683146E06903F064FBE6
:1076C0000020E369A26813446269E361934204BF46
:1076D0002369E361236A0133236287F31188BFF3CF
:1076E0006F8FE5E752EA03010AD0074940468968EF
:1076F0000E61CDE900233946224600F047FCD7E76A
:107700006FF02200E9E700BF10950123F7B50446AA
:10771000084604F10807EFF31186202181F312884F
:10772000BFF36F8F216A00293AD0A268A16903F0E4
:107730002BFBA369A268256813446269A361934285
:1077400004BF2369A361236AAC4203F1FF332362C0
:1077500034D02846002D32D002F0B8FF05F11800D1
:1077600003F0C8F9A2682969E06903F00DFBE36939
:10777000A268284613446269E361934204BF236907
:10778000E361236A013323620024C5F8884003F0D3
:10779000E9F83846314600F075FC204603B0F0BDEC
:1077A00052EA030110D00A4989680861CDE9002333
:1077B00031462246384600F0E9FBEFE7002086F329
:1077C0001188BFF36F8FE9E76FF02200F7E700BF82
:1077D000109501232DE9F341044617461E46EFF3A9
:1077E0001188202383F31288BFF36F8FC368334A55
:1077F0007BB180689168884219D057EA060318D196
:1078000088F31188BFF36F8F6FF00F0002B0BDE8EF
:10781000F081916891F90E100133E3609368216162
:10782000A36088F31188BFF36F8F0020EEE7216912
:10783000F2E791F90E1090F90E306FF07E02994246
:10784000A8BF19469142B8BF11468B422DDD02F008
:107850004AFF054622464146CDE90076184800F029
:1078600095FB0028E1D0EFF31186202383F31288E3
:10787000BFF36F8FA068D0B1236821699C420AD002
:107880004BB193F90E309942A8BF19466FF07E03B1
:107890009942B8BF194602F026FF40B13146084868
:1078A00000F0F0FB6FF00A00B0E70025D2E7002DF2
:1078B000F4D186F31188BFF36F8FF3E7109501239E
:1078C0004E950123F8B583680546002B40D0234A26
:1078D000926893423FD1C368012B03D9013BC36037
:1078E0000020F8BDEFF31187202383F31288BFF344
:1078F0006F8F0169806802F0F6FE2C68A54207D1FF
:107900000023C5E9023387F31188BFF36F8FE7E7E0
:10791000002CF5D0D4E90032002613605A60637B56
:10792000C4E9006623F002036373A66004F1180043
:1079300003F0E0F8AC6094F90E3020462B61C4F8F7
:10794000886003F00FF83946054800F09BFBC7E755
:107950006FF01500C5E74FF0FF30C2E71095012327
:107960004E95012370B5EFF31186202383F312881F
:10797000BFF36F8F0468A0421BD0D4B1D4E90032AA
:10798000002513605A60637BC4E9005523F00203AD
:107990006373A56004F1180003F0ACF82046C4F846
:1079A000885002F0DFFF3146BDE87040064800F025
:1079B00069BBD0E902329A4218BF0133836086F373
:1079C0001188BFF36F8F70BD4E95012313B5EFF390
:1079D0001181202484F31288BFF36F8F846844B12F
:1079E000013C846081F31188BFF36F8F002002B0E7
:1079F00010BD52EA030406D181F31188BFF36F8FE3
:107A00006FF00F00F3E7CDE900230246014800F0D4
:107A1000BDFAECE74E9501232DE9FF4104462027EE
:107A20004E4EEFF3118887F31288BFF36F8FD4F8AF
:107A30009050F5B9022104F1A80002F06FFE002871
:107A400068D004F1A00500220121284602F0F4FFCD
:107A50000028F8D100234FF0FF3202934FF0FF339C
:107A60004146CDE900233E4804F1980200F0F8FCBD
:107A7000D7E7D4F894202B689542C4F8903008BF1B
:107A8000C4F89430D4F8A83043F00203C4F8A83006
:107A9000EB6823F0040343F00103EB606B6888F3A9
:107AA0001188BFF36F8F28469847EFF3118887F34B
:107AB0001288BFF36F8FEB68D80623F0010236D42B
:107AC000EA60EB689A0716D5306823F00203EB6092
:107AD00088B10021036870B14268954235D10368CE
:107AE00069BB72683360824200D17360002340F842
:107AF000083BFFF737FFD4F8A83023F00203C4F89F
:107B0000A83088F31188BFF36F8FDB0589D400F0AC
:107B10002FFB86E7D4F8A830D9069BD5C4F8A80077
:107B200088F31188BFF36F8F04B0BDE8F08123F0B4
:107B30001103EB6005F11000FFF714FFC1E70B60C4
:107B40007368834208BF7160D0E723B11A680146A9
:107B500018461346BFE71A46F9E700BF34950123DC
:107B60004E950123F8B5C36804469A070F46C3F340
:107B700040062CD45B071AD40B680BB983680B60E2
:107B8000E368DD0742BFA36802263B603D6858BF3B
:107B90000126002D3AD01F4B9B68AB420AD0D5F886
:107BA000A830D807C3F3800214D46FF01206002364
:107BB0003B6025E002F093FED5F8A8300028F0D114
:107BC000D907C3F3C002F0D552B15B0708D46FF0F8
:107BD0000F06ECE7002AFAD1C3F3C003002BF6D15D
:107BE00000232360D5F8943063B9C5E924442846BE
:107BF00002F0AEFDE36843F00403E3603B68A3607A
:107C00003046F8BD1C60C5F89440F0E76FF01506EB
:107C1000CDE700BF109501230146014802F01BBECD
:107C2000F8910123F0B50446002089B0C4E924008E
:107C30000E9D04F19800C4E9260004F1A000C4E9F7
:107C400028004DB32879002840F2011008BF012018
:107C5000C4F8A80000204FF0FF364FF0FF37CDE901
:107C60000330CDE90100CDE9066720460B4B0094B7
:107C700000F086F855B1296811B1204602F035FEB2
:107C80006B791BB1237B43F001032373204609B0BA
:107C9000BDE8F04000F01EBB0120D9E719400123E8
:107CA00037B501900846EFF31184202181F3128843
:107CB000BFF36F8FC16811F01E0F16D153EA020592
:107CC00008D101A9FFF74EFF84F31188BFF36F8F2E
:107CD00003B030BD41F00801C160019910308161ED
:107CE000034900F083FC0120EEE70020ECE700BF31
:107CF000C56D012301460148FFF7D2BFF89101236A
:107D00002DE9F043984685B000F15803C0E91633D9
:107D1000109B002503730423073222F007064373E8
:107D20000F9B01EB06090F4683734946C0E90655D0
:107D30008560C5730446FDF759FD0E9B073020F0A2
:107D40000700A067C4E91C7602930D9BA9EB00090C
:107D500001930C9B4A460093394643462046FDF763
:107D6000BFFF064B65659B6884F86C5003B1DB6F01
:107D70004846E36705B0BDE8F08300BF10950123D6
:107D8000F0B5002587B00595109DDDE912760495C4
:107D90000F9D044603950E9D02950D9D01950C9D2A
:107DA0000095FFF7ADFFB6F1FF3F08BFB7F1FF3F0A
:107DB00005D056EA070305D1204600F08BFA20468D
:107DC00007B0F0BD3A463346024904F1180000F00E
:107DD0000DFCF4E7EB6F012340F2011383810023D4
:107DE000C0E91C33C367014B9860704710950123AD
:107DF0006FF00A01094A9368C3F888100849C3F86C
:107E000084004B6843F080534B60002383F3118858
:107E1000BFF36F8F9368D3F88800704710950123E4
:107E200000ED00E070B590F90D20437B002A36DBB1
:107E3000D90634D11B4C63F07F032246437352F8BA
:107E40001C3F216A934207D1C0E9002108602062EB
:107E500011E09942F8D01B68002BF5D090F90E5034
:107E600093F90E60B542F4D0AE42F2DD5968C0E934
:107E7000003108605860E569954200D005B9E568B1
:107E8000A3685A7BD20604D1DA897F2A01D9AA696C
:107E900032B1AB4202D0284600F022FBA56170BD92
:107EA000A361FCE71095012338B590F90D20014638
:107EB000002A437B04DA03F07F03437302F018FDCA
:107EC0000D4D2A4652F81C4FAB68944200D004B9BD
:107ED000EC688B4207D05A7BD20604D1DA897F2A1C
:107EE00001D9A2692AB1A34202D0204600F0F8FAD3
:107EF0002346AB6138BD00BF1095012370B590F9E2
:107F00000D200146002A437B04DA03F07F0343730C
:107F100002F0EEFC1C4C4B7B224663F07F034B735C
:107F200052F81C3F206A934207D1C1E9002001604A
:107F3000216211E09842F8D01B68002BF5D091F92E
:107F40000E5093F90E60B542F4D0AE42F2DD58689F
:107F5000C1E9003001605960E569A368954200D02D
:107F600005B9E5688B4207D05A7BD20604D1DA897D
:107F70007F2A01D9AA692AB1AB4202D0284600F073
:107F8000AFFA2B46A36170BD10950123F8B5124BD3
:107F90000C46DDE9067611469868104A1060EFF34A
:107FA0001182202282F31288BFF36F8F9D682846CA
:107FB00002F0B0FCB6F1FF3F08BFB7F1FF3F06D0BB
:107FC0003A463346064905F1180000F00FFB2046FB
:107FD000BDE8F840FFF70CBF109501233C95012345
:107FE000EB6F0123F8B50446EFF31187202383F3E9
:107FF0001288BFF36F8F437B49B203F01F02002A40
:108000000CBF0126002639D103F07F031C4D4373BA
:1080100002F06EFC2A46437B817363F07F03437357
:1080200052F81C3F934227D1286AC4E9002004601B
:108030002C620FE08342F8D01B68002BF5D093F937
:108040000EC06145F6D08C45F4DD5968C4E90031B5
:108050000C605C60EC69944200D004B9EC68AB68D9
:108060009C4202D0204600F03BFAAC6187F31188B5
:10807000BFF36F8F3046F8BD286ADEE78173F5E7FE
:108080001095012349B9EFF3058030B9054B9A6982
:108090009B689A4201D0FFF7ABBE81F31188BFF312
:1080A0006F8F704710950123034648B9EFF305829F
:1080B00032B9064A91699268914201D0FFF798BEA1
:1080C00083F31188BFF36F8F704700BF10950123B2
:1080D000EFF31181202383F31288BFF36F8F054BD9
:1080E0009A68D37B013BD37381F31188BFF36F8F01
:1080F000704700BF1095012370B5EFF31186202360
:1081000083F31288BFF36F8F144DAB68DA7B0132B3
:10811000DA732A4652F81C4F944200D004B9EC6836
:108120005A7BD20604D1DA897F2A01D9A2692AB101
:10813000A34202D0204600F0D3F92346AB6186F378
:108140001188BFF36F8FEFF31180202383F3128820
:10815000BFF36F8FBDE87040FFF7A6BF10950123F6
:10816000024B03F11C02C3E907227047109501235B
:1081700070B5EFF31186202383F31288BFF36F8F5E
:108180001B4CA168206A0B68814214BF1A4600226A
:1081900049680B605960A368216A2AB9154AC3E986
:1081A00000210B6023620CE093F90E0092F90E504F
:1081B000A84218D0854216DD5168C3E900210B6042
:1081C0005360E5690B4B9D4200D005B9E568A36893
:1081D0009D4202D0284600F083F9A5613046BDE8F3
:1081E0007040FFF705BE8A42D8D01268D5E700BFBD
:1081F000109501232C95012351EA00032DE9F0414C
:1082000005460E4604D1FFF7B3FF0020BDE8F0811C
:10821000431C71F1FF3324DB02F09CFC4419EFF3A3
:108220001188202383F31288BFF36F8F0F4F104BF9
:10823000B8681860FFF738FEB8680E492A4633461A
:10824000183000F0D3F9BA684046537B43F004037A
:108250005373FFF7CDFD02F07DFC201A20EAE07099
:10826000D4E76FF00104241AD9E700BF1095012369
:108270003C950123EB6F012338B504460D46FFF70B
:10828000BBFFB5F1FF3F08BFB4F1FF3F02462046F8
:1082900018D000234FF47A7447F611201946C2FB18
:1082A000040147F61222904271F100020BD3084BF1
:1082B000834243F608538B4107D347F6122200232B
:1082C000FCF76CFB38BD1846FCE76FF00040F9E79F
:1082D000ED85FFFF38B50446EFF31185202383F3C6
:1082E0001288BFF36F8F437B5B070FD5183002F006
:1082F00001FC637B204623F004036373FFF792FDC8
:108300002946BDE838400448FFF7BCBE85F3118814
:10831000BFF36F8F38BD00BF4E950123014B9868A6
:10832000704700BF109501232DE9F8430446077BF1
:10833000EFF31185202383F31288BFF36F8F437B04
:10834000190705D585F31188BFF36F8FBDE8F88352
:10835000D90943F008025AD14273A36813B12046E9
:1083600002F0CEFA04F1180002F0C4FBA66D04F18D
:108370005808B04511D04FF0000976B1304602F0F0
:10838000BFFA06F1180002F0B5FB3046C6F8889037
:10839000FFF748FDA66DB045EFD1DFF8B880D8F8FB
:1083A00008309C423BD1EFF30589B9F1000918BFB1
:1083B0004FF00109D8F81C60274A964200D00EB948
:1083C000D8F80C60B34202D0304600F089F8C8F803
:1083D0001860B9F1000F02D02048FFF7FDFCD8F873
:1083E00008309C4231D1EFF3058373BB227BD20767
:1083F00018D42846FFF7FCFCFB07A7D5002383F31E
:108400001188BFF36F8F0423184602DF9EE703F045
:108410007F0343F00803437302F06AFA9DE74FF0CD
:108420000009C7E785F31188BFF36F8F83F31188C5
:10843000BFF36F8F0423184602DFEFF31180202370
:1084400083F31288BFF36F8FD4E785F31188BFF3EE
:108450006F8FD1E7109501232C95012348910123BB
:10846000D3B5DDE90667089CCDE90067FFF78EFD0F
:108470001CB1034B9B681B69236002B0D0BD00BFD9
:10848000109501230122044BC01A044BC01058431D
:10849000034B1A54704700BFD8910123ABAAAAAA74
:1084A0004E950123C3897F2B12D80A4B1B6863B1F9
:1084B000094B90F90E201B689A4209DB437BDB06CF
:1084C00006D1064BC31A18BF012303F00100704701
:1084D0000023FAE7449501234095012328900123C6
:1084E00070B50E4B0E4C1E7C054606EB460304EBA6
:1084F000C304204602F0FEFA00220A4B28469A5591
:10850000FFF7D0FF48B1084B2046BDE870401A681D
:108510000649013AD31700F069B870BD10950123E0
:10852000D89101234E95012344950123854A0123C7
:1085300038B5EFF31185202383F31288BFF36F8FD3
:10854000104B114A9C681068A04206D1FFF7C8FF83
:1085500085F31188BFF36F8F38BD00211B7C11603C
:108560000A4AD35C002BF3D02046FFF79BFF00287C
:10857000EED0637BDB0602D12046FFF7BFFC20462E
:10858000E4E700BF109501233C9501234E9501239C
:10859000024B1868984208BF00207047C48C012322
:1085A000034B1B680BB9FEF711BB0020704700BFDF
:1085B0004895012330B570B10B4B5B6898420AD0E7
:1085C000036843B1D3E90421D0E90445121941EB12
:1085D0000501C3E90421D0E9003213605A60002389
:1085E000C0E9003330BD00BFC48C0123B3F1FF3FAD
:1085F00008BFB2F1FF3FF8B504461D4617465AD0F2
:108600008160EFF31186202383F31288BFF36F8F0D
:10861000013275F1FF3316DBFFF7C2FF7B1C45F11A
:1086200000051B1845EBE070C4E90430FFF7B0FF0C
:10863000264F84467868BCF1000F18D1C4E9007059
:1086400004607C6027E06FF001032149D1E900203C
:108650009B1A4FF0FF3262EB0000DB1B60EB050062
:10866000012B70F10002BCBF01230020DCE7DCE934
:108670000425D4E90431934271EB050E1CDAD21AB9
:10868000DCF8043065EB0105CCE90425C4E900C33E
:108690001C60CCF80440FFF77BFF844207D10D4BF0
:1086A0001C6824B902F00DFA2146FEF7A5FA86F3FC
:1086B0001188BFF36F8FF8BD9B1A61EB05018445EC
:1086C000C4E90431BAD0DCF800C0B4E7C48C01239B
:1086D000F0910123489501232DE9F047EFF311852F
:1086E000202383F31288BFF36F8FDFF8A09000265A
:1086F000C9F800000027FFF74BFFDFF89480D9F896
:108700000030D8E900ECD91750B1D0E90442A342B7
:1087100071EB020A1ADAE41A62EB0102C0E90442C0
:10872000002413EB0E034CEB0101C8E90031C9F83A
:10873000004002F0C6F92146FEF75EFA85F3118883
:10874000BFF36F8FBDE8F047FFF7F2BE14EB0E02E8
:108750004CEBE473C0E90467C8E90023FFF72AFF84
:1087600085F31188BFF36F8F83689847EFF3118506
:10877000202383F31288BFF36F8FD9F800301B1BBF
:10878000C9F80030FFF704FFB9E700BF489501239F
:10879000F091012310B5EFF31184202383F31288A5
:1087A000BFF36F8FFFF7FCFE0346054AD2E90001D5
:1087B000181841EBE37184F31188BFF36F8F10BD7C
:1087C000F0910123F8B50446EFF31187202383F3DA
:1087D0001288BFF36F8F026822B187F31188BFF34D
:1087E0006F8FF8BDD0E90A36581C46F10001022807
:1087F00071F1000127D3012B76F10001BCBF0123E9
:1088000016465D1E46F1FF3602F0A8F9013041F12F
:108810000001401946EB0101012871F100013ADB2A
:1088200002F09CF9013041F100016FF001024019A2
:1088300046EB01034FF0FF31121A61EB03032046B0
:108840001749FFF7D3FE236B01332363236A6BB110
:1088500087F31188BFF36F8F2046236A9847EFF3A1
:108860001187202383F31288BFF36F8F54F8185FAA
:10887000A542B2D0002DB0D0284602F082F80023E5
:10888000C5F8883087F31188BFF36F8F2846BDE89D
:10889000F84002F067B86FF001024FF0FF33CEE707
:1088A000C54D01232DE9F04105461C4690461F4663
:1088B000EFF31186202383F31288BFF36F8FB4F197
:1088C000FF3F08BFB2F1FF3F05D186F31188BFF328
:1088D0006F8FBDE8F081531C74F1FF3309DB012A6F
:1088E00074F10003BCBF0122002412F1FF3844F1EF
:1088F000FF37284602F0FEF8DDE906010023C5E94E
:108900000A012B6342463B4628460249FFF76EFEAA
:10891000DBE700BFC54D01232DE9F743002600F139
:108920000C080096EFF31189202484F31288BFF31A
:108930006F8F8568694005EA02070A4055400C4977
:108940006A468560019502F09AF8009C44B1204681
:10895000C4F8886065660021246E02F023F8F5E70C
:1089600040464946FFF78EFB384603B0BDE8F0832A
:1089700033720123014801F080BE00BF00093D00B1
:1089800038B5064C064DAC4201D3002038BD204618
:10899000D4E9011202F06CF91434F4E7008D0123DC
:1089A000008D01231FB5094A02AB92E803004FF482
:1089B000806283E80300009305494FF0FF330548C8
:1089C000FFF730F9002005B05DF804FB6085012356
:1089D00090A90123F89101232DE9F04F43688DB050
:1089E00015468046029383789A0740F10D81002452
:1089F0000E78002E00F00A81252E0BD04B1C03931D
:108A0000013441463046029B98470028C0F2F68068
:108A10000399EDE74E788B1C252E0393F0D00027A9
:108A2000B946BB46BBF11F0F38D8A6F12003102B67
:108A30000AD8DFE803F02A090930090909210909E0
:108A40000928092D09091F00A6F13003092B33D984
:108A50002A2E37D11BF0400F55F8043B40F082809E
:108A6000002BA7BF4BF0200B9946C3F100094BF038
:108A7000280B01E04BF0010B039B13F8016B0393F0
:108A8000002ECFD130E04BF0020B4BF0040BF3E79C
:108A90004BF0080BF0E74BF0100BEDE7BBF17F0F4D
:108AA00019D8A6F13003092BD2D81BF0400F03D000
:108AB0000A2101FB0737DFE70A214BF0200B01FBFE
:108AC0000939D9E72E2E06D11BF0400F40F09E80C9
:108AD0004BF0400BD0E76C2E31D02BD8682E36D01F
:108AE0006A2E3CD04C2E3AD0002F46F02003B8BF5F
:108AF0002BF04002A3F16501BCBF00271FFA82FBE7
:108B0000022901D9612B2FD107350727DFF8ACA245
:108B100025F0070508351BF0080F66D00AEB070B98
:108B200056465E4563D1A4EB0A0AA9EB070906EB9A
:108B30000A026FE1742E9FD07A2E9DD0D4E71BF0ED
:108B4000800F18BF4BF4007B4BF0800B94E71BF4B5
:108B5000807F18BF4BF4007B4BF4807B8CE74BF499
:108B6000207B89E71F4687E7A6F16301122900F2FF
:108B7000F080DFE811F013004F00EE00EE00EE0091
:108B8000EE004F00EE00EE00EE00EE00EE00FE0004
:108B9000E900EE00EE001B00EE00AF0055F8043BCC
:108BA00001270DF1180A8DF81830B4E755F804AB19
:108BB000834BBAF1000F08BF9A461BF0400F504696
:108BC00014BF39464FF0FF3102F07CF80746A2E7A8
:108BD00041462020029B984700280FDB013EB74208
:108BE000F6D34C44B146A41B98E74E46F7E74146FE
:108BF00016F8010B029B9847002892DA98F8023089
:108C000043F0040388F802304FF0FF3420460DB0E3
:108C1000BDE8F08F1BF0800F34D01BF4007F2CD008
:108C2000073525F00705AA4669685AF8080B2BF0A6
:108C300010050029ADB237DA404245F4806561EB9A
:108C400041010DF1180B0A235A4602F047F8A0EB38
:108C50000B0301936B0662D5019B25F001019F4236
:108C600089B240F3A180002E00F0998015F0100227
:108C700040F09C80BB460D4623E0AA465AF8040B00
:108C8000C117D4E7AA461BF4807F5AF8041B01D110
:108C90000846F5E71BF4007F19BF48B241F3C01145
:108CA00008B241F3C031C2E750EA0103C9D11BF059
:108CB000400FC6D0002FC4D12BF01102BB46019744
:108CC00095B240F2064115EA01021CBF0BF1010BFF
:108CD00000222CE02BF010020A231FFA82FB1BF06B
:108CE000800C49D01BF4007115BF0735AA4625F04A
:108CF00007055AF8040B1EBFAA4669685AF8080B04
:108D000050EA010545D12BF016051BF0400FADB21E
:108D100042D0002F40D12BF01702019795B215F0E9
:108D2000100248D0019B002E42D103F1010B29070C
:108D30005AD4EB0706D5D9456FDDA9EB0B03019992
:108D4000CB465F185B4649E04BF0100B10237826AA
:108D5000C5E7782B04D1C6F1780343F01003BEE7D2
:108D600041462520029B98470028FFF647AF023472
:108D700047E608230026B2E7AA461BF480715AF89A
:108D8000040BBDD01BF400711ABFC0B2614680B2A3
:108D9000B6E72BF0060295B20DF1180B54E725F05B
:108DA0001105BB46ADB28CE70D46B8E73B460D4614
:108DB00003F1020BBBE7DDF804B082E73D88012335
:108DC00036880123CDE9043241462020029B984792
:108DD0000028FFF613AF049B059A01339945F1DC97
:108DE000A4EB0B019B46CC180AB341463020029BF2
:108DF00098470028FFF602AF8EB901342744391B8B
:108E0000019B994224DC1D4655BB019AA9EB0B0935
:108E1000554622441446914433E0019F92E70234C0
:108E200041463046029B98470028E7DAE6E640F2E2
:108E300006410D42E2D015F0020F04F10104414653
:108E400014BF2B20202015F4806F18BF2D20E9E7D8
:108E500041463020029B013498470028CFDACDE606
:108E600006AB013D4146585D029B98470028CBDA8E
:108E7000C4E641462020029B013498470028FFF6B3
:108E8000BDAEA9EB0403002BF3DCC1E5704700EB9A
:108E9000C100408840087047F8B50346FFF7F7FF68
:108EA000B0FA80F0C0F11F0003EB800CDCF810601A
:108EB000CA00171D0C4606328DB256B9012101FABF
:108EC00000F0D9680143D960CCF81040DD539D52C1
:108ED000F8BDF1000431585AD85303EBC0009E523C
:108EE000C5805D52F4E7043A2DE9F041CC1D1144F0
:108EF00024F0070421F007010E1BF708B7FA87F2E8
:108F00004FF00008C2F12405AD000735C2F1200280
:108F1000ED0804604146A760C4F80C80920004F19B
:108F2000100001F03EFF6B0043F0010363807B1BE8
:108F300004EBC5025900A4F800805180A21924F85E
:108F40003550A2F80280A35304EBC7035A88294680
:108F500042F001025A802046BDE8F041FFF79CBF75
:108F6000002070470FB407B504A951F8040B019114
:108F7000FBF7B0FE03B05DF804EB04B07047013AB4
:108F800001F01F030A4430B54C090121550902F0D4
:108F90001F02C26001FA02F2836001FA03F3511E5C
:108FA0005B420A43AC42036108BF13400460456062
:108FB000426108BF036130BDF0B587B004460C982C
:108FC0001D4610B96846FFF7DAFF01684768A368D5
:108FD000B94253F82120066908D125B1324343F83C
:108FE000212007B0F0BD22EA0602F8E7B5B132430E
:108FF00043F821204168A268456952F821302B438B
:1090000042F821304FF0FF310368013342689A4241
:10901000E7D9A26842F823100133F7E722EA0602F3
:1090200043F82120A2684168466952F8213023EABA
:10903000060342F821300268436801329342D0D9D6
:10904000A36843F82250F7E7F8B50646DDE90605C0
:109050001C46FFF794FFD0E900139942B6680269F5
:109060000BD156F8213004B9DB4332EA030023D098
:1090700022EA030215BB0020F8BD56F8217004B99E
:10908000FF4332EA070C02D022EA0702F2E756F861
:10909000237004B9FF43426932EA070009D0194638
:1090A00022EA0702E6E756F8212004B1D243002A5B
:1090B000E0D101318B42F6D80120DDE792FAA2F32C
:1090C000002AB3FA83F308BF4FF0FF3303EB4113D9
:1090D0002B60D0E730B5EFF31185202383F312889E
:1090E000BFF36F8F03688B4210D9012280684C094F
:1090F00050F8243001F01F018A40134340F8243017
:10910000002085F31188BFF36F8F30BD6FF015001D
:10911000F7E730B5EFF31185202383F31288BFF30F
:109120006F8F03688B4211D9012280684C0950F877
:10913000243001F01F018A4023EA020340F8243062
:10914000002085F31188BFF36F8F30BD6FF01500DD
:10915000F7E730B5EFF31184202383F31288BFF3D0
:109160006F8F92B103688B420FD9836800204D093D
:1091700053F8253001F01F01CB4003F001031360C9
:1091800084F31188BFF36F8F30BD6FF01500F7E7E0
:1091900030B5EFF31184202383F31288BFF36F8F70
:1091A000D2B103688B4217D9836801F01F054909C2
:1091B00053F82130EB4003F0010313600122806873
:1091C000AA4050F82130134340F82130002084F3A6
:1091D0001188BFF36F8F30BD6FF01500F7E72DE9F1
:1091E000F04F05460E4690468BB0EFF311892023D1
:1091F00083F31288BFF36F8F002A3FD000293DD040
:109200000168B1423AD30022406890424FEA4214CA
:109210000DD0AB6853F822305F1C01D10132F4E766
:109220002BB1DB4393FAA3F3B3FA83F31C44A1EB12
:10923000060A0DF10C0B04AF544502D96FF01B0068
:1092400012E00023324621462846CDE9007BFFF795
:10925000FBFE80B128460123324621460097FFF7E6
:10926000ABFE0020C8F8004089F31188BFF36F8F70
:109270000BB0BDE8F08F039C0134DDE76FF0150003
:10928000F2E72DE9F0434B1E80460D46164689B0A5
:109290001344EFF31189202282F31288BFF36F8FFA
:1092A000F9B102688A421CD3B2421AD99A4218D93B
:1092B000002402AF0A460123314601940097FFF7CC
:1092C000C3FE88B1404623462A4631460097FFF741
:1092D00073FE204689F31188BFF36F8F09B0BDE894
:1092E000F0836FF01500F5E76FF00D00F2E7002254
:1092F00003680BB9184670478B4210D10B6842B90E
:1093000042680360914200D14360002301200B605A
:10931000704713604368994208BF4260F5E71A46F8
:109320001B68E6E7038B13F0070305D10368002BE6
:109330000CBF002003207047022B05D1408BB0FAF0
:1093400080F0400980007047012B05D10368002B95
:109350000CBF0020052070470020704710B50C4658
:1093600000B111B96FF0150010BD081D00F0D2F862
:109370000028F9D1A368032BF6D9F3E72DE9F041D2
:109380000D4607461946281D90461E4600F0D3F8A4
:10939000044638B13346424629463846A446BDE81D
:1093A000F0416047BDE8F08110B4EFF31182202452
:1093B00084F31288BFF36F8F416110BC0121FBF76A
:1093C000CDBC38B50C46054658B151B10B6843B118
:1093D0004B6833B11C22002101F0E3FC00202C611A
:1093E00038BD6FF01500FBE770B505460E46FFF778
:1093F000B5FF041E14DBEFF31182202383F31288E0
:10940000BFF36F8F4FF6FF716B8B2C8B8B4204F089
:10941000070407D182F31188BFF36F8F6FF00A043E
:10942000204670BD022C0CD101336B8382F311886E
:10943000BFF36F8F0023224631462846FFF79EFF79
:10944000EEE7062C14D8DFE804F004131313041A13
:109450000400002333606B683BB9C5E90066ACB912
:1094600002212846FBF77AFCDAE71E606E60F6E719
:1094700082F31188BFF36F8F6FF00404D0E782F39B
:109480001188BFF36F8F6FF08504C9E782F31188ED
:10949000BFF36F8FC4E710B5EFF31182202383F37E
:1094A0001288BFF36F8F048B04F00704022C0AD0DC
:1094B000012C0CBF6FF004006FF0850082F311885F
:1094C000BFF36F8F08E0438B013B9BB2438323B90B
:1094D0002146FBF743FC204610BD2046EEE738B599
:1094E000A8B1A1B1EFF31185202282F31288BFF356
:1094F0006F8F048BFFF7FBFE30B104F0070085F39C
:109500001188BFF36F8F38BD6FF07700F7E76FF00A
:109510001500F8E7034658B1426802F00302012A39
:1095200003D0032A04D1026812B10020986070476A
:109530006FF0150070474268034602F00302032AE9
:109540004FF00002816014BF104600685A607047F7
:10955000704720B183682BB11B6833B118476FF097
:10956000150070476FF0040070471846704730B41C
:1095700050B149B142B1846854B1E56845B141F890
:10958000040BE36830BC18476FF0150030BC70471F
:109590006FF00400FAE730B41346044650B1006897
:1095A00060B182686AB195685DB10A46AC4661688F
:1095B00030BC60476FF0150030BC70476FF00100A1
:1095C000FAE76FF00400F7E7002070470169406890
:1095D00000F02BBB034610B40C4619690023406809
:1095E0002360936910BC0832FBF71EBF0169406815
:1095F00000F050BB01230831D1E8EF2F002A03D13E
:10960000C1E8E03F0028F7D114BF6FF0150000203B
:1096100070474368D3E909035843043870472DE97C
:10962000F04F814685B00E9B59F8685B0C6800933B
:109630006B6A03341C4406460F46B4FBF3F44FF048
:109640000008DDF83CB001922146E86A02AAFFF763
:10965000C6FD10F11C0F82460ED1009B53EA0B038E
:109660004AD05B464846009AFEF7B0F9B0F1000ACE
:1096700033DB4FF00108E7E7B8F1000F06D1BAF18C
:10968000000F08DA1AF1160F32D12FE006F1680048
:10969000FEF768F9F3E73B687BB9029C0393AB6A7A
:1096A00001349C4207D22146E86A03AAFFF770FD05
:1096B000039B002BF3D0029BE41A6B6A5C43043CCF
:1096C0003C606A6A029B296A5343CC50CA18019BCA
:1096D0000432DDF808A01A600AE0B8F1000F02D0E9
:1096E0004846FEF73FF91AF11C0FCBD16FF00B0A79
:1096F000504605B0BDE8F08FB8F1000FF6D006F186
:109700006800FEF72FF9F1E737B5DDE90645CDE949
:10971000004519460069FFF782FF00EAE07003B0D8
:1097200030BD2DE9F8439846836804468B421746BE
:1097300002D80020BDE8F8834368D0F8009003FB0E
:1097400001F609EB0605FAB1B8F1000F05D00421C6
:109750002846FCF725FEBFF35B8FD4E90130584360
:10976000226859F80610024404388842E1D30B1DE0
:109770002B449A42DDD33960B8F1000F04D0281D84
:10978000FCF70EFEBFF35B8F281DD3E738B50468E6
:1097900043680C1BB4FBF3F40D4600232146FFF78E
:1097A000C0FF28B185420CBF20466FF0150038BDC0
:1097B0006FF01500FBE710B54468114604F1140082
:1097C0000022FFF7E3FF0146206BBDE81040FFF7E2
:1097D00081BCFEF777B873B50446054654F8446B70
:1097E0008DF804108DF805208DF806304FF0FF320B
:1097F0004FF0FF332046FDF7EDFF291D032301AA9B
:10980000304600F047FA05462046FFF7E2FF2846BB
:1098100002B070BDD0B50446006816461430002270
:109820001F46FFF7B3FF031E07DB3A4631462046CB
:10983000BDE8D040DBB2FFF7CEBFD0BD114600235C
:1098400001220069FFF7E6BFF8B507680646786AA7
:1098500003320244002B0D46B2FBF0F116DBDC1C98
:109860000444B4FBF0F4A14212D368433A6A091BE2
:1098700013502A1941B1F86AFFF703FD002804DBF1
:1098800006F16800FEF76EF82846F8BD2A46F1E7B3
:109890006FF01500F9E7002337B504460068154658
:1098A000203001AA0193FFF771FF011E07DB2B4651
:1098B0002046019A03B0BDE83040FFF7C5BF03B0B2
:1098C00030BD08B5114600694FF0FF32FFF7E3FFE6
:1098D00000EAE07008BD37B504460068002301AA1D
:1098E00020300D46FFF71DFF48B14FF0FF332946EA
:1098F0002046019A03B0BDE83040FFF7A5BF6FF0E6
:10990000150003B030BD2DE9F0411D4690460268B8
:10991000069F536A126A6B43D75004460E46BFF344
:109920005B8FD018391DFCF72DFD3146424620468D
:10993000EBB2FFF750FF061E06DA4FF0FF333A4650
:1099400029462046FFF780FF3046BDE8F0812DE92B
:10995000F3411646076988461A46314638461D4681
:10996000FFF799FF041E09DA4FF0FF3231463846FF
:10997000FFF791FF204602B0BDE8F0810095234635
:109980000021384698F80C20FFF7BDFF0446F1E7A8
:109990002DE9FF411746029300221D460023D0F80F
:1099A00010800E46CDE90023404603AA02A9FFF726
:1099B00036FE041E0FDB2A463946039801F0E4F90F
:1099C0000095234600214046327BFFF79CFF10EABA
:1099D000200438BF2C46204604B0BDE8F0812DE9B4
:1099E000F04F044689B000F16C03D3E8AF3F002B81
:1099F0005BDA90F87050A0F1580A002D58D04FF063
:109A0000020B4FF0FF364FF0FF3700F1240500F155
:109A10006409D5E8EF3F012B03D1C5E8E2BF002A76
:109A2000F7D129D155F8043C1868FAF7D9FFCDE9E8
:109A3000006700F1010807AA504606A9CDF8188072
:109A4000FFF7EDFD031E03930FDB55F8042C079879
:109A50001168FAF7BDFF2A7A02215046039BCDF820
:109A60000080FFF750FF002806DA0023D5E8EF2F2B
:109A7000C5E8E13F0029F9D110354D45C9D100268F
:109A800004F128056834D5E8EF3F022B03D1C5E87F
:109A9000E26F002AF7D105D155F8082C93680BB175
:109AA000906998471035A542EDD109B0BDE8F08F17
:109AB000A0F114084FF0030B4FF0FF334FF0FF32CB
:109AC0004046FDF787FE04F1600304F16209039349
:109AD0004FF6FF7239F8023F934241D04046FFF7FC
:109AE00078FE54F8583CB9F80060D3E90512DB69F8
:109AF00002FB061603FB02110436891B30460139AE
:109B000001F0E0F80027421C04F12403D3E8AF1F62
:109B100001292CD153F8040C31460068CDE9042307
:109B200001F0BEF8DDE9042308BB04EB0711EAB23B
:109B300081F82C2003994F55D3E8EF1F012903D159
:109B4000C3E8E0BF0028F7D11ED04FF0FF334FF03D
:109B5000FF324046FDF73EFE4FF6FF73A9F8003096
:109B60000135042DB4D14046FFF733FE87E70137B6
:109B7000042F03F11003C9D14FF0FF324FF0FF3330
:109B80004046FDF727FEEBE704EB0717396A8B68C1
:109B90001BB1886904929847049A13463146032200
:109BA0005046FFF737FED0E7032970B5044601D9C8
:109BB000002070BD014491F8B830032BF8D81D0186
:109BC00005F17C020244D2E8AF1FC9B2032908D1D3
:109BD00043198033D3E8AF3F002BE9D178356019C2
:109BE000E7E70229E4D10321D2E8EF0FC2E8E61F3C
:109BF000002EF9D104EB03139A6F9368002BEDD07C
:109C000090699847EAE70346D3E8EF0FC3E8E21FFD
:109C1000002AF9D17047D0E9000183681B680BB1B5
:109C2000002218476FF05700704770B5037C044658
:109C3000012B0D4603D00021686800F0F5F920469D
:109C4000FFF7E9FF002105F13C00FFF7DCFFC0B2A0
:109C500010B90023184670BDD4E9020683681B6959
:109C600013B96FF05703F5E70A46314698470346A4
:109C70000028EFD1D4E9020182685468002CF0D0AA
:109C80001A46A04703460028E4D105F1280000F059
:109C9000F2FDDEE72DE9F04106460D4617461C466B
:109CA00001F13C03D3E8AF3F042B03DC20D1204675
:109CB000BDE8F081FCB101F10808202200234046F4
:109CC000FDF788FD002819DB39462868A2B200F0AC
:109CD0007CF805464046FDF7F5FD002D06DBA54264
:109CE0000FD33046FFF797FF0028E1D12846DFE782
:109CF0006FF00F00DCE76FF03C00D9E76FF0680011
:109D0000D6E76FF04C00D3E770B568B303685BB378
:109D100082684AB345693DB3C168042938BF04214C
:109D2000B3FBF1F401FB1434F4B9B2FBF1F401FB21
:109D30001424CCB9446845EA0406B60714D1006976
:109D40000B2811D986070FD193420DD21CB1A34223
:109D50000AD2A24208D9AA4206D20B449A420CBFA8
:109D600000206FF0150070BD6FF01500FBE770B5B7
:109D7000066804463046FFF7C7FF0546B0B9606085
:109D8000A060B36862681A602368A2681B681A60E2
:109D9000BFF35B8F236898680421FCF7F3FA23680C
:109DA00018680421FCF7EEFA284670BD6FF015051F
:109DB000FAE710B504460068FFF7A6FF10B9606027
:109DC000A06010BD6FF01500FBE72DE9F84F894644
:109DD0001446074618B96FF01500BDE8F88F002A41
:109DE000F9D00029F7D0036818680421FCF7D8FAE5
:109DF000BFF35B8F3B68D3E9048A1B681B687D68EF
:109E00009A07E8D1AB4286BF08EB0502D31AEB1ADA
:109E1000A8F10402D31A221D934248D300230AEB6F
:109E200005004AF80530230A0AF805304470BFF3EC
:109E30005B8F04210435FCF7A5FA454524BFB5FB2B
:109E4000F8F308FB1355A8EB0506A64228BF2646E3
:109E50000AEB050332464946184600F095FF3146A5
:109E6000FCF790FAB4420BD9A4EB060B5A465046C5
:109E700009EB060100F088FF59465046FCF782FACC
:109E8000E31C2B4423F00303434524BFB3FBF8F248
:109E900008FB12333A687B6092681360BFF35B8FF4
:109EA0003B6898680421FCF76DFA204695E76FF04F
:109EB0000B0092E72DE9F0410E461746044618B90B
:109EC0006FF01500BDE8F0818568002DF8D10368BA
:109ED00098680421FCF764FABFF35B8F23689A68E3
:109EE000D2F800801A694245EAD94FF6FE7208F1AD
:109EF000FF319142E4D858690421FCF751FABFF3CD
:109F00005B8F2368586903885BBA99B20A1D424582
:109F1000D6D8043030603B803068FCF741FABFF39C
:109F20005B8F2846CEE72DE9F84F894693460646D3
:109F300020B96FF015042046BDE8F88F03689868D3
:109F40000421FCF72DFABFF35B8F3368D3E9048A51
:109F50009B681F68B56817F00304EAD1AF42EAD0E6
:109F60000AEB05000421FCF71BFA3AF8054064BA35
:109F7000A4B2B9F1000FDED0A34544D3AF423ABF3B
:109F8000A8EB0503FF187F1B231DBB423ED80435F9
:109F9000454524BFB5FBF8F308FB1355A8EB0507AF
:109FA000A74228BF27460AEB050B39465846FCF75F
:109FB000F7F93A465946484600F0E6FEBC420CD94D
:109FC000A4EB070B59465046FCF7EAF933685A46AA
:109FD000596909EB070000F0D7FEE31C2B4423F07E
:109FE0000303434524BFB3FBF8F208FB1233326886
:109FF000B36012681360BFF35B8F33681868042185
:10A00000FCF7C0F997E76FF00B0494E76FF00A04D0
:10A0100091E710B503685C6804212046FCF7C0F99D
:10A02000BFF35B8F206810BD036858680160BFF301
:10A030005B8F0421FCF7A6B9012801D1EFF305835A
:10A04000FDF7B0B901460068FFF7F6BF08B5FBF7AA
:10A05000C9FBBDE80840FBF7E9BB00210120FFF781
:10A06000EBBF036F83F30B88704761B662B680F372
:10A070001188BFF36F8F704772B6002383F3118886
:10A08000BFF36F8FBFF34F8F30BF62B6BFF36F8FD9
:10A090007047002383F31188BFF36F8F704700224E
:10A0A00003680BB9184670478B4210D10B6842B950
:10A0B00042680360914200D14360002301200B609D
:10A0C000704713604368994208BF4260F5E71A463B
:10A0D0001B68E6E7C2680369511E0B44B3FBF2F349
:10A0E00002FB03F0704738B5D0E90054FFF7F2FFE8
:10A0F0002C44201A38BD30B5D0F804549DF80C40DB
:10A10000ED0736D584B9012936D0D0F80034DA0706
:10A11000FBD4012331B9C360D0F80034DB07FBD492
:10A12000002030BD0361F7E74AB343B342F08054E7
:10A130002344012422F01F0242F08052D0F8005440
:10A14000ED07FBD40129C0F810240ED002290ED04F
:10A150008461D0F81054AA42F0D120329342EDD855
:10A16000D0F80034DB07FBD4DAE74161F1E7C461E2
:10A17000EFE76FF00A00D4E76FF08500D1E76FF0EA
:10A180001500CEE710B5036911B903F11C0010BD2D
:10A190008A886AB9096840684A1C4FF0000208BF03
:10A1A000C16850F822408C4204D20132042AF8D10E
:10A1B0000020ECE7242101FB02301C30E7E738B532
:10A1C0001546FFF7DFFF044650B12946FFF787F930
:10A1D00010F1780F06D12046BDE83840FFF75BB993
:10A1E0006FF0150038BD08B5FFF7CCFF18B1BDE81A
