:020000040E0AE2
:104000003DB8F3960026022F000200003472000033
:104010002000000000000000000000000000000080
:104020000000000000000000000000000000000090
:104030000000000000000000000000000000000080
:104040000000000000000000000000000000000070
:104050000000000000000000000000000000000060
:104060000000000000000000000000000000000050
:104070000000000000000000000000000000000040
:104080000000000000000000000000000000000030
:104090000000000000000000000000000000000020
:1040A0000000000000000000000000000000000010
:1040B0000000000000000000000000000000000000
:1040C00000000000000000000000000000000000F0
:1040D00000000000000000000000000000000000E0
:1040E00000000000000000000000000000000000D0
:1040F00000000000000000000000000000000000C0
:1041000000000000000000000000000000000000AF
:10411000000000000000000000000000000000009F
:10412000000000000000000000000000000000008F
:10413000000000000000000000000000000000007F
:10414000000000000000000000000000000000006F
:10415000000000000000000000000000000000005F
:10416000000000000000000000000000000000004F
:10417000000000000000000000000000000000003F
:10418000000000000000000000000000000000002F
:10419000000000000000000000000000000000001F
:1041A000000000000000000000000000000000000F
:1041B00000000000000000000000000000000000FF
:1041C00000000000000000000000000000000000EF
:1041D00000000000000000000000000000000000DF
:1041E00000000000000000000000000000000000CF
:1041F00000000000000000000000000000000000BF
:1042000018B7022F293E022F1F7A022F153E022FC8
:10421000153E022F153E022F153E022F153E022F8E
:10422000000000000000000000000000893F022F95
:10423000153E022F00000000213F022F153E022FE5
:10424000CD40022FCD40022FCD40022FCD40022F76
:10425000CD40022FCD40022FCD40022FCD40022F66
:10426000CD40022FCD40022FCD40022FCD40022F56
:10427000CD40022FCD40022FCD40022FCD40022F46
:10499000CD40022FCD40022FCD40022F53B94AB94E
:1049A000002908BF00281CBF4FF0FF314FF0FF3037
:1049B00000F00CB8ADF1080C6DE904CE00F018F869
:1049C000DDF804E0DDE9022304B07047704700BF62
:1049D000034611F8012B03F8012B002AF9D1704787
:1049E000034613F8012B002AFBD1181A013870472F
:1049F0002DE9F04786468C460846089E15467446C3
:104A00001946002B40F0C1808542B2FA82F245D9A6
:104A10004AB1C2F1200300FA02FC954094402EFAFC
:104A200003F343EA0C0C4FEA154EA8B2230CBCFB6F
:104A3000FEF80EFB18CC08FB00F943EA0C4399453D
:104A400028D9EB1808F1FF3704D2994502D9A8F10B
:104A500002072B44A3EB0903A4B2B3FBFEFC0EFB3D
:104A60001C330CFB00F044EA0344A04214D92C1977
:104A70000CF1FF3304D2A04202D9ACF102032C4462
:104A8000241A43EA07401EB1D44000233460736007
:104A9000BDE8F0874746DDE76346F1E792BB431B7D
:104AA00001214FEA154EAFB2200CB3FBFEFC0EFB0A
:104AB0001C330CFB07F840EA0343984561D9EB1817
:104AC0000CF1FF3004D2984502D9ACF102002B441E
:104AD000A3EB0803A4B2B3FBFEFC0EFB1C330CFBE0
:104AE00007F744EA0344A7424DD92C190CF1FF33D0
:104AF00004D2A74202D9ACF102032C44E41B43EADE
:104B00000040C0E7C2F120039540944020FA03F131
:104B10002EFA03F34FEA154E9040AFB20343B1FBB8
:104B2000FEFC0EFB1C10190C0CFB07F841EA0041BF
:104B3000884522D969180CF1FF3004D2884502D982
:104B4000ACF102002944A1EB08019BB2B1FBFEFCD1
:104B50000EFB1C110CFB07F743EA01439F420ED9E1
:104B6000EB180CF1FF3104D29F4202D9ACF10201E3
:104B70002B44DB1B41EA004193E76046E3E76146D3
:104B8000F7E76046A4E76346B8E7834206D916B95B
:104B9000002108467CE7C6E900E0F9E7B3FA83F7AD
:104BA0008FB9834201D3724508D8BEEB020460EB93
:104BB000030301209C461EB9002169E73846FAE745
:104BC000C6E9004CF8E7C7F1200CBB400EFA07F528
:104BD00022FA0CF42EFA0CF1BA401C4320FA0CF322
:104BE000B8404FEA144901431FFA84FEB3FBF9F8B9
:104BF00009FB18300B0C08FB0EFA43EA00439A45F8
:104C000040D9E31808F1FF3004D29A4502D9A8F13F
:104C100002002344A3EB0A0389B2B3FBF9F809FBB2
:104C2000183308FB0EFE41EA03418E452CD961186A
:104C300008F1FF3304D28E4502D9A8F102032144C2
:104C400043EA0040A1EB0E01A0FB02984145CE468D
:104C5000434602D306D14D4504D20138B9EB020ECA
:104C600068EB0403002EA7D0B5EB0E0261EB030145
:104C700001FA0CFC22FA07F3F9404CEA0303C6E9F7
:104C8000003199E74046C5E74346D9E780B5054678
:104C90000E461746984603F09DF8034604F08CFF35
:104CA0000446DFF81890424649F80030394630464D
:104CB000A84754F8090000F01DFE00BF08000000DE
:104CC00001690346024A4068043100F051BA00BF4E
:104CD0007C93022FF7B51B4E4568377804696FB98E
:104CE000194804F07DFD4FF0FF334FF4007217496F
:104CF0001548009702F050FD0123337025606B6961
:104D00002A6A93422CBF0023012384F8C83004F19F
:104D1000440004F0D2FC0E4904F1580004F025FDD3
:104D20000122002104F1680004F0CEFC4FF0FF33B3
:104D30000020C4F8BC30C4F8C030C4F8B83003B0A8
:104D4000F0BD00BFCCA0022F389A022FD8A0022FAE
:104D5000B173022F016901F1C403D3E8EF0F40F0F2
:104D60000040C3E8E20F002AF7D10248583104F0AE
:104D700018BD00BF389A022F70B50024036903F1F3
:104D8000780520012E58964212D102211A1880323D
:104D9000D2E8EF0F012803D1C2E8E41F002CF7D1BD
:104DA00032D11C4803F1580104F0FBFC002070BD17
:104DB0000134042CE5D103F1C400D0E8EF4F651CA9
:104DC000C0E8E65F002EF8D14FF6FC700442A5B2B1
:104DD0001DD1280100F178061844826793F8C82095
:104DE0001E4432B1EAB253FA84F480F8842084F885
:104DF000B82000F17C020120D2E8EF4FC2E8E50FB5
:104E0000002DF9D10E60CCE76FF01500CFE76FF001
:104E10000B00CCE7389A022F2DE9F34102291469DF
:104E200067D94578032D64D80378032B61D8DFE870
:104E300003F0380216098178204602B0BDE8F0413F
:104E400003F09EBF8178204603F09AFF002850DBD4
:104E50002946204602B0BDE8F04104F08EB88778BC
:104E600020680123394601AA143003F0C1FD00284F
:104E70003FD004F144064FF0FF324FF0FF3330468D
:104E800004EB450502F060FA3046A5F8BC7003F06B
:104E900089FE194804F1580102B0BDE8F04104F060
:104EA00080BC90F80280276801236A46414607F1DA
:104EB000140003F09DFD29460646204604F05DF8E7
:104EC0000546B6B1A8B14146386B03F029FC2B6802
:104ED00030469A691D690099A8474146386B01AA76
:104EE00003F03EFC019B23B901223146204603F02A
:104EF0007AFE02B0BDE8F081389A022F1FB5002477
:104F0000074B4FF4A062029302AB009305494FF0A8
:104F1000FF330548039402F03FFC204604B010BD67
:104F20003195022FD8A2022FE89A022F10B504461D
:104F3000006804F005F900280BDB0D220549206804
:104F400004F02CF9002804DB0C28CCBF00206FF003
:104F5000150010BD5895022F024802F1280104F0F7
:104F600020BC00BFE89A022F2DE9F0410446A2B010
:104F700000F11405D5E8AF7F7B1E052B27D8DFE8AD
:104F800003F086380326868650F8240C0DF10602BD
:104F900002A904F078F960BBBDF806200D2A28D1DB
:104FA0007049029804F0C4FD18BBA4F12800FFF773
:104FB000BDFF00280EDA54F80C3CDB681BB154F836
:104FC000081C694898470021284604F005F822B0DB
:104FD000BDE8F0810121284603F0FEFF54F8040CDF
:104FE00004F002F82146614822B0BDE8F04104F027
:104FF000D8BB54F8280C04F0F5F9228A83B2934206
:1050000006464FEA104705D1628A9742DFD1002B4E
:10501000DDD022E073B354F8280C04F091F8002896
:105020000EDA54F80C3CDB681BB154F8081C4E48EF
:1050300098470421284622B0BDE8F04103F0CCBFD8
:10504000618A54F8240C268241EA064104F0D5F91D
:10505000638A9F4214D1238A93B10621284603F024
:10506000BBFF54F80C3C1B68002BB7D054F8080C5D
:105070009847B3E7638A9F42A9D1002AA7D0ECE7FB
:1050800054F8040C22B0BDE8F04103F0ADBF00229B
:1050900050F8240C114604F02FF9461E7F2E2CD810
:1050A000802254F8240C02A904F026F9062F804629
:1050B00028D0012F3FD10C2889D90D22294802A9D7
:1050C00004F036FD002882D154F80C3C1B6813B163
:1050D00054F8080C98470521284603F07DFF00226C
:1050E00054F8240C114604F007F9051E54F8040C7A
:1050F00018BF012503F078FF2AE0062F7FF467AF81
:105100004FF0000854F8280C04F06CF9238A80B2A0
:1051100098420DD00421284603F05EFF54F80C3C61
:105120005B68002B3FF453AF54F8080C98474EE7E8
:105130007F2E3FF64CAF54F80C3C9B6863B90022BD
:1051400054F8240C114604F0D7F8051E18BF0125A9
:10515000002D7FF447AF3AE7414654F8082C02A8E7
:105160009847ECE75895022F3D95022FE89A022FB9
:105170002DE9F8430D46017C0646012991461C465F
:1051800005F13C070DD1D7E8EF3F002B03D1C7E86D
:10519000E21F002AF7D139D06FF077042046BDE82E
:1051A000F883384603F018FF5FFA80F8C5E90794E2
:1051B0006E6205F1080004F080FA686803F0E2FF0F
:1051C000041E1EDB337C012B23D0286804F00AF96F
:1051D000040C286804F006F9002381B22B87013102
:1051E00089B2A142FBD00029F9D06868698704F030
:1051F00004F9B8F1000F10D0304603F0F5FE041E9C
:10520000CCDA0021384603F0E7FEC7E74FF000088C
:10521000CCE72846FFF78AFEEBE70F4905F12800A7
:1052200004F0A3FAD6E9020183685C6814B96FF050
:105230005704E6E72B46094AA04704460028E0D178
:10524000D6E9020183681B69002BF0D00122984740
:1052500004460028D0D0D4E76935022F5935022FF3
:105260002DE9F8430546EFF31186202383F31288D6
:10527000BFF36F8F4FF00C090C4B0D4F1C68DFF81C
:1052800034802CB986F31188BFF36F8FBDE8F883A3
:10529000D4E90123002D18BF13462BB198F8102034
:1052A00009FB02F2B85C98472468EAE7D09E022F17
:1052B000C49E022F90A0022F012270B5124B1C7CBD
:1052C00004F01F039A40D043104B610903EB8103A4
:1052D000D3E8EF1F01EA0005C3E8E65F002EF7D12F
:1052E0000A4210D00C235C43094E35196978305DB1
:1052F00004F0B8F80020FFF7B3FF04F05FF90023D3
:105300003351C5E9013370BD90A0022FD89E022F02
:10531000C49E022F2DE9F041354B04461D7C00F060
:105320007FF8611C064604D0721C53D0A642A8BF69
:105330002646EFF31188202383F31288BFF36F8F83
:105340000C246C432B4B2C4F195D1A19002943D0A8
:1053500007CA07EB040C8CE8070000221A5588F3F3
:105360001188BFF36F8F0C236B43F85CFA1878B386
:10537000906860B1731C0AD010F1200F8EBF4FF0FF
:1053800000601F3040090121301A01F0B5F80124F6
:1053900002F028FC0120FFF763FF184B6A0903EBBA
:1053A000820305F01F0204FA02F2D3E8EF0F104364
:1053B000C3E8E10F0029F8D10C235D437B19785D28
:1053C000597800F07DFCFFF777FF02F01FFC2046C4
:1053D000BDE8F0812646ACE73146284600F06AF881
:1053E00020B107C83C4484E80700B8E73855B6E761
:1053F00090A0022FB89E022FC49E022FD89E022F8B
:1054000001289FBF044B53F820300B60034B94BF1F
:10541000185C0020704700BF1C94022F6595022F76
:1054200070B5EFF31186202383F31288BFF36F8FDB
:105430000A4B1B687BB1D3E9024504F00FFB201A2D
:1054400065EB0101002901DA0020014686F311888D
:10545000BFF36F8F70BD4FF0FF30F6E7DC9E022F79
:10546000124B1A7882420CD15878884211D0FF2909
:105470000FD0187A904216D15B7A8B4213D1012358
:1054800008E01A7A82420ED15B7A8B42F7D0FF296C
:10549000F4E70023064A02EBC303D3E8AF0F00385A
:1054A00018BF012070470020704700BF8C97022F63
:1054B0009097022F2DE9F7430D464B1C18BF4D0165
:1054C00001A914BF4FF00008A846FFF799FF064650
:1054D000441E24B204EB4404DFF84C90A40026B927
:1054E0003746384603B0BDE8F083019B1F19797831
:1054F000185DFFF7B5FF90B9D9F80020BB68002A06
:1055000001DB9A420BD9B8F1FF3F08BFB5F1FF3F6D
:10551000E7D07A6813449D4278F10003E1DA013E56
:10552000B6B20C3CDBE700BF8897022F30BFFFF715
:10553000FDBF00BF2DE9F04105460B4EDFF82C8082
:10554000324606EB0807CC1B2046094904F01EFB37
:10555000A01942460021083C04F025FBC5F8804014
:1055600007F10800BDE8F081000000000400000021
:10557000A492022F054B9A699B689A421FBF044A66
:10558000536843F080535360704700BF90A0022FD0
:1055900000ED00E0154B9A6A12F0007F9A6A14BF82
:1055A0001E201D2012F0807F9A6A18BF1F2012F45F
:1055B000801F9A6A18BF022012F4002F9A6A18BF3F
:1055C000212012F4802F9A6A18BF222012F4003F83
:1055D0009A6A18BF232012F4803F9A6A18BF2420C9
:1055E0006FEA02426FEA12429A62704700ED00E0F1
:1055F00010B5184B0246986A9C6A10F4805F14BF7D
:105600001720162014F4006F9C6A18BF1820A405F8
:1056100008D5986A000404D51AB19A6A22F40042A7
:105620009A6219200B4B9A6A12F4806F9A6A18BF1B
:105630001A20D2050CD49B6A13F4005F18BF1C20FB
:10564000044A936A43F47F43936200230B7010BDB6
:105650001B20F5E700ED00E010B51C4B0246986AF0
:105660009C6A10F0100F14BF1120102014F0080FC6
:105670009C6A18BF1220A40709D5586B986A0006C7
:1056800004D51AB19A6A22F080029A6213200F4B55
:105690009A6A12F0010F9A6A18BF142012F0200FB4
:1056A0009A6A18BF1520D40658BF9B6A074B9A6A9E
:1056B000920642BF5A6A22F400525A629A6A42F033
:1056C000FF029A6200230B7010BD00BF00ED00E0E6
:1056D000F0B5474B04465B6800258BB0C3F3080365
:1056E00085F31188BFF36F8F02F07F40B0F17F4FD9
:1056F00011D102F00C0008280DD010074CBF0C4649
:1057000001250022033B8DF80720032B05D8DFE895
:1057100003F02462665F2C46F3E700239DF8072020
:10572000CAB902AE04F12007324620686168083425
:1057300003C2BC421646F7D1099A002D53D0C2F3DA
:10574000080121B96FEA52226FEA422209921846F3
:1057500002A903F05AFE0BB0F0BD254BDA6A91079F
:10576000DBD4DA6A002AD8DBDA6A5200D5D55A6966
:10577000A16942F480725A61BFF34F8FBFF36F8FFC
:105780005A6931F8021C22F480725A61BFF34F8FBC
:10579000BFF36F8F4DF60272914209D09A6AD2B26E
:1057A00042B101200DF10701FFF756FF0346B5E7AF
:1057B0002368B3E79A6A12F47F4F05D001200DF1F8
:1057C0000701FFF715FFF1E79B6AB3F5803FA4D30C
:1057D000FFF7E0FEEAE700200DF10701E4E7002013
:1057E0000DF10701EDE722F4FF7222F00102ADE7AF
:1057F00000ED00E0064B5A6942F010025A615A6906
:1058000042F480625A615A6922F008025A61704774
:1058100000ED00E0EFF30880EFF3098101B5724677
:10582000FFF756FF01BD00BF002080F31488BFF3CF
:105830006F8F002080F30A8880F30B8804F0EEF964
:1058400000F088FE00200E490860BFF34F8F0D481E
:1058500080F3088800F02CF8202080F311880A4893
:105860004FF40061401880F30988EFF3148002219F
:10587000084380F31488BFF36F8F00F0BBF800007B
:1058800094ED00E018B7022FD8A9022FBFF34F8F75
:105890000549064BCA6802F4E0621343CB60BFF3CC
:1058A0004F8F00BFFDE700BF00ED00E00400FA05E8
:1058B00072B6002383F313884FF0FF300C4A03F1D4
:1058C00020010133102B42F82100F8D100234FF0C2
:1058D000FF30074A03F160010133102B42F8210029
:1058E000F8D162B6BFF34F8FBFF36F8F704700BF21
:1058F00000E100E0084B9B6883420BD1EFF3058386
:1059000043B1064B5A6842F080525A605A6A22F4F8
:1059100000425A6202F064BA90A0022F00ED00E04B
:1059200016498A684FF030001044EFF3098C80E884
:10593000F01F202080F31288BFF36F8F104F4FF0BD
:1059400000668A698A603E60D2F880000D4C206053
:10595000D2F884000023C2F8843080F3118802F169
:10596000300090E8F01F8CF3098802F1000004B5C4
:1059700003F060FDBDE804407047000090A0022FD6
:1059800004ED00E0E09E022F1EF0040F0CBFEFF3C9
:105990000880EFF30980816911F8021C0229FFD009
:1059A00001B5724603F037FD01BD00BF00B200280B
:1059B00007DB01234109034A00F01F00834042F83E
:1059C0002130704700E100E000B2002801F1010140
:1059D000ACBF00F16040064B4FEA4111C9B2ABBF0A
:1059E00000F5614000F00F0080F800131954704773
:1059F00014ED00E00A4A08B50A4B22F07F029A60D3
:105A0000BFF34F8FBFF36F8FD3F8882022F470025B
:105A1000C3F8882001F012FB00F048F801F058FBB1
:105A20000028022F00ED00E042F8203C009B0B49CB
:105A300042F81C3C019B21F0010142F8183C029BFA
:105A400042F8081C42F8143C4FF0807342F8043CC2
:105A50000023203A0265C0F8843070478D32022F4F
:105A600000B50B4B15469860D0F88020094B0E46C8
:105A70001A60036F83F30B882C4686F30988002095
:105A8000054B98472046002100220023034C204765
:105A900090A0022FE09E022F3D7A022F8D32022F1E
:105AA0001022014B1A61704700ED00E00023202016
:105AB00040F2D71210B5044CE1180133934281F83B
:105AC0000003F9D110BD00BF00E100E008B572B6D7
:105AD0000A4B5A691AB100225A61FFF7EDFB62B610
:105AE000EFF30583064A103B02EBC30152F8330083
:105AF00049688847BDE80840FFF73CBD90A0022FE9
:105B00008083022F08B50549054A21F007010548A1
:105B1000521A02F0F1FC002008BD00BF5FBF022F47
:105B2000001E052FE49E022F10B500F09BFB00F035
:105B300059FB1021284800F0C9FA284AD2F89034BD
:105B400023F00103C2F89034254BD3F8082522F046
:105B50000202C3F80825D3F8082522F00402C3F88E
:105B60000825D3F8182522F00202C3F81825D3F827
:105B7000182522F00402C3F81825D3F8082542F0AE
:105B80000102C3F80825D3F8182542F00102C3F832
:105B900018251422134BD3F8CC03D3F8E413D3F80D
:105BA000C843114BE4B2C3F86824012280B289B221
:105BB000C3F88024C3F84044C3F84404C3F848142D
:105BC0000021C3F85014C3F880145A615A6100F0E0
:105BD000F3FA00EAE07010BDF09E022F00E00152DF
:105BE0000020015200E0FF0F00D0005248B1054BE9
:105BF000054A1B68B3FBF2F35843044B43F001031F
:105C0000184770472499022F40420F00C092022F7C
:105C100010B50C4C00F0EEFA00F0FAFAD4F80035AA
:105C200023F00403C4F8003500F024FBD4F8003559
:105C3000102123F00203C4F800350348BDE81040EA
:105C400000F084BA00200152F09E022F102208B505
:105C50000C4BC3F8A4240122C3F8C024D3F8942425
:105C600022F01002C3F89424FFF7D2FF002383F33D
:105C70001188BFF36F8FBFF34F8F30BF6FF00F00EE
:105C800008BD00BF00E0015210B50B4CD4F8003540
:105C900043F00203C4F8003500F0E4FAD4F800350C
:105CA00043F00403C4F8003500F09CFABDE810404E
:105CB0001021024800F00ABA00200152F09E022F83
:105CC000022808B523D172B6012917D9022913D1A8
:105CD0000121194800F0FAF9FFF79AFF002383F336
:105CE0001188BFF36F8FBFF34F8F30BFFFF7CCFF2B
:105CF0000121114800F02AFA62B608BD002383F39F
:105D00001188BFF36F8FBFF34F8F30BFF4E70428C4
:105D10000DD172B6094800F015F8FFF7B5FF084A33
:105D2000D2F8943443F01003C2F89434E4E7BDE8A9
:105D3000084003F08ABB00BFF09E022F4D42022FA5
:105D400000E00152F8B5344E344D344607460FCDCD
:105D50000FC40FCD0FC40FCD0FC495E80F00D03581
:105D600084E80F000FCD06F140040FC40FCD0FC41F
:105D70000FCD0FC495E80F0084E80F004FF4F872C0
:105D8000274906F1800003F001FF384603F01AFFAF
:105D9000071E3FDB0022D6F87002224B06F51C716D
:105DA000C3F8982051F8044F0132C3F89C400C6CA2
:105DB000102AC3F8A040F3D1D6F8F422174DC3F847
:105DC000C020D6F8F822144CC3F8C420C3F89800B9
:105DD000D6F8FC22C3F894200FCC0FC50FCC0FC50A
:105DE0000FCC0FC594E80F0085E80F0004F11006F2
:105DF000D0350FCE0FC50FCE0FC50FCE0FC596E80D
:105E00000F0085E80F004FF4F872054804F15001C7
:105E100003F0BCFE3846F8BD38BB022F00E100E0BD
:105E200000E400E000ED00E00A4A40F2A44510263C
:105E30004FF498674FF0010C4FF000005359B342F4
:105E400006D15051D359D051634501D14FF00100D3
:105E5000704700BF00E0015208B50F490F4802F03B
:105E60004DFD002817DB0C490D4802F047FD0028C6
:105E700011DB09490B4802F041FD00280BDB064904
:105E8000094802F03BFD002805DB0349074802F002
:105E900035FD00EAE07008BD3C94022FCC98022F3B
:105EA0008098022F3498022FE897022F9C97022F98
:105EB00070B504460D46C1610B4BD3E8AF3FC3F349
:105EC00040019B0703D42B46BDE8704018470246AB
:105ED000002190F8200000F06FFD18B16FF0040170
:105EE0002046F0E770BD00BFF49E022F70B5044657
:105EF0000D46C1610B4BD3E8AF3FC3F340019B0795
:105F000003D42B46BDE8704018470246012190F8A3
:105F1000200000F051FD18B16FF004012046F0E7B9
:105F200070BD00BFF49E022F2DE9F0410246EFF351
:105F30001183202181F31288BFF36F8F418B0039C9
:105F400018BF012183F31188BFF36F8F264DD5E869
:105F5000EF3F23F48073C5E8E03F0028F7D1D5E890
:105F6000EF3F23F01003C5E8E03F0028F7D192F897
:105F7000200000F021FD18B16FF00400BDE8F081B1
:105F800003F06CFD4FF47A76A0FB060447F612226C
:105F900006FB01410023FEF701FDB04604460F4613
:105FA00003F05CFDA0FB080C47F61222002306FB61
:105FB00001C1FEF7F3FC001B61EB0701B0F57A7F2E
:105FC00071F1000102DB6FF07300D7E7D5E8AF3F56
:105FD000DA05C3F30020CFD4D5E8AF3FDB06CDD43C
:105FE00001F050FEDCE700BFF49E022F38B54FF001
:105FF000FF304FF0FF3100F053FFC0B21A4C38BBF6
:106000001A4800F0B7FC054610BB1948FFF78CFF93
:1060100000281FDB1748FFF787FF00281ADB164808
:10602000FFF782FF002815DB1448FFF77DFF0028EB
:1060300010DB1348FFF778FF00280BDBD4E8EF3FB5
:1060400043F00203C4E8E23F002AF7D1284638BDF6
:106050006FF00400D4E8EF3F43F00403C4E8E23FEC
:10606000002AF4D0F6E700BFF49E022F8546022FE7
:10607000CC98022F8098022F3498022FE897022F95
:106080009C97022F0246104B0846D3E8AF1F8907A2
:1060900006D51178C36901B918476FF00401FBE711
:1060A000127842B9D3E8EF1F41F01001C3E8E21FB4
:1060B000002AF7D17047D3E8EF1F41F48071C3E89D
:1060C000E21F002AF7D17047F49E022F0129F8B58C
:1060D000044629D0102926D1184DEFF3118620232C
:1060E00083F31288BFF36F8F002002462B68144F92
:1060F0003B60DBB900B13B603AB9124AD2F8903448
:1061000023EA01030B43C2F890342146284603F0EA
:10611000B0F9002323606B6863B9C5E9004486F3D6
:106120001188BFF36F8FF8BD074DD6E701201B68BC
:106130000132DEE71C606C60F1E700BFFC9E022FBD
:10614000F89E022F00E00152049F022F012970B532
:106150000C4623D0102920D1134DEFF311862023B4
:1061600083F31288BFF36F8F0146284603F081F94D
:1061700078B100210A462B680C4D2B6083B901B120
:106180002B6032B90A4AD2F8903423EA0403C2F8E9
:10619000903486F31188BFF36F8F70BD054DDCE737
:1061A00001461B680132E9E7FC9E022FF89E022F90
:1061B00000E00152049F022F70B5084D084E28469A
:1061C000F56003F071F90446284603F076F921469C
:1061D0000246304602F090F9002070BD4894022F2C
:1061E0000C9F022F0122024BC3F80424704700BF0A
:1061F000003008E0002307B51A461946009303480B
:1062000003F063F903B05DF804FB00BF003008E061
:1062100010B5054CD4F80434012B01D1FFF7EAFF87
:106220000023C4F8043410BD003008E007B50B4665
:106230000121024600910348002103F046F903B012
:106240005DF804FB003008E007B50B46012102466B
:106250000091034803F039F903B05DF804FB00BF77
:10626000003008E00122024BC3F80424704700BF4D
:10627000002008E00022024BC3F80424704700BF4E
:10628000002008E0C0B22DE9F84303282CD8DFE84D
:1062900000F0021F2327154BD3F80C530024144F92
:1062A000DFF85080DFF8509025FA04F3DB070AD5B9
:1062B000002358F8246047F8243026B1214659F8C5
:1062C00024200E48B0470134202CEDD1BDE8F883DE
:1062D000064BD3F81C53E1E7044BD3F82C53DDE70E
:1062E000024BD3F83C53D9E70025D7E700A0095F5C
:1062F00000A1095FAC9F022F2C9F022F0883022F61
:106300001F299FBF054840F82120054A002094BF5F
:1063100042F821306FF01500704700BFAC9F022F8C
:106320002C9F022F1F2970B502D96FF0150070BD88
:1063300000200123044603FA01F12A4D2A4B55F8A7
:10634000046B002E43D00E4241D01C6804EA0106C3
:1063500002B3002E43D10C4302281C60234C0FD003
:10636000032813D0012803F1040304D0C4F8041354
:1063700014460120E3E7C4F8141314460220DEE7B4
:10638000C4F82413144604330320D8E7C4F83413A4
:106390000020CCE71EB324EA010402281C60134C41
:1063A0000DD0032810D0012803F1040303D0C4F852
:1063B00008130124DDE7C4F818130446DEE7C4F827
:1063C000281304330124DFE7C4F83813E0E7013071
:1063D000042803F10403B2D1002CD9D1A5E76FF052
:1063E0007700A4E76894022F1C9F022F00A0095F8A
:1063F000002318460F4A104910B502F58072C2F802
:106400000812C2F81832C2F82832C2F8383221FA1B
:1064100003F4E40748BF42F823000133202BF6D1F0
:10642000002201216020FFF7CFFA6020FFF7BEFABB
:10643000002010BD00A0095F4160040073B5144640
:106440001D46684600F0F4F8009BA342019BAB4157
:1064500014D30B4AD2E90061A41B24F01F0365EB9F
:10646000010064099B1941EB000144EAC060C2E9E4
:10647000003102B0BDE8704001F08ABE02B070BDCC
:10648000989B022F10B5002201216D20FFF79CFA86
:10649000002000F0FBF80A4B0446984209D1094855
:1064A00000F0EEF8A04207D110220020064B1A603F
:1064B00010BD4FF0FF30FBE76FF00B00F8E700BFB7
:1064C0000000AD0B2099022F2CA0022F07B56846C3
:1064D00000F0AEF80098074AD2E90032C01A019BDA
:1064E0004FEA501063EB020340EAC36003B05DF86B
:1064F00004FB00BF989B022F7FB5431C18BF20EA06
:10650000E07502A808BF6FF0004500F091F802990D
:106510000E4B2020D3E900268C1A039961EB060369
:106520002146C5FB0013402973F1000436BF014624
:1065300021F01F01002352184FF0010146EB030325
:106540000091034800F0D8F804B070BD989B022F6A
:106550001899022F034AD2F88C3043F44063C2F8F2
:106560008C30704700ED00E030B50468ACB1B4FA8F
:1065700084F30122C3F11F03DBB29A4024EA020232
:10658000D0E8EF5FA54204D1C0E8EC2FBCF1000FCA
:10659000F6D1EAD102480B7030BD0248FCE700BFDB
:1065A0000000AD0B0200AD0B70B5002310240126D6
:1065B000027A94FAA4F1B1FA81F1914203F1010552
:1065C00018D100210C24120102F1BF4202F5CE12B3
:1065D000C2F82C150A4ADBB204FB03230168D96018
:1065E000416819610121007A1875936881400B4355
:1065F000936070BD06FA01F12B4624EA0104D8E746
:106600002899022F04280BD1064B00F13A605B68F1
:1066100000F5502013F0100F034B08BF18467047C9
:10662000024870472899022F0000AD0B0800AD0BFF
:10663000002200232DE9F048C0E90023EFF3118187
:10664000202383F31288BFF36F8F4FF0FF356FF075
:106650004044094ED6E900BC5D4574EB0C07F9D304
:10666000CCF31303C0E900B381F31188BFF36F8F3C
:106670000248BDE8F08800BF50C7995F0000AD0B2D
:1066800001460148FFF770BF2C99022F10B5154C39
:10669000227812BB0523102101F001000244013BC6
:1066A000D2B24FEA5101F7D1012A18D1042218467B
:1066B0000D4922759A08042A03F1040203D15850A7
:1066C0005B581346F6E7402A1346F3D16D20FFF7D7
:1066D0006DF901230548237010BD0548FCE7054806
:1066E000FAE700BF2899022F00C1995F0000AD0BA7
:1066F0000C00AD0B0100AD0B2DE9F0410446007A12
:106700001D46FFF77FFF1A4B1746984206469DF835
:10671000188029D12046FFF747FFEFF3118020238F
:1067200083F31288BFF36F8F227A124B92001344C7
:1067300000221A60217AC5F31305090101F1BF4156
:1067400001F5CE111B68C1F82075C1F8245580F3FE
:106750001188BFF36F8FB8F1000F05D00123227AA3
:106760009340054AC2F834333046BDE8F08100BF9B
:106770000000AD0B00C1995F00C0995FF7B5254CD3
:1067800000206368A268DB4303F0100313401D463A
:10679000012784466DB901271F4BD3F830630640AB
:1067A000207DE16807FA00F302463340FDB103B0F3
:1067B000F0BD95FAA5F6B6FA86F6B20002F580713C
:1067C000920807FA02F213420CD001F1BF4101F521
:1067D000CE11D1F800E0BEF1000F03D0C1F800C027
:1067E0000968104307FA06F625EA0605D2E7002BEA
:1067F000DDD00029DBD01201256902F1BF4202F58C
:10680000CE12D2F82435D2F82025009588470125EC
:10681000C6E700BF2899022F00C0995F02289DBFDC
:106820001C22024B02FB0030014870478094022F6B
:10683000B894022F13B50F4B1A68BAB11B79ABB1DC
:10684000038813F4804103D001238DF8043009E05C
:10685000C488012BADF805400AD0033B012B05D8B5
:106860008DF80410D0F8021001A8904702B010BDB6
:106870000223EAE730A0022F07B5134A13685BB181
:1068800012794AB10288510409D500228DF80420FA
:10689000D0F8021001A8984703B05DF804FBC17955
:1068A0008DF805106FF400710A44032AF4D8DFE86C
:1068B00002F0020406090122E8E70222E6E78279F3
:1068C0000332E3E70522E1E738A0022F044B02463A
:1068D0001979012011B9187108461A60704700BF74
:1068E00038A0022F07B5094B1B7963B140F2012391
:1068F000CDF8020006216846ADF8003002F06BFECC
:1069000003B05DF804FB0120FAE700BF38A0022FB6
:1069100007B5094B1B7963B14FF40173CDF8020041
:1069200006216846ADF8003002F055FE03B05DF870
:1069300004FB0120FAE700BF38A0022F07B50C4A7C
:1069400013685BB112794AB10288510409D500225B
:106950008DF80420D0F8021001A8984703B05DF824
:1069600004FB40F601118A42F8D10122F0E700BF92
:1069700040A0022F044B02461979012011B9187169
:1069800008461A60704700BF48A0022F07B5094BA0
:106990001A6862B11B7953B10388D0F8021013F45E
:1069A000804318BF012301A88DF80430904703B03D
:1069B0005DF804FB48A0022F07B50B4B1B7983B190
:1069C00040F201338DF806008DF807106846082163
:1069D000ADF80030CDF8022002F0FDFD03B05DF807
:1069E00004FB0120FAE700BF48A0022F07B50C4BBB
:1069F0001A688AB11B797BB10388D0F802105B0456
:106A000003D502238DF8043004E08379002BF9D0FC
:106A1000012BF7D001A8904703B05DF804FB00BF3D
:106A200050A0022F13B5114A1368A3B1127992B185
:106A3000028812F4804103D002228DF800200EE07B
:106A4000D0F80640019440F20174A24205D040F211
:106A500002718A4208D002B010BD8DF80010D0F843
:106A6000021068469847F6E70122E6E758A0022F91
:106A700013B5114A136863B1127952B1028812F446
:106A8000804108D001228DF80420D0F8021001A81E
:106A9000984702B010BD40F60104A242F9D18279B4
:106AA0008DF804108DF80720C2798DF80620027A3F
:106AB0008DF80520E9E700BF60A0022F70B50588BA
:106AC000ABB22D0404D50639063002F07BFD70BD53
:106AD000C3F305230A2BFAD8034A52F82330002BBC
:106AE000F5D0BDE870401847D494022F022870B545
:106AF00005463BD8FFF792FE012D436908BF0223EC
:106B00000126DBB29B001C4A03F17F6303F57E2361
:106B1000D2F8C813D3F8CC23D3F8E433174CC9B256
:106B200092B29BB2C4F88064C4F84014C4F8442400
:106B3000C4F8483400232846C4F85034C4F88034DC
:106B4000FFF76CFE4CF25035036903F01F03C4F8E5
:106B5000683466616661D4F8103153B90A2002F0D6
:106B60002FFD013DF7D16FF0730070BD6FF0150080
:106B7000FBE70020F9E700BF00E0FF0F00D0005264
:106B8000044BD3E8EF1F21F00201C3E8E21F002A03
:106B9000F7D1704770A0022F0123054A8340D2E845
:106BA000EF0F1843C2E8E10F0029F8D1704700BF8A
:106BB00070A0022F022870B50446184D12D900208B
:106BC00002F004FD2046FFF791FFFFF7D9FF2C707C
:106BD000134B144A1360144B1B68F3B12878BDE8BB
:106BE000704018472878844294BF0020012002F0AA
:106BF000EDFC2B789C4206D9FFF7C2FF2C70012CCC
:106C0000E6D10A4BE5E72046FFF770FFFFF7B8FF34
:106C10002C70002CF3D1064BDBE770BDCFA0022F08
:106C20000090D0032499022F6CA0022F0020A1070E
:106C300000D0121373B503780446023B032B5DD8D2
:106C4000DFE803F002122C5E0020FFF74FFF002068
:106C50002E4B18702E4B1870FFF79EFF2D4802B078
:106C6000BDE8704000F038BCFFF78AFF284B42783F
:106C70001B789A4242D17AB1274B2849012A08BF92
:106C80000B46274A1360274B1B68002B36D06078D1
:106C900002B0BDE870401847234BF2E74578022D5B
:106CA0002CD81A4E33789D4228D933789D42D8B2D9
:106CB00008D0294602F088FC33789D4202D9284644
:106CC000FFF714FF1948036801330360FFF720FE44
:106CD0006378022B05D83278934202D9144800F029
:106CE000FBFB144B62781A701348436300220023A5
:106CF000CDE900232022002301F030FB02B070BD5B
:106D0000407802B0BDE87040FFF754BFCFA0022F1B
:106D1000CEA0022F089A022F0090D0030020A107D6
:106D20002499022F6CA0022F00D0121368A0022F0A
:106D3000F899022FCDA0022F9899022F10B502F0DA
:106D400042FC4FF0FF314FF0FF3000F0A9F80E4841
:106D5000FFF7BCFD0D48036801330360FFF7C2FD78
:106D60004FF0FF324FF0FF33094800F0E9FB094CC8
:106D70004FF0FF324FF0FF33204600F0E1FB0120DF
:106D800002F023FCF4E700BF3552022F68A0022F67
:106D9000089A022FF899022F30B5094C094D8BB093
:106DA00000220023204601A900F06AFA08B10BB0C6
:106DB00030BD2846BDF8062002A901F0D5FDEFE759
:106DC000D099022F5499022F10B501210C4802F0DE
:106DD000A0FE01220B4BD3E8EF1FC3E8E02F0028F1
:106DE000F9D1094B1B6A13B1084800F0CFFC084BDE
:106DF0001C6804B910BD636898472468F9E700BFB0
:106E0000189A022F5C99022FD099022F7CA0022F92
:106E100074A0022F034BD3E8AF0F431E58425841D2
:106E2000704700BF5C99022FF0B58BB005460C4649
:106E300017461E4602F0DAFC68B9FFF7EBFF50B1C7
:106E400022462946134801F08FFDB0FA80F0400930
:106E500040000BB0F0BD202C19D85C2322462946F7
:106E600002A8ADF80430ADF8064002F08FFE0A48E3
:106E70003A46334601A900F0A9F940B9FFF7CAFF25
:106E80000028E6D0054800F081FCC00FE0E70220B2
:106E9000DFE700BF5499022FD099022F7CA0022F68
:106EA00013B50446FFF7B6FF024610B1002002B04A
:106EB00010BD0548CDE90041012102F02DFE012859
:106EC000F4D06FF00A00F2E7189A022F38B50F4D90
:106ED0000F49104802F049FC286801F023FD041E08
:106EE00009DA14F1780F06D000222146052002F0BD
:106EF00080FB204638BD6A680749286801F020FDFC
:106F0000041EF6DA002221460620F0E74C99022FF3
:106F10009953022F7CA0022F5499022F38B5EFF31A
:106F20001185202383F31288BFF36F8F064B9C6873
:106F300002F090FB85F31188BFF36F8F2046BDE808
:106F40003840FEF7D7BC00BF90A0022F38B5094BE0
:106F500053F82040013053F82050A54200D838BDE6
:106F6000636823B1204602F078FB0834F5E7236814
:106F70009847FAE70095022F012270B52A4B0320AB
:106F800086B01A70FFF7E2FF01F050FA02F07FFBC3
:106F90000420FFF7DBFF254C254D2646AE4204F1C9
:106FA000300410D300F01EFE204C224EAC4226D3FB
:106FB00000F02CFE01F06DFA1F4A137B23F0010351
:106FC000137306B070BD54F80C3C059354F8103C94
:106FD000049354F8143C039354F8183C029354F867
:106FE0001C3C019354F8203C009354E90A2354E9D3
:106FF0000C0100F00FFC54F8303C5E65CDE7D4E99D
:107000000A23B3F1FF3F08BFB2F1FF3F05D052EAB8
:107010000301206803D100F0B9FE3034C6E73146E1
:10702000183001F03FF8F8E7D0A0022F3892022F75
:107030006892022FF97E022FC09C022F08B50348E8
:10704000034A0021121A02F020FB08BD389A022FD1
:10705000D4A0022F902370B5174E012203FB0066C7
:10706000002386B0CDE904230F220193CDE902323B
:1070700014234FF4A0720446104D114903FB005530
:1070800002FB00110F4B3046009500F0C3FB737BF1
:107090002C7423F0040373730B4B013403EBC423F0
:1070A0006B600A4BEE60D3E8EF1F0131C3E8E21FCB
:1070B000002AF8D106B070BD309C022F90A0022F9C
:1070C000D8B1022F9557022FD8A9022F8CA0022FDA
:1070D000BFB50020FFF73AFF264B03F5006282F3AD
:1070E000088883F30A880024E023234D234F85F882
:1070F0002230EC772C766C76AC766B6A43F4E02326
:107100006B6285F82340FEF775FBFEF7C9FC4FF074
:10711000FF331B48AB62EB6200F0E8FB02F0FFFCC0
:107120000120FFF713FF0220164DFFF70FFF00F0BD
:10713000A1FD154B15499D61154B4FF480620593D8
:1071400001232846CDE90343CDE901443B460094A1
:1071500000F060FB06466A7B284622F004026A7350
:1071600002F087FB2046FFF775FF3A463146284676
:10717000FEF776FCD8A9022F00ED00E07955022F2A
:10718000509D022FC09C022F90A0022F18B3022FF7
:10719000CC95022F202408B50A4D0B4EEFF3118336
:1071A00084F31288BFF36F8F02F045FC3378686177
:1071B00013B902F04AF9F1E7FEF7ACF80028EDD177
:1071C000F7E700BF90A0022FD0A0022F2DE9F341D6
:1071D00004460E4600F10808EFF31187202181F3E1
:1071E0001288BFF36F8F006AE168884234D2256845
:1071F000AC421AD0CDB1284602F04AFA05F1180087
:1072000002F0F8FBA26800243146686902F0BEFC77
:107210002846C5F8884002F02CFB4046394600F06D
:10722000BBFC204602B0BDE8F081A2683146E069AF
:1072300002F0ACFC0020E369A26813446269E361D8
:10724000934204BF2369E361236A0133236287F316
:107250001188BFF36F8FE5E752EA03010AD00749AF
:10726000404689684E61CDE900233946224600F048
:1072700017FCD7E76FF02200E9E700BF90A0022FCC
:10728000F7B50446084604F10807EFF311862021FC
:1072900081F31288BFF36F8F216A00293AD0A26868
:1072A000A16902F073FCA369A268256813446269AE
:1072B000A361934204BF2369A361236AAC4203F133
:1072C000FF33236234D02846002D32D002F0E0F99B
:1072D00005F1180002F08EFBA2686969E06902F00E
:1072E00055FCE369A268284613446269E36193424E
:1072F00004BF2369E361236A013323620024C5F8D4
:10730000884002F0B6FA3846314600F045FC204687
:1073100003B0F0BD52EA030110D00A498968486100
:10732000CDE9002331462246384600F0B9FBEFE7AD
:10733000002086F31188BFF36F8FE9E76FF022001A
:10734000F7E700BF90A0022F2DE9F341044617464E
:107350001E46EFF31188202383F31288BFF36F8F4B
:10736000C368334A7BB180689168884219D057EA74
:10737000060318D188F31188BFF36F8F6FF00F00E9
:1073800002B0BDE8F081916891F90E100133E3601D
:1073900093682161A36088F31188BFF36F8F002089
:1073A000EEE72169F2E791F90E1090F90E306FF0D7
:1073B0007E029942A8BF19469142B8BF11468B423E
:1073C0002DDD02F072F9054622464146CDE90076F0
:1073D000184800F065FB0028E1D0EFF31186202368
:1073E00083F31288BFF36F8FA068D0B1236821693F
:1073F0009C420AD04BB193F90E309942A8BF19466E
:107400006FF07E039942B8BF194602F04EF940B1C1
:107410003146084800F0C0FB6FF00A00B0E70025D5
:10742000D2E7002DF4D186F31188BFF36F8FF3E715
:1074300090A0022FD1A0022FF8B583680546002B3B
:1074400040D0234A926893423FD1C368012B03D9AD
:10745000013BC3600020F8BDEFF31187202383F3C5
:107460001288BFF36F8F0169806802F01EF92C68E3
:10747000A54207D10023C5E9023387F31188BFF382
:107480006F8FE7E7002CF5D0D4E9003200261360B7
:107490005A60637BC4E9006623F002036373A6604D
:1074A00004F1180002F0A6FAAC6094F90E30204600
:1074B0002B61C4F8886002F0DCF93946054800F019
:1074C0006BFBC7E76FF01500C5E74FF0FF30C2E771
:1074D00090A0022FD1A0022F70B5EFF311862023C8
:1074E00083F31288BFF36F8F0468A0421BD0D4B11E
:1074F000D4E90032002513605A60637BC4E900556B
:1075000023F002036373A56004F1180002F072FA1D
:107510002046C4F8885002F0ACF93146BDE870400E
:10752000064800F039BBD0E902329A4218BF013355
:10753000836086F31188BFF36F8F70BDD1A0022FD7
:1075400013B5EFF31181202484F31288BFF36F8FFA
:10755000846844B1013C846081F31188BFF36F8F6C
:10756000002002B010BD52EA030406D181F3118855
:10757000BFF36F8F6FF00F00F3E7CDE900230246F2
:10758000014800F08DFAECE7D1A0022F2DE9FF4170
:10759000044620274E4EEFF3118887F31288BFF37D
:1075A0006F8FD4F89050F5B9022104F1A80002F0D1
:1075B00097F8002868D004F1A00500220121284690
:1075C00002F0BAF90028F8D100234FF0FF320293FD
:1075D0004FF0FF334146CDE900233E4804F19802C5
:1075E00000F09AFCD7E7D4F894202B689542C4F8B1
:1075F000903008BFC4F89430D4F8A83043F00203A8
:10760000C4F8A830EB6823F0040343F00103EB60F7
:107610006B6888F31188BFF36F8F28469847EFF3A4
:10762000118887F31288BFF36F8FEB68D80623F0B9
:10763000010236D4EA60EB689A0716D5306823F069
:107640000203EB6088B10021036870B14268954283
:1076500035D1036869BB72683360824200D17360C0
:10766000002340F8083BFFF737FFD4F8A83023F099
:107670000203C4F8A83088F31188BFF36F8FDB05CD
:1076800089D400F0FFFA86E7D4F8A830D9069BD554
:10769000C4F8A80088F31188BFF36F8F04B0BDE869
:1076A000F08123F01103EB6005F11000FFF714FFE8
:1076B000C1E70B607368834208BF7160D0E723B1F4
:1076C0001A68014618461346BFE71A46F9E700BF95
:1076D000B4A0022FD1A0022FF8B5C36804469A07C0
:1076E0000F46C3F340062CD45B071AD40B680BB9C2
:1076F00083680B60E368DD0742BFA36802263B6036
:107700003D6858BF0126002D3AD01F4B9B68AB4205
:107710000AD0D5F8A830D807C3F3800214D46FF08C
:10772000120600233B6025E002F060F8D5F8A8308F
:107730000028F0D1D907C3F3C002F0D552B15B07DE
:1077400008D46FF00F06ECE7002AFAD1C3F3C003A8
:10775000002BF6D100232360D5F8943063B9C5E936
:107760002444284601F0C7FFE36843F00403E360C4
:107770003B68A3603046F8BD1C60C5F89440F0E754
:107780006FF01506CDE700BF90A0022F014601481B
:1077900002F007B8009E022FF0B50446002089B021
:1077A000C4E924000E9D04F19800C4E9260004F108
:1077B000A000C4E928004DB32879002840F2011048
:1077C00008BF0120C4F8A80000204FF0FF364FF09A
:1077D000FF37CDE90330CDE90100CDE9066720464A
:1077E0000B4B009400F056F855B1296811B12046B2
:1077F00002F002F86B791BB1237B43F00103237382
:10780000204609B0BDE8F04000F0C0BA0120D9E739
:107810008D5B022F2DE9F043984685B000F15803A7
:10782000C0E91633109B002503730423073222F0AE
:10783000070643730F9B01EB06090F468373494606
:10784000C0E906558560C5730446FDF773FE0E9BBF
:10785000073020F00700A067C4E91C7602930D9B57
:10786000A9EB000901930C9B4A4600933946434615
:107870002046FEF7D9F8064B65659B6884F86C5086
:1078800003B1DB6F4846E36705B0BDE8F08300BF96
:1078900090A0022FF0B5002587B00595109DDDE979
:1078A000127604950F9D044603950E9D02950D9D3D
:1078B00001950C9D0095FFF7ADFFB6F1FF3F08BFA6
:1078C000B7F1FF3F05D056EA070305D1204600F087
:1078D0005DFA204607B0F0BD3A463346024904F14E
:1078E000180000F0DFFBF4E7F97E022F40F20113ED
:1078F00083810023C0E91C33C367014B9860704744
:1079000090A0022F6FF00A01094A9368C3F888100B
:107910000849C3F884004B6843F080534B60002350
:1079200083F31188BFF36F8F9368D3F88800704793
:1079300090A0022F00ED00E070B590F90D20437B80
:10794000002A36DBD90634D11B4C63F07F03224674
:10795000437352F81C3F216A934207D1C0E90021CA
:107960000860206211E09942F8D01B68002BF5D026
:1079700090F90E5093F90E60B542F4D0AE42F2DDAC
:107980005968C0E9003108605860E569954200D047
:1079900005B9E568A3685A7BD20604D1DA897F2A43
:1079A00001D9AA6932B1AB4202D0284600F0F4FAFC
:1079B000A56170BDA361FCE790A0022F38B590F9D6
:1079C0000D200146002A437B04DA03F07F03437352
:1079D00001F015FF0D4D2A4652F81C4FAB6894423A
:1079E00000D004B9EC688B4207D05A7BD20604D190
:1079F000DA897F2A01D9A2692AB1A34202D020469E
:107A000000F0CAFA2346AB6138BD00BF90A0022F38
:107A100070B590F90D200146002A437B04DA03F08B
:107A20007F03437301F0EBFE1C4C4B7B224663F05B
:107A30007F034B7352F81C3F206A934207D1C1E980
:107A400000200160216211E09842F8D01B68002BF1
:107A5000F5D091F90E5093F90E60B542F4D0AE42D4
:107A6000F2DD5868C1E9003001605960E569A3683A
:107A7000954200D005B9E5688B4207D05A7BD20603
:107A800004D1DA897F2A01D9AA692AB1AB4202D08E
:107A9000284600F081FA2B46A36170BD90A0022F0A
:107AA000F8B5124B0C46DDE9067611469868104A87
:107AB0001060EFF31182202282F31288BFF36F8FE0
:107AC0009D68284601F0ADFEB6F1FF3F08BFB7F153
:107AD000FF3F06D03A463346064905F1180000F04C
:107AE000E1FA2046BDE8F840FFF70CBF90A0022F56
:107AF000BCA0022FF97E022FF8B50446EFF31187E0
:107B0000202383F31288BFF36F8F437B49B203F0C6
:107B10001F02002A0CBF0126002639D103F07F0383
:107B20001C4D437301F06BFE2A46437B817363F067
:107B30007F03437352F81C3F934227D1286AC4E95C
:107B4000002004602C620FE08342F8D01B68002BF9
:107B5000F5D093F90EC06145F6D08C45F4DD596837
:107B6000C4E900310C605C60EC69944200D004B957
:107B7000EC68AB689C4202D0204600F00DFAAC6184
:107B800087F31188BFF36F8F3046F8BD286ADEE7B0
:107B90008173F5E790A0022F49B9EFF3058030B962
:107BA000054B9A699B689A4201D0FFF7ABBE81F3FF
:107BB0001188BFF36F8F704790A0022F034648B91A
:107BC000EFF3058232B9064A91699268914201D079
:107BD000FFF798BE83F31188BFF36F8F704700BF24
:107BE00090A0022FEFF31181202383F31288BFF3BB
:107BF0006F8F054B9A68D37B013BD37381F3118858
:107C0000BFF36F8F704700BF90A0022F70B5EFF3E6
:107C10001186202383F31288BFF36F8F144DAB6856
:107C2000DA7B0132DA732A4652F81C4F944200D0B4
:107C300004B9EC685A7BD20604D1DA897F2A01D9CB
:107C4000A2692AB1A34202D0204600F0A5F923463A
:107C5000AB6186F31188BFF36F8FEFF311802023A0
:107C600083F31288BFF36F8FBDE87040FFF7A6BFA4
:107C700090A0022F024B03F11C02C3E907227047B8
:107C800090A0022F70B5EFF31186202383F31288A2
:107C9000BFF36F8F1B4CA168206A0B68814214BF31
:107CA0001A46002249680B605960A368216A2AB904
:107CB000154AC3E900210B6023620CE093F90E0022
:107CC00092F90E50A84218D0854216DD5168C3E9DA
:107CD00000210B605360E5690B4B9D4200D005B954
:107CE000E568A3689D4202D0284600F055F9A561D9
:107CF0003046BDE87040FFF705BE8A42D8D0126812
:107D0000D5E700BF90A0022FACA0022F50EA0103DC
:107D10002DE9F04105460E4604D1FFF7B3FF0020E0
:107D2000BDE8F081831C71F1FF3324DB01F092FE8A
:107D30004419EFF31188202383F31288BFF36F8F68
:107D40000F4F104BB8681860FFF738FEB8680E493F
:107D50002A463346183000F0A5F9BA684046537BEE
:107D600043F004035373FFF7CDFD01F073FE201AB7
:107D700020EAE070D4E76FF00104241AD9E700BFCD
:107D800090A0022FBCA0022FF97E022F38B5044626
:107D9000EFF31185202383F31288BFF36F8F437BAA
:107DA0005B070FD5183001F025FE637B204623F0DA
:107DB00004036373FFF7C0FD2946BDE8384004485B
:107DC000FFF7EABE85F31188BFF36F8F38BD00BFA0
:107DD000D1A0022F014B9868704700BF90A0022FDE
:107DE0002DE9F8430446077BEFF31185202383F345
:107DF0001288BFF36F8F437B190705D585F3118870
:107E0000BFF36F8FBDE8F883D90943F008025AD158
:107E10004273A36813B1204601F0F9FC04F1180085
:107E200001F0E8FDA66D04F15808B04511D04FF0FF
:107E3000000976B1304601F0EAFC06F1180001F0C5
:107E4000D9FD3046C6F88890FFF776FDA66DB0459F
:107E5000EFD1DFF8B880D8F808309C423BD1EFF37F
:107E60000589B9F1000918BF4FF00109D8F81C6065
:107E7000274A964200D00EB9D8F80C60B34202D01F
:107E8000304600F089F8C8F81860B9F1000F02D048
:107E90002048FFF72BFDD8F808309C4231D1EFF392
:107EA000058373BB227BD20718D42846FFF72AFD2F
:107EB000FB07A7D5002383F31188BFF36F8F04233B
:107EC000184602DF9EE703F07F0343F00803437385
:107ED00001F095FC9DE74FF00009C7E785F3118895
:107EE000BFF36F8F83F31188BFF36F8F042318469E
:107EF00002DFEFF31180202383F31288BFF36F8F2B
:107F0000D4E785F31188BFF36F8FD1E790A0022FDC
:107F1000ACA0022F509D022FD3B5DDE90667089C67
:107F2000CDE90067FFF7BCFD1CB1034B9B685B69A3
:107F3000236002B0D0BD00BF90A0022F0122044BED
:107F4000C01A044BC0105843034B1A54704700BF6B
:107F5000E09D022FABAAAAAAD1A0022FC3897F2B32
:107F600012D80A4B1B6863B1094B90F90E201B68AD
:107F70009A4209DB437BDB0606D1064BC31A18BFC6
:107F8000012303F0010070470023FAE7C4A0022F89
:107F9000C0A0022F309C022F70B50E4B0E4C1E7CE1
:107FA000054606EB460304EBC304204601F022FD20
:107FB00000220A4B28469A55FFF7D0FF48B1084BDC
:107FC0002046BDE870401A680649013AD31700F010
:107FD00069B870BD90A0022FE09D022FD1A0022FA2
:107FE000C4A0022F3D65022F38B5EFF31185202381
:107FF00083F31288BFF36F8F104B114A9C6810688F
:10800000A04206D1FFF7C8FF85F31188BFF36F8F39
:1080100038BD00211B7C11600A4AD35C002BF3D0D1
:108020002046FFF79BFF0028EED0637BDB0602D1E2
:108030002046FFF7EDFC2046E4E700BF90A0022FAA
:10804000BCA0022FD1A0022F024B1868984208BF93
:10805000002070478099022F034B1B680BB9FEF775
:1080600035BA0020704700BFC8A0022F30B570B1EC
:108070000B4B5B6898420AD0036843B1D3E90421F3
:10808000D0E90445121941EB0501C3E90421D0E907
:10809000003213605A600023C0E9003330BD00BFD6
:1080A0008099022FB3F1FF3F08BFB2F1FF3FF8B54F
:1080B00004461D4616465AD08160EFF311872023EF
:1080C00083F31288BFF36F8F013275F1FF3321DA2A
:1080D0006FF001032B49D1E900209B1A4FF0FF32CA
:1080E00062EB00009E1B60EB0500012E70F10003A7
:1080F00001DA01260020C4E90460FFF7A5FF224E43
:1081000084467068BCF1000F0DD1C4E900600460C2
:1081100074601CE0FFF7A0FF013645F1000536183A
:1081200045EBE070E7E7DCE90425D4E9043193424C
:1081300071EB050E1CDAD21ADCF8043065EB010590
:10814000CCE90425C4E900C31C60CCF80440FFF767
:108150007BFF844207D10D4B1C6824B901F031FC30
:108160002146FEF7C9F987F31188BFF36F8FF8BD79
:108170009B1A61EB05018445C4E90431C5D0DCF8E4
:1081800000C0BFE7F89D022F8099022FC8A0022FE0
:108190002DE9F047EFF31185202383F31288BFF315
:1081A0006F8FDFF8A0900026C9F800000027FFF7C6
:1081B0004BFFDFF89480D9F80030D8E900ECD917EC
:1081C00050B1D0E90442A34271EB020A1ADAE41A70
:1081D00062EB0102C0E90442002413EB0E034CEBF6
:1081E0000101C8E90031C9F8004001F0EAFB21466D
:1081F000FEF782F985F31188BFF36F8FBDE8F04772
:10820000FFF7F2BE14EB0E024CEBE473C0E9046717
:10821000C8E90023FFF72AFF85F31188BFF36F8FAA
:1082200083689847EFF31185202383F31288BFF307
:108230006F8FD9F800301B1BC9F80030FFF704FF1F
:10824000B9E700BFC8A0022FF89D022F10B5EFF3C9
:108250001184202383F31288BFF36F8FFFF7FCFE96
:108260000346054AD2E90001181841EBE37184F393
:108270001188BFF36F8F10BDF89D022FF8B504462B
:10828000EFF31187202383F31288BFF36F8F026807
:1082900022B187F31188BFF36F8FF8BDD0E90A369A
:1082A000581C46F10001022871F1000127D3012B6F
:1082B00076F10001BCBF012316465D1E46F1FF3674
:1082C00001F0CCFB013041F10001401946EB010106
:1082D000012871F100013ADB01F0C0FB013041F1EE
:1082E00000016FF00102401946EB01034FF0FF312E
:1082F000121A61EB030320461749FFF7D3FE236BE5
:1083000001332363236A6BB187F31188BFF36F8F47
:108310002046236A9847EFF31187202383F31288BE
:10832000BFF36F8F54F8185FA542B2D0002DB0D0C4
:10833000284601F0ADFA0023C5F8883087F311888C
:10834000BFF36F8F2846BDE8F84001F092BA6FF096
:1083500001024FF0FF33CEE77D68022F2DE9F04197
:1083600005461C4690461F46EFF31186202383F3F3
:108370001288BFF36F8FB4F1FF3F08BFB2F1FF3F28
:1083800005D186F31188BFF36F8FBDE8F081531CD0
:1083900074F1FF3309DB012A74F10003BCBF012231
:1083A000002412F1FF3844F1FF37284601F022FB88
:1083B000DDE906010023C5E90A012B6342463B467D
:1083C00028460249FFF76EFEDBE700BF7D68022FFB
:1083D0002DE9F743002600F10C080096EFF3118910
:1083E000202484F31288BFF36F8F8568694005EA03
:1083F00002070A4055400C496A468560019501F024
:10840000BEFA009C44B12046C4F88860656600212D
:10841000246E01F04EFAF5E740464946FFF7BCFBF3
:10842000384603B0BDE8F083E380022F014801F035
:1084300005B900BF00093D0038B5064C064DAC42F9
:1084400001D3002038BD2046D4E9011201F068FBB9
:108450001434F4E7D099022FD099022F1FB5094A9E
:1084600002AB92E803004FF4806283E803000093BC
:1084700005494FF0FF330548FFF78EF9002005B09E
:108480005DF804FBB092022F18B7022F009E022F56
:10849000704708B5002147F6122001F031FAF9E7DC
:1084A00000EBC100408840087047F8B50346FFF76D
:1084B000F7FFB0FA80F0C0F11F0003EB800CDCF88E
:1084C0001060CA00171D0C4606328DB256B9012144
:1084D00001FA00F0D9680143D960CCF81040DD53AF
:1084E0009D52F8BDF1000431585AD85303EBC00037
:1084F0009E52C5805D52F4E7043A2DE9F041CC1D4F
:10850000114424F0070421F007010E1BF708B7FA05
:1085100087F24FF00008C2F12405AD000735C2F123
:108520002002ED0804604146A760C4F80C80920068
:1085300004F1100001F037FB6B0043F0010363808E
:108540007B1B04EBC5025900A4F800805180A219DE
:1085500024F83550A2F80280A35304EBC7035A88CD
:10856000294642F001025A802046BDE8F041FFF75B
:108570009CBF08B5EFF31183202383F31288BFF368
:108580006F8FFDF783F900F060FFFCE7013A01F01F
:108590001F030A4430B54C090121550902F01F029E
:1085A000C26001FA02F2836001FA03F3511E5B42DA
:1085B0000A43AC42036108BF134004604560426156
:1085C00008BF036130BDF0B587B004460C981D4666
:1085D00010B96846FFF7DAFF01684768A368B94237
:1085E00053F82120066908D125B1324343F82120F0
:1085F00007B0F0BD22EA0602F8E7B5B1324343F80E
:1086000021204168A268456952F821302B4342F885
:1086100021304FF0FF310368013342689A42E7D9B5
:10862000A26842F823100133F7E722EA060243F872
:108630002120A2684168466952F8213023EA0603E6
:1086400042F821300268436801329342D0D9A368CE
:1086500043F82250F7E7F8B50646DDE906051C4663
:10866000FFF794FFD0E900139942B66802690BD175
:1086700056F8213004B9DB4332EA030023D022EA62
:10868000030215BB0020F8BD56F8217004B9FF4362
:1086900032EA070C02D022EA0702F2E756F823700A
:1086A00004B9FF43426932EA070009D0194622EAB9
:1086B0000702E6E756F8212004B1D243002AE0D1B0
:1086C00001318B42F6D80120DDE792FAA2F3002AAD
:1086D000B3FA83F308BF4FF0FF3303EB41132B6072
:1086E000D0E730B5EFF31185202383F31288BFF371
:1086F0006F8F03688B4210D9012280684C0950F8B3
:10870000243001F01F018A40134340F82430002038
:1087100085F31188BFF36F8F30BD6FF01500F7E759
:1087200030B5EFF31185202383F31288BFF36F8FE9
:1087300003688B4211D9012280684C0950F824301B
:1087400001F01F018A4023EA020340F82430002090
:1087500085F31188BFF36F8F30BD6FF01500F7E719
:1087600030B5EFF31184202383F31288BFF36F8FAA
:1087700092B103688B420FD9836800204D0953F8EA
:10878000253001F01F01CB4003F00103136084F397
:108790001188BFF36F8F30BD6FF01500F7E730B56C
:1087A000EFF31184202383F31288BFF36F8FD2B1CC
:1087B00003688B4217D9836801F01F05490953F8F4
:1087C0002130EB4003F00103136001228068AA40CE
:1087D00050F82130134340F82130002084F31188F1
:1087E000BFF36F8F30BD6FF01500F7E72DE9F04F45
:1087F00005460E4690468BB0EFF31189202383F394
:108800001288BFF36F8F002A3FD000293DD0016846
:10881000B1423AD30022406890424FEA42140DD050
:10882000AB6853F822305F1C01D10132F4E72BB161
:10883000DB4393FAA3F3B3FA83F31C44A1EB060AD8
:108840000DF10C0B04AF544502D96FF01B0012E080
:108850000023324621462846CDE9007BFFF7FBFE88
:1088600080B128460123324621460097FFF7ABFE30
:108870000020C8F8004089F31188BFF36F8F0BB058
:10888000BDE8F08F039C0134DDE76FF01500F2E7DF
:108890002DE9F0434B1E80460D46164689B0134421
:1088A000EFF31189202282F31288BFF36F8FF9B1A1
:1088B00002688A421CD3B2421AD99A4218D90024BB
:1088C00002AF0A460123314601940097FFF7C3FE29
:1088D00088B1404623462A4631460097FFF773FE8B
:1088E000204689F31188BFF36F8F09B0BDE8F0838C
:1088F0006FF01500F5E76FF00D00F2E738B50C46A4
:10890000054658B151B10B6843B14B6833B11C22D5
:10891000002101F048F900202C6138BD6FF01500EE
:10892000FBE7704720B183682BB11B6833B1184750
:108930006FF0150070476FF00400704718467047DD
:1089400030B450B149B142B1846854B1E56845B121
:1089500041F8040BE36830BC18476FF0150030BCD9
:1089600070476FF00400FAE730B41346044650B184
:10897000006860B182686AB195685DB10A46AC462C
:10898000616830BC60476FF0150030BC70476FF015
:108990000100FAE76FF00400F7E700207047016973
:1089A000406800F02BBB034610B40C461969002345
:1089B00040682360936910BC0832FCF7D9BB016999
:1089C000406800F050BB01230831D1E8EF2F002AA6
:1089D00003D1C1E8E03F0028F7D114BF6FF01500C4
:1089E000002070474368D3E90903584304387047AF
:1089F0002DE9F8439846836804468B42174602D80F
:108A00000020BDE8F8834368D0F8009003FB01F62E
:108A100009EB0605FAB1B8F1000F05D0042128468C
:108A2000FDF712FCBFF35B8FD4E901305843226895
:108A300059F80610024404388842E1D30B1D2B4438
:108A40009A42DDD33960B8F1000F04D0281DFDF73C
:108A5000FBFBBFF35B8F281DD3E738B50468436881
:108A60000C1BB4FBF3F40D4600232146FFF7C0FFB7
:108A700028B185420CBF20466FF0150038BD6FF05D
:108A80001500FBE710B54468114604F114000022FC
:108A9000FFF7E3FF0146206BBDE81040FFF721BE62
:108AA0002DE9F04F814685B00E9B59F8685B0C6844
:108AB00000936B6A03341C4406460F46B4FBF3F480
:108AC0004FF00008DDF83CB001922146E86A02AAA6
:108AD000FFF78CFE10F11C0F82460ED1009B53EA6B
:108AE0000B034AD05B464846009AFEF729FDB0F1D9
:108AF000000A33DB4FF00108E7E7B8F1000F06D1B9
:108B0000BAF1000F08DA1AF1160F32D12FE006F190
:108B10006800FEF7E1FCF3E73B687BB9029C039336
:108B2000AB6A01349C4207D22146E86A03AAFFF7E8
:108B300036FE039B002BF3D0029BE41A6B6A5C4366
:108B4000043C3C606A6A029B296A5343CC50CA18B1
:108B5000019B0432DDF808A01A600AE0B8F1000FAA
:108B600002D04846FEF7B8FC1AF11C0FCBD16FF0CB
:108B70000B0A504605B0BDE8F08FB8F1000FF6D0F3
:108B800006F16800FEF7A8FCF1E737B5DDE9064518
:108B9000CDE9004519460069FFF782FF00EAE07061
:108BA00003B030BDFEF748BC73B50446054654F823
:108BB000446B8DF804108DF805208DF806304FF0C9
:108BC000FF324FF0FF332046FEF7BEFB291D032383
:108BD00001AA304600F047FA05462046FFF7E2FFBB
:108BE000284602B070BDD0B5044600681646143061
:108BF00000221F46FFF731FF031E07DB3A463146CE
:108C00002046BDE8D040DBB2FFF7CEBFD0BD114655
:108C1000002301220069FFF7E6BFF8B507680646A2
:108C2000786A03320244002B0D46B2FBF0F116DBEA
:108C3000DC1C0444B4FBF0F4A14212D368433A6A4A
:108C4000091B13502A1941B1F86AFFF721FE0028C9
:108C500004DB06F16800FEF73FFC2846F8BD2A4613
:108C6000F1E76FF01500F9E7002337B50446006817
:108C70001546203001AA0193FFF7EFFE011E07DB26
:108C80002B462046019A03B0BDE83040FFF7C5BF30
:108C900003B030BD08B5114600694FF0FF32FFF751
:108CA000E3FF00EAE07008BD2DE9F0411D46904663
:108CB0000268069F536A126A6B43D75004460E46F9
:108CC000BFF35B8FD018391DFDF7B0FA314642462D
:108CD0002046EBB2FFF768FF061E06DA4FF0FF33BF
:108CE0003A4629462046FFF798FF3046BDE8F08116
:108CF0002DE9F3411646076988461A46314638463B
:108D00001D46FFF7B1FF041E09DA4FF0FF3231466E
:108D10003846FFF7A9FF204602B0BDE8F081009574
:108D200023460021384698F80C20FFF7BDFF044683
:108D3000F1E72DE9FF411746029300221D4600236B
:108D4000D0F810800E46CDE90023404603AA02A9C0
:108D5000FFF7A6FE041E0FDB2A463946039800F0F3
:108D600015FF0095234600214046327BFFF79CFF0C
:108D700010EA200438BF2C46204604B0BDE8F0813C
:108D800037B504460068002301AA20300D46FFF7DE
:108D90002FFE48B14FF0FF3329462046019A03B019
:108DA000BDE83040FFF739BF6FF0150003B030BDAC
:108DB0002DE9F04F044689B000F16C03D3E8AF3FD2
:108DC000002B5BDA90F87050A0F1580A002D58D0B3
:108DD0004FF0020B4FF0FF364FF0FF3700F1240544
:108DE00000F16409D5E8EF3F012B03D1C5E8E2BFEC
:108DF000002AF7D129D155F8043C1868FBF7F0FD9B
:108E0000CDE9006700F1010807AA504606A9CDF890
:108E10001880FFF745FE031E03930FDB55F8042C63
:108E200007981168FBF7D4FD2A7A02215046039B6C
:108E3000CDF80080FFF738FF002806DA0023D5E8D8
:108E4000EF2FC5E8E13F0029F9D110354D45C9D1D3
:108E5000002604F128056834D5E8EF3F022B03D142
:108E6000C5E8E26F002AF7D105D155F8082C9368C0
:108E70000BB1906998471035A542EDD109B0BDE816
:108E8000F08FA0F114084FF0030B4FF0FF334FF0B9
:108E9000FF324046FEF758FA04F1600304F162091C
:108EA00003934FF6FF7239F8023F934241D0404698
:108EB000FFF778FE54F8583CB9F80060D3E9051282
:108EC000DB6902FB061603FB02110436891B3046E0
:108ED000013900F04FFE0027421C04F12403D3E8BF
:108EE000AF1F01292CD153F8040C31460068CDE99D
:108EF000042300F02DFEDDE9042308BB04EB071179
:108F0000EAB281F82C2003994F55D3E8EF1F0129CD
:108F100003D1C3E8E0BF0028F7D11ED04FF0FF33E4
:108F20004FF0FF324046FEF70FFA4FF6FF73A9F8F5
:108F300000300135042DB4D14046FFF733FE87E7FA
:108F40000137042F03F11003C9D14FF0FF324FF066
:108F5000FF334046FEF7F8F9EBE704EB0717396AF1
:108F60008B681BB1886904929847049A134631466E
:108F700003225046FFF737FED0E7032970B50446B9
:108F800001D9002070BD014491F8B830032BF8D806
:108F90001D0105F17C020244D2E8AF1FC9B20329CA
:108FA00008D143198033D3E8AF3F002BE9D178359E
:108FB0006019E7E70229E4D10321D2E8EF0FC2E804
:108FC000E61F002EF9D104EB03139A6F9368002B70
:108FD000EDD090699847EAE70346D3E8EF0FC3E87E
:108FE000E21F002AF9D17047D0E9000183681B68AD
:108FF0000BB1002218476FF05700704770B5037C23
:109000000446012B0D4603D00021686800F0F5F9F5
:109010002046FFF7E9FF002105F13C00FFF7DCFFE8
:10902000C0B210B90023184670BDD4E902068368A7
:109030001B6913B96FF05703F5E70A4631469847A5
:1090400003460028EFD1D4E9020182685468002C5D
:10905000F0D01A46A04703460028E4D105F12800C5
:1090600000F0AFFBDEE72DE9F04106460D4617465E
:109070001C4601F13C03D3E8AF3F042B03DC20D1B5
:109080002046BDE8F081FCB101F108082022002350
:109090004046FEF759F9002819DB39462868A2B284
:1090A00000F07CF805464046FEF7C6F9002D06DBC9
:1090B000A5420FD33046FFF797FF0028E1D128469D
:1090C000DFE76FF00F00DCE76FF03C00D9E76FF0EF
:1090D0006800D6E76FF04C00D3E770B568B303685B
:1090E0005BB382684AB345693DB3C168042938BFA0
:1090F0000421B3FBF1F401FB1434F4B9B2FBF1F435
:1091000001FB1424CCB9446845EA0406B60714D11F
:1091100000690B2811D986070FD193420DD21CB1DB
:10912000A3420AD2A24208D9AA4206D20B449A42CA
:109130000CBF00206FF0150070BD6FF01500FBE74D
:1091400070B5066804463046FFF7C7FF0546B0B95C
:109150006060A060B36862681A602368A2681B68D8
:109160001A60BFF35B8F236898680421FDF75EF8EF
:10917000236818680421FDF759F8284670BD6FF080
:109180001505FAE710B504460068FFF7A6FF10B909
:109190006060A06010BD6FF01500FBE72DE9F84F8F
:1091A00089461446074618B96FF01500BDE8F88FD8
:1091B000002AF9D00029F7D0036818680421FDF7C8
:1091C00043F8BFF35B8F3B68D3E9048A1B681B68D5
:1091D0007D689A07E8D1AB4286BF08EB0502D31A37
:1091E000EB1AA8F10402D31A221D934248D300239C
:1091F0000AEB05004AF80530230A0AF805304470E6
:10920000BFF35B8F04210435FDF710F8454524BFFB
:10921000B5FBF8F308FB1355A8EB0506A64228BFDB
:1092200026460AEB050332464946184600F0AEFCD6
:109230003146FCF7FBFFB4420BD9A4EB060B5A46B0
:10924000504609EB060100F0A1FC59465046FCF7D8
:10925000EDFFE31C2B4423F00303434524BFB3FB82
:10926000F8F208FB12333A687B6092681360BFF330
:109270005B8F3B6898680421FCF7D8FF204695E790
:109280006FF00B0092E72DE9F0410E4617460446B9
:1092900018B96FF01500BDE8F0818568002DF8D190
:1092A000036898680421FCF7CFFFBFF35B8F236846
:1092B0009A68D2F800801A694245EAD94FF6FE72E0
:1092C00008F1FF319142E4D858690421FCF7BCFF52
:1092D000BFF35B8F2368586903885BBA99B20A1D94
:1092E0004245D6D8043030603B803068FCF7ACFF94
:1092F000BFF35B8F2846CEE72DE9F84F89469346AA
:10930000064620B96FF015042046BDE8F88F0368C3
:1093100098680421FCF798FFBFF35B8F3368D3E9AB
:10932000048A9B681F68B56817F00304EAD1AF424E
:10933000EAD00AEB05000421FCF786FF3AF8054065
:1093400064BAA4B2B9F1000FDED0A34544D3AF4252
:109350003ABFA8EB0503FF187F1B231DBB423ED875
:109360000435454524BFB5FBF8F308FB1355A8EBBE
:109370000507A74228BF27460AEB050B3946584682
:10938000FCF762FF3A465946484600F0FFFBBC42F4
:109390000CD9A4EB070B59465046FCF755FF336830
:1093A0005A46596909EB070000F0F0FBE31C2B4417
:1093B00023F00303434524BFB3FBF8F208FB123349
:1093C0003268B36012681360BFF35B8F336818684C
:1093D0000421FCF72BFF97E76FF00B0494E76FF085
:1093E0000A0491E710B503685C6804212046FCF785
:1093F0002BFFBFF35B8F206810BD036858680160C6
:10940000BFF35B8F0421FCF711BF012801D1EFF3FB
:109410000583FDF783BD01460068FFF7F6BF08B579
:10942000FCF784F8BDE80840FCF7A4B8002101204F
:10943000FFF7EBBF036F83F30B88704761B662B62B
:1094400080F31188BFF36F8F704772B6002383F3E8
:109450001188BFF36F8FBFF34F8F30BF62B6BFF37A
:109460006F8F7047002383F31188BFF36F8F7047AE
:109470007047002203680BB9184670478B4210D121
:109480000B6842B942680360914200D143600023F7
:1094900001200B60704713604368994208BF426027
:1094A000F5E71A461B68E6E7C2680369511E0B44DC
:1094B000B3FBF2F302FB03F0704738B5D0E9005478
:1094C000FFF7F2FF2C44201A38BD30B5D0F8045411
:1094D0009DF80C40ED0736D584B9012936D0D0F877
:1094E0000034DA07FBD4012331B9C360D0F800346B
:1094F000DB07FBD4002030BD0361F7E74AB343B379
:1095000042F080542344012422F01F0242F0805292
:10951000D0F80054ED07FBD40129C0F810240ED078
:1095200002290ED08461D0F81054AA42F0D1203222
:109530009342EDD8D0F80034DB07FBD4DAE7416181
:10954000F1E7C461EFE76FF00A00D4E76FF0850040
:10955000D1E76FF01500CEE7002070474368187A16
:1095600070471F29034610460BD85A685368CB40F2
:10957000DB0706D540B9136801228900C9B25A50E9
:1095800070476FF0150070476FF07900704720202A
:1095900070471F29436807D84AB901201B68890012
:1095A000C9B25850104670476FF0150070476FF001
:1095B00079007047002070472020704770470047AF
:1095C00000F03CB870477047704770477047436B76
:1095D0001878FDF7EFBA002307B5002200930023A7
:1095E000FDF722FC03B05DF804FB002008B5FEF790
:1095F000C0FF08B50AB1FFF7F8FF08BD10B5202974
:109600000C468AB016D85C23ADF80610ADF80430CD
:1096100050B10A46014602A800F0B8FA214602A855
:10962000FDF74CFA0AB010BD024601460420FFF7D0
:10963000E0FFF7E7012200211046F8E708B1FCF748
:10964000D5BA7047EFF31183202383F31288BFF359
:109650006F8FFEE708B5FFF7F5FF10B5D0E90034CE
:1096600033B90020E268537843F00103537010BD12
:10967000204698470028F4D00028B8BF4042FF2871
:10968000A8BFFF20E3681870ECE700F08CBA7047C1
:10969000D0E9003213605A600023427BC0E90033F6
:1096A00022F0020242738360704790F90E308B42C1
:1096B00001D0FEF721BA0020704703460020C3E91D
:1096C0000033C3E9020070473AB18A4205D3C0E9CA
:1096D0000212C0E90000002070476FF015007047CB
:1096E000012302688B4022EA0303036022FA01F09F
:1096F00000F00100704720B100229830114600F0C0
:109700001BB9704770B5C3680446C3F340069B0796
:1097100016D4856802210C30FFF7E2FF80B1D5F83E
:1097200090206AB194421DD122689EB9D5F8943038
:10973000C5F890209C4201D1C5F8942000232360F5
:10974000E36813F01F001EBF43F00203E36040F024
:10975000020070BD3260D5F89420944208BFC5F86D
:109760009460EBE716461268DBE738B504460D4611
:109770001022002100F017FA656038BD13B5019082
:109780000846EFF31184202383F31288BFF36F8F11
:1097900001A9FDF7A1FF84F31188BFF36F8F02B019
:1097A00010BD10B5FFF7EAFF041E08DDEFF31180CE
:1097B000202383F31288BFF36F8FFEF7FFF9204653
:1097C00010BD10B5EFF31184202383F31288BFF38B
:1097D0006F8FFFF797FF84F31188BFF36F8F10BD72
:1097E00008B5B022002100F0DEF908BDEFF30580D6
:1097F000003818BF012070476FF057007047D0E95C
:10980000003213605A600023C0E90033704708B586
:10981000FFF7F5FF437B23F00203437300238360CC
:1098200008BD38B504460D46FEF7C8F8637B43F023
:1098300002036373E5B1A5602B689D4209D16B6893
:10984000C4E900531C606C6012E06A689A42F6D06A
:109850001B68002BF3D094F90E2093F90E108A4266
:10986000F3D09142F1DD5A68C4E9003214605C60C3
:1098700038BD10B5EFF31184202383F31288BFF3B2
:109880006F8FFEF759F884F31188BFF36F8F10BD07
:1098900008B5EFF31181202282F31288BFF36F8F96
:1098A00083680BB1FFF7B3FF81F31188BFF36F8FAC
:1098B00008BD38B5EFF31184202383F31288BFF37A
:1098C0006F8F002390F86C50427B80F86C302DB184
:1098D00021B184F31188BFF36F8F38BD12F0280FC8
:1098E000F7D183680BB1FFF792FF437B23F00403AA
:1098F0004373FEF721F8ECE701211838FFF7D9BFD1
:1099000070B506460D46FEF701FAB5F1FF3F08BFF8
:10991000B6F1FF3F04460CD04FF47A7547F611209C
:10992000002147F612220023C4FB0501FBF736F89D
:1099300070BD4FF0FF30FBE738B5EFF31185202302
:1099400083F31288BFF36F8F0468A04213D0A4B1D1
:10995000C4F8881062612046FFF759FF04F118002F
:1099600000F048F82046FDF7E7FF012085F3118855
:10997000BFF36F8F38BD0020F8E72046F6E72DE9EA
:10998000F04105460E461746EFF31188202383F376
:109990001288BFF36F8F0468A0420FD1002088F3B4
:1099A0001188BFF36F8FBDE8F08139462046B0477C
:1099B0000028F4D16B68A342F0D02468002CF4D1C5
:1099C000ECE710B5FEF740FB0446FEF745FB74B12B
:1099D000D4E904321B1A62EBE072B3F1004F72F16A
:1099E000000104DA002AACBF1846002010BD6FF059
:1099F0000040FBE7024638B5EFF31185202383F3DF
:109A00001288BFF36F8F036893B1FEF71DFB044606
:109A10001046FEF72BFB844204D1FFF7D2FF002152
:109A2000FCF76AFD002085F31188BFF36F8F38BD06
:109A30006FF01500F7E710B5EFF31184202383F3DF
:109A40001288BFF36F8FFFF7BCFF84F31188BFF359
:109A50006F8F10BD08B5FEF7F9FB08BDFEF7F6BB2A
:109A60002DE9F3470646DDE90A9817460C46E1B1B1
:109A700002F0010AFEF7AEF90546EFF3118120234B
:109A800083F31288BFF36F8FBB0744BF0023B3601B
:109A9000B36803EA0402BAF1000F0AD094420AD173
:109AA00081F31188BFF36F8F1C40204602B0BDE8E0
:109AB000F087002AF4D159EA080305D181F311880F
:109AC000BFF36F8F0023EFE7C5E919473246CDE9B1
:109AD000009806F10C00FDF7E3FF0028F2D16B6E51
:109AE000E2E710B5846E426E4B68E40703EA0203B6
:109AF0000BD59A420BD1012380F86C300B680366BA
:109B000008601830FFF776FF01E0002BF3D100204A
:109B100010BD0A46FEF75CBC5200FFF7A1BF7047BC
:109B200010B400F10C04C0E9034410BCFEF7E4BC1F
:109B30000139024410B5904201D1002005E00378BC
:109B400011F8014FA34201D0181B10BD0130F2E7FC
:109B500010B56AB10139841810F8012B11F8013FD2
:109B60009A4203D1A04201D0002AF5D1D01A10BDEB
:109B70001046FCE70246014410B58A42134603D062
:109B80001C780132002CF8D1181A10BD0A44431E6B
:109B9000914200D1704710B511F8014B914203F882
:109BA000014FF9D110BD02440346934200D17047E2
:109BB00003F8011BF9E70000014800687047000046
:109BC000E09E022F2DE9F05F04461349EFF308826F
:109BD0000A60EFF309824A60EFF310828A60EFF3C4
:109BE0000A828A61EFF30B82CA61EFF313820A6182
:109BF000EFF311824A61EFF31482CA607146FFF7F6
:109C000037FC8E46A04704467146FCF70DF98E4698
:109C10002046BDE8F05F704718BB022F7146FCF785
:109C200003F98E46012800D070470F48016881F380
:109C30000888416881F30988816881F31088816907
:109C400081F30A88C16981F30B88016981F3138864
:109C5000416981F31188C16881F31488BFF36F8F64
:109C6000BDE8F05F0020704718BB022F64ADFF7F96
:109C7000010000005944022F00000000396A022F41
:109C8000000000002941022F00000000854A022F39
:109C9000000000000541022F00000000000000004D
:109CA0003083022FF149022F0883022F00000000A9
:109CB000F482022F000000001C83022FFD34022FCB
:109CC000000000005D6A022F000000009B6F022F61
:109CD0005883022F9B6F022F4483022FD532022F0D
:109CE0006C83022FCD54022F00000000ED45022F9F
:109CF000000000006795022F5C94022F9092022FC3
:109D00008E99022F000000007695022F00000000BF
:109D10006892022F9099022F000000008495022F74
:109D20007894022F7C92022F9299022F000000005B
:109D30009295022F7C94022F7C92022F9499022FED
:109D4000000000001895022FF892022F5093022F66
:109D50008899022FDC95022F2195022F3C93022F28
:109D60005093022F8A99022F3496022F2995022FA1
:109D70008C93022FF093022F8C99022F8C96022F36
:109D8000000000002D7A022F000000002D7A022F23
:109D9000000000002D7A022F000000002D7A022F13
:109DA000000000002D7A022F000000002D7A022F03
:109DB000000000002D7A022F000000002D7A022FF3
:109DC000000000002D7A022F000000002D7A022FE3
:109DD000000000002D7A022F000000002D7A022FD3
:109DE000000000002D7A022F000000002D7A022FC3
:109DF000000000002D7A022F000000002D7A022FB3
:109E0000000000002D7A022F000000002D7A022FA2
:109E1000000000002D7A022F000000002D7A022F92
:109E2000000000002D7A022F000000002D7A022F82
:109E3000000000002D7A022F000000002D7A022F72
:109E4000000000002D7A022F000000002D7A022F62
:109E5000000000002D7A022F000000002D7A022F52
:109E6000000000002D7A022F000000002D7A022F42
:109E7000000000002D7A022F000000002D7A022F32
:109E8000000000002D7A022F000000002D7A022F22
:109E9000000000002D7A022F000000002D7A022F12
:109EA000000000002D7A022F000000002D7A022F02
:109EB000000000002D7A022F000000002D7A022FF2
:109EC000000000002D7A022F000000002D7A022FE2
:109ED000000000002D7A022F000000002D7A022FD2
:109EE000000000002D7A022F000000002D7A022FC2
:109EF000000000002D7A022F000000002D7A022FB2
:109F0000000000002D7A022F000000002D7A022FA1
:109F1000000000002D7A022F000000002D7A022F91
:109F2000000000002D7A022F000000002D7A022F81
:109F3000000000002D7A022F000000002D7A022F71
:109F4000000000002D7A022F000000002D7A022F61
:109F5000000000002D7A022F000000002D7A022F51
:109F6000000000002D7A022F000000002D7A022F41
:109F7000000000002D7A022F000000002D7A022F31
:109F8000000000002D7A022F000000002D7A022F21
:109F9000000000002D7A022F000000002D7A022F11
:109FA000000000002D7A022F000000002D7A022F01
:109FB000000000002D7A022F000000002D7A022FF1
:109FC000000000002D7A022F000000002D7A022FE1
:109FD000000000002D7A022F000000002D7A022FD1
:109FE000000000002D7A022F000000002D7A022FC1
:109FF000000000002D7A022F000000002D7A022FB1
:10A00000000000002D7A022F000000002D7A022FA0
:10A01000000000002D7A022F000000002D7A022F90
:10A02000000000002D7A022F000000002D7A022F80
:10A03000000000002D7A022F000000002D7A022F70
:10A04000000000002D7A022F000000002D7A022F60
:10A05000000000002D7A022F000000002D7A022F50
:10A06000000000002D7A022F000000002D7A022F40
:10A07000000000002D7A022F000000002D7A022F30
:10A08000000000008548022F000000002D7A022FFA
:10A09000000000002D7A022F000000002D7A022F10
:10A0A000000000002D7A022F000000002D7A022F00
:10A0B000000000002D7A022F000000002D7A022FF0
:10A0C000000000002D7A022F000000002D7A022FE0
:10A0D000000000002D7A022F000000002D7A022FD0
:10A0E000000000002D7A022F7D4D022FBF7B022F32
:10A0F000000000002D7A022F000000002D7A022FB0
:10A10000000000002D7A022F000000002D7A022F9F
:10A11000000000002D7A022F000000002D7A022F8F
:10A12000000000002D7A022F000000002D7A022F7F
:10A13000000000002D7A022F000000002D7A022F6F
:10A14000000000002D7A022F000000002D7A022F5F
:10A15000000000002D7A022F000000002D7A022F4F
:10A16000000000002D7A022F000000002D7A022F3F
:10A17000000000002D7A022F000000002D7A022F2F
:10A18000000000002D7A022F000000002D7A022F1F
:10A19000000000002D7A022F000000002D7A022F0F
:10A1A000000000002D7A022F000000002D7A022FFF
:10A1B000000000002D7A022F000000002D7A022FEF
:10A1C000000000002D7A022F000000002D7A022FDF
:10A1D000000000002D7A022F000000002D7A022FCF
:10A1E000000000002D7A022F000000002D7A022FBF
