:020000040000FA
:10C000003DB8F3960000012000020000D84900006E
:10C010002000000000000000000000000000000000
:10C020000000000000000000000000000000000010
:10C030000000000000000000000000000000000000
:10C0400000000000000000000000000000000000F0
:10C0500000000000000000000000000000000000E0
:10C0600000000000000000000000000000000000D0
:10C0700000000000000000000000000000000000C0
:10C0800000000000000000000000000000000000B0
:10C0900000000000000000000000000000000000A0
:10C0A0000000000000000000000000000000000090
:10C0B0000000000000000000000000000000000080
:10C0C0000000000000000000000000000000000070
:10C0D0000000000000000000000000000000000060
:10C0E0000000000000000000000000000000000050
:10C0F0000000000000000000000000000000000040
:10C10000000000000000000000000000000000002F
:10C11000000000000000000000000000000000001F
:10C12000000000000000000000000000000000000F
:10C1300000000000000000000000000000000000FF
:10C1400000000000000000000000000000000000EF
:10C1500000000000000000000000000000000000DF
:10C1600000000000000000000000000000000000CF
:10C1700000000000000000000000000000000000BF
:10C1800000000000000000000000000000000000AF
:10C19000000000000000000000000000000000009F
:10C1A000000000000000000000000000000000008F
:10C1B000000000000000000000000000000000007F
:10C1C000000000000000000000000000000000006F
:10C1D000000000000000000000000000000000005F
:10C1E000000000000000000000000000000000004F
:10C1F000000000000000000000000000000000003F
:10C20000905B0120A10801203F3B01208D08012007
:10C210008D0801208D0801208D08012000000000FC
:10C22000000000000000000000000000D50901200F
:10C230008D08012000000000810901208D080120E7
:10C24000290B0120290B0120290B0120290B01209A
:10C25000290B0120290B0120290B0120290B01208A
:10C26000290B0120290B0120290B0120290B01207A
:10C27000290B0120290B0120290B0120290B01206A
:10C28000290B0120290B0120290B0120290B01205A
:10C29000290B0120290B0120290B0120290B01204A
:10C2A000290B0120290B0120290B0120290B01203A
:10C2B000290B0120290B0120290B0120290B01202A
:10C2C000290B0120290B0120290B0120290B01201A
:10C2D000290B0120290B0120290B0120290B01200A
:10C2E000290B0120290B0120290B0120290B0120FA
:10C2F000290B0120290B0120290B0120290B0120EA
:10C3000008B50349034803F051F8002008BD00BFF9
:10C310007445012088450120014B1B68184700BF68
:10C32000284B0120014B1860704700BF284B0120AB
:10C3300030B585B004460D4610220021684603F052
:10C340007BFF02238DF802302A46044B01932146DD
:10C35000684603F03DF805B030BD00BF1903012069
:10C3600080B505460E461746984602F0D7FD0346AF
:10C3700003F06AFFDFF81890044649F8003042469F
:10C3800030463946A84754F8090000F0E3FA00BFE8
:10C39000080000002DE9F047058B04462807904669
:10C3A00011D4022905F0070540F0CC80204603F0A7
:10C3B000E4FA78B10138218B042811D8DFE800F0C5
:10C3C000C2106D85950001290CBF45F0100545F0A0
:10C3D0002005258388F31188BFF36F8FBDE8F087B0
:10C3E00001F0070AAA4500F0A5800027B9463E469D
:10C3F000A368002B00F0BC8041F00801218388F382
:10C400001188BFF36F8FA168002900F0BA800D6812
:10C41000002900F0B680D1F8048033465246204609
:10C42000C047002D76D02B6829461D46F0E701F065
:10C4300007035A1F012A1BD8002221F00701062BEF
:10C44000276889B2C4E9002209D13B4603E0628B28
:10C45000013262831B68002BF9D141F00201218374
:10C46000204603F08AFA00287AD041F0200176E0D5
:10C47000042B0AD121F0070189B22183204603F061
:10C480007CFA10B141F020012183218B01F0070AD1
:10C49000AA454FD00027B946AAE7236921F0070132
:10C4A00041F00601062DD3F8009021832DD1B9F17A
:10C4B000000F3FD041F00801218388F31188BFF3BA
:10C4C0006F8F3A492046C84729E021F007012369C8
:10C4D00041F0040189B2042DD3F804902183E6D001
:10C4E00000273E464FF0040A82E721F00701236946
:10C4F00041F0050189B2052DD3F808902183D6D0EB
:10C5000000273E464FF0050A72E700273E464FF0EF
:10C51000060A6DE72B4687E7B9F1000FD1D1EFF39B
:10C520001188202383F31288BFF36F8F238B23F0AE
:10C5300008032383258BEA062ED525F010032383D9
:10C5400005F007056669218B002EBFF670AF00234A
:10C550002768C4E9003321F0070141F0010121837C
:10C56000218B01F0070AAA454FF000097FF440AF84
:10C57000002F9CD041F00801218388F31188BFF37C
:10C580006F8F002FC8D03D6839463346524620464B
:10C5900003F01FFA2F46F4E7AB067FF51BAF25F03B
:10C5A0002003238305F0070500E700BFFF390120C2
:10C5B00030BFFFF7FDBF00BF2DE9F0410B4EDFF8A4
:10C5C000308006EB0807CC1B054632460949204659
:10C5D00003F024FEA01942460021083C03F02CFE83
:10C5E0006C6607F10800BDE8F08100BF00000000A4
:10C5F00004000000B8440120054B5A699B689A4228
:10C600001FBF044A536843F080535360704700BF14
:10C610001C4E012000ED00E0134B9A6A12F0007FDF
:10C620009A6A14BF1E201D2012F0807F9A6A18BFDC
:10C630001F2012F4002F9A6A18BF212012F4802FB5
:10C640009A6A18BF222012F4003F9A6A18BF23206A
:10C6500012F4803F9A6A6FEA02426FEA12429A62CB
:10C6600018BF2420704700BF00ED00E010B5194B43
:10C670000246986A9C6A10F4805F14BF1720162047
:10C6800014F4006F9C6A18BF1820A40509D5986B94
:10C69000986A000404D51AB19A6A22F400429A6298
:10C6A00019200C4B9A6A12F4806F9A6A18BF1A20EC
:10C6B000D2050CD49B6A13F4005F18BF1C20054AF6
:10C6C000936A43F47F43936200230B7010BD1B20D9
:10C6D000F5E700BF00ED00E010B51C4B0246986A7C
:10C6E0009C6A10F0100F14BF1120102014F0080FD6
:10C6F0009C6A18BF1220A40709D5586B986A0006D7
:10C7000004D51AB19A6A22F080029A6213200F4B64
:10C710009A6A12F0010F9A6A18BF142012F0200FC3
:10C720009A6A18BF1520D40658BF9B6A074B9A6AAD
:10C73000920642BF5A6A22F400525A629A6A42F042
:10C74000FF029A6200230B7010BD00BF00ED00E0F5
:10C75000F0B5474B5B688BB00446C3F30803002574
:10C7600085F31188BFF36F8F02F07F40B0F17F4FE8
:10C7700011D102F00C0008280DD010074CBF0C4658
:10C7800001250022033B8DF80720032B05D8DFE8A5
:10C7900003F02462665F2C46F3E700239DF8072030
:10C7A000CAB902AE04F1200720686168324603C2AC
:10C7B0000834BC421646F7D1099A002D53D0C2F373
:10C7C000080121B96FEA52226FEA4222099202A9B6
:10C7D000184603F0AAF90BB0F0BD254BDA6A9107B1
:10C7E000DBD4DA6A002AD8DBDA6A5200D5D55A6976
:10C7F000A16942F480725A61BFF34F8FBFF36F8F0C
:10C800005A6931F8021C22F480725A61BFF34F8FCB
:10C81000BFF36F8F4DF60272914209D09A6AD2B27D
:10C8200042B10DF107010120FFF756FF0346B5E7BE
:10C830002368B3E79A6A12F47F4F05D00DF1070120
:10C840000120FFF713FFF1E79B6AB3F5803FA4D304
:10C85000FFF7E2FEEAE70DF107010020E4E70DF142
:10C8600007010020EDE722F4FF7222F00102ADE79C
:10C8700000ED00E0044B5A6942F010025A615A6917
:10C8800022F008025A61704700ED00E0EFF30880E3
:10C89000EFF3098101B57246FFF75AFF01BD00BFF2
:10C8A000002080F31488BFF36F8F01F0D5F80020CB
:10C8B0000D490860BFF34F8F0C4880F3088800F0E3
:10C8C00019F8202080F3118809484FF400614018BE
:10C8D00080F30988EFF314800221084380F3148861
:10C8E000BFF36F8F00F0BCF894ED00E0905B012087
:10C8F000504E012072B6002383F31388144B4FF07F
:10C90000FF32C3F88020C3F88420C3F88820C3F81E
:10C910008C20C3F89020C3F89420C3F89820C3F863
:10C920009C20C3F88021C3F88421C3F88821C3F870
:10C930008C21C3F89021C3F89421C3F89821C3F83F
:10C940009C2162B6BFF34F8FBFF36F8F704700BF5C
:10C9500000E100E0084B9B6883420BD1EFF30583B5
:10C9600043B1064B5A6842F080525A605A6A22F428
:10C9700000425A6202F0D8BA1C4E012000ED00E0DD
:10C9800011498A684FF030001044EFF3098C80E8B9
:10C99000F01F202080F31288BFF36F8F0B4F4FF0F2
:10C9A00000664A698A603E60506E094C2060906E55
:10C9B0000023936680F3118802F1300090E8F01FA5
:10C9C0008CF30988704700001C4E012004ED00E044
:10C9D000684D01201EF0040F0CBFEFF30880EFF349
:10C9E0000980816911F8021C0229FFD001B5724645
:10C9F00003F0A1F801BD00BF40B2002807DB044AE4
:10CA00004109012300F01F00834042F821307047A4
:10CA100000E100E0054B420900F01F0053F822201E
:10CA2000012303FA00F01040704700BF00E100E06E
:10CA300040B20028A8BF00F1604001F10101B8BF79
:10CA4000064B4FEA4111ACBF00F5614000F00F000A
:10CA5000C9B2B4BF195480F80013704714ED00E058
:10CA60000A4A08B50A4B22F07F029A60BFF34F8F43
:10CA7000BFF36F8FD3F8882022F47002C3F88820A8
:10CA800001F0F6FE00F044F801F032FF0002012050
:10CA900000ED00E042F8203C009B42F81C3C0A49B3
:10CAA000019B42F8183C029B42F8143C21F0010122
:10CAB0004FF0807342F8043C42F8081C0023203AEF
:10CAC00002658366704700BF6103012000B5094B12
:10CAD0009860094B1546426E1A600E462C4686F346
:10CAE00009880020054B984720460021002200239A
:10CAF000034C20471C4E0120684D0120553B01206E
:10CB000061030120014B10221A61704700ED00E023
:10CB1000044800232021C2180133302B82F800136F
:10CB2000F9D1704700E100E008B5EFF30583064A4C
:10CB3000103B02EBC30152F8330049688847BDE857
:10CB40000840FFF759BD00BFEC42012008B5024B79
:10CB50001B689847002008BD6C4D0120034B044A18
:10CB60001860937843F00203937070476C4D012076
:10CB70002C4B012008B50649064821F00701C1F1F8
:10CB8000005202F5003202F0ACFE002008BD00BFEA
:10CB9000975B0120704D01200E4A0123C2F84035F9
:10CBA0004FF080424FF08051C2F87835D1F8300113
:10CBB000082808D1D1F83411052904D80648415C69
:10CBC00009B1C2F838364FF080430122C3F88025FE
:10CBD0000020704700E001409945012020B1034B3F
:10CBE000800143F001031847704700BFC044012093
:10CBF000084B70B5C31A0D4607499B1004465943AC
:10CC00000648402202F0D7FF2B4601462046BDE8E9
:10CC100070401847904D0120B76DDBB69C42012053
:10CC200073B50C4C0C4A4023041B00930D460B4675
:10CC30000A49A41061430646094802F0E8FF011EB4
:10CC400005DA30462B4602B0BDE87040184702B006
:10CC500070BD00BF904D0120793C0120B76DDBB65F
:10CC60009C42012010B5EFF31184202383F3128836
:10CC7000BFF36F8F074A136823F00201DB071160CF
:10CC800002D4012003F0D8F884F31188BFF36F8F2A
:10CC900010BD00BFE04D0120002270B50121044607
:10CCA0001046FFF7C5FE0F4801F060F80E4B9842A2
:10CCB00015D101F06BF826690C49304602F0ACFE44
:10CCC00000280BDB012535642469084904F11C00A8
:10CCD00002F0A2FE002801DBE564002070BD6FF0C9
:10CCE0000400FBE7E90D01200000AD0BCC4401205E
:10CCF0001FB500220123CDE90223094ACDF800D057
:10CD00006B46CDF804D002F0B0FF002805DB4FF4ED
:10CD100080420023684601F083FE05B05DF804FB05
:10CD2000973C012030B4104B0C2202FB003301462B
:10CD30000020D3E90E529863EFF31180202484F38E
:10CD40001288BFF36F8F1C6C04F0C00444F002041F
:10CD50001C6480F31188BFF36F8F1DB12B4603480D
:10CD600030BC184730BC7047904D01209C420120D8
:10CD700010B4EFF31182202383F31288BFF36F8F77
:10CD80001748016841F002040460C80707D482F321
:10CD90001188BFF36F8F012010BC01F009B84FF06C
:10CDA0008041D1F80C04D1F80C14C907EFD5EFF38A
:10CDB000118083F31288BFF36F8F0A490B6C03F065
:10CDC000C00343F002030B6480F31188BFF36F8F3D
:10CDD00082F31188BFF36F8F002010BCFFF7A2BF52
:10CDE000E04D0120904D012010B1012804D0704782
:10CDF000034B1B6C5B0701D1FFF794BF704700BF6B
:10CE0000904D01202DE9F0413849BFF35B8F074673
:10CE1000012251E8003F41E800200028F9D1BFF38A
:10CE20005B8F33B9324933484B60CB608A6002F084
:10CE300006FE7B1E012B2BD8012F07D14FF080431C
:10CE4000D3F81C3403F00303012B21D003F0BCF80A
:10CE50000546F8B9284B1B78E3B14FF08043022216
:10CE6000C3F808230646DFF894804FF08044D4F8D6
:10CE70001824D4F81834D20315D503F00303012B7A
:10CE800001D0012F0FD155B386F31188BFF36F8FF7
:10CE9000BDE8F081EFF31186202383F31288BFF3FE
:10CEA0006F8F0125DFE7ADB1304602F067FED4F8A1
:10CEB0001835002BDBD1D4F80421002AD7D0C4F8D0
:10CEC0000431D4F804310123C4F81835C8F880318E
:10CED000A360CCE70021212003F0E6F8E7E74FF05C
:10CEE00080430222C3F80423D2E700BF8C4D012007
:10CEF0007C4D0120AC4D01204E4E012000E100E0B0
:10CF000008B5074803F024F838B10648FFF726FEB5
:10CF10000448FFF707FA002008BD6FF01200FBE796
:10CF2000D8420120290F01200A2838B5074D0446B0
:10CF300004D1AB680D215B6828469847AB6803486D
:10CF40005B68E1B29847204638BD00BFD842012057
:10CF5000F0B54068057B01F01F0444EA45140569FB
:10CF600087B0002D64D0B2F5001F00F1100506D186
:10CF70002146284602F0E0FF002007B0F0BD01AED8
:10CF80000027B2F5800F0197776039D1B3F1007FA8
:10CF900014BF052304238DF804300023CDE9046376
:10CFA0000393836823FA01F111F001011AD1B2F160
:10CFB000A07F17D104F01F03620903F5E0732AD0A4
:10CFC000012A3BD11F4A52F82330DB070AD40DF166
:10CFD000030632462146284601F0C8F91A4B98420A
:10CFE0001CD0029603AA2146284601F081F8174B6F
:10CFF000984220D101222146284601F01BFABBE7C6
:10D00000B3F1C06F05D0B3F1007F14BF0123022339
:10D01000C1E70323BFE74FF0A042D4E731462846DB
:10D0200001F002FA094B9842DBD06FF00B00A4E745
:10D030006FF08500A1E76FF015009EE751F82330EF
:10D04000FFDE00BF000300500400AD0B0000AD0B7D
:10D0500038B545682B69B3B11035284601F0D4F9CD
:10D06000044680B90146284601F09AF9084B9842D7
:10D070000BD108492246284601F072F922460521C3
:10D080000620FFF7D5FC002038BD6FF00400FBE759
:10D090000000AD0B99100120420970B5034602D083
:10D0A000012A17D070BD0D4E326951680029F9D0A0
:10D0B00003F01F0301250C689D400029F2D08A6807
:10D0C0002A4002D04B68304698472CB1236821464D
:10D0D0001C46F2E7024EE7E72346F8E7C442012088
:10D0E000B04201202DE9F043466840F20635D006F3
:10D0F000337B87B002EA050554BFC2F3401003201A
:10D1000001F01F07B5F5837F144647EA43178DF8F2
:10D11000030045D00FD8062D18D007D8B5B1022D81
:10D1200040D06FF0150007B0BDE8F083B5F5807F03
:10D13000F7D101250AE040F20222954234D0B5F53C
:10D14000407F33D0B5F5007FEBD1022501232203C8
:10D1500003FA01F12CD57368C3F80815326982BB54
:10D1600007F01F037F0929D0012F77D13E4A02EB38
:10D17000830284F48033D2F80017C3F30043C4F36E
:10D18000404444EA430421F4E16144EA800421F08C
:10D19000070144EA05230B43C2F800370020C2E729
:10D1A0000725D3E70425D1E70525CFE70325CDE7FC
:10D1B000630344BF7368C3F80C15CFE74FF0A04278
:10D1C000D5E710360DF102023946304601F0CEF8AF
:10D1D00014F4403F80460CD13946304602F0AAFE96
:10D1E000224B9845DAD19DF80210304601F016F92D
:10D1F000D4E701AB4FF0000903AA39463046CDE928
:10D200000439CDE90199CDF80C9000F071FF174B6E
:10D21000984286D114F4003315D09DF803308DF870
:10D220000E3084F48034C4F300444B4603AA3946DC
:10D2300030468DF80C508DF80D4001F013F80B4B73
:10D240009842CDD06DE7CDE9043303AA0DF1030375
:10D2500039463046039300F04BFFF0E703F5E073E7
:10D2600052F82330FFDE00BF000300500000AD0B7A
:10D27000036803F01F025B09026004D0012B03481E
:10D2800018BF002070474FF0A040704700030050C7
:10D290002DE9F04FDFF89491DFF894A185B01546A1
:10D2A000834600EB810140F2FF18594503D100206D
:10D2B00005B0BDE8F08FDBF800305E04C3F3C32295
:10D2C000C3F3080400F1AC801B0E19F8027044454A
:10D2D00008BF4FF0FF34222B00F2A580DFE803F0F7
:10D2E00012191F22252B22A3A3A3A33B68A3A3A348
:10D2F000A3A3A3A3A3A36B818487A3A3A38A9194CD
:10D30000979A9D00C5F80C45601C5ED10BF1040B8B
:10D31000CBE7C5F81445621CF8D000265FE0C5F8DD
:10D320000845F1E7C5F81045F5E7631CC5F8084561
:10D33000ECD0002604E0661CC5F80C45E6D00126BA
:10D3400003A80394FFF794FF039B012202FA03F35F
:10D35000C0F80C3508E0C5F80845002FDBD1631C88
:10D36000D4D0002632460627DBF80030019303F4C0
:10D370000040002818BF002203A8009218BF012611
:10D380000394FFF775FF039C019B009A00EB840058
:10D39000C3F3412CD0F800473B0243EA8C0313430C
:10D3A00004EA0A04234343EA4603C0F80037ADE722
:10D3B000C5F80C45D1E7C5F86045601CDBF80030C6
:10D3C000A4D0C3F30043002BB9D003A80394FFF704
:10D3D0004FFF039B012606FA03F3C0F808353246D7
:10D3E000C2E7C5F86445E8E7C5F86845E5E7C5F86C
:10D3F0006C45E2E7C5F82445621C87D0002201266F
:10D40000B2E7C5F828457FE7C5F83045F4E7C5F829
:10D410003445F1E7C5F83845EEE7C5F83C4573E714
:10D420006FF0150044E76FF0850041E7CA45012021
:10D43000F0F8FCFF2DE9F041044647680D4602F084
:10D44000C3FD4FF0200888B9264B1B7873B16426C2
:10D45000606802F0A5FCF0B9012002F0DFFC013E9B
:10D46000F6D10021212002F01FFEF0E7EFF3118634
:10D47000314688F31288BFF36F8F606802F090FC2A
:10D48000A8B986F31188BFF36F8FEFE786F3118891
:10D49000BFF36F8FE5E7EFF31186314688F312880B
:10D4A000BFF36F8F606802F07BFC0028EED0BB6991
:10D4B0001D706368BA691B680020C3F84425012207
:10D4C000C3F84825C3F82001D3F82041C3F8580118
:10D4D000D3F858019A6081F31188BFF36F8FBDE8CC
:10D4E000F08100BF4E4E0120F7B505460022012114
:10D4F0000220FFF79DFA0220FFF77EFA6A681168A2
:10D500001369C1F82435137D507D927D0343134385
:10D51000C1F86C356E68D6E9004313F0010348D0BA
:10D520002F6907F1080002F085FC304B98425AD170
:10D53000387A04F10C0204F5907102F071FC387A2B
:10D54000012707FA00F000F0A9FB0823C4F8003512
:10D55000B369C4F844350023C4F84835A760D4F84B
:10D560005831002BFBD00021C4F800156B68DC6833
:10D5700001AA204602F0E7FB002805DB019B226898
:10D5800019791868FFF784FE6A6813680821C3F8E0
:10D590000015117A51B9D269C3F834250122C3F8B4
:10D5A0003825C3F81011D3F810111A60002003B009
:10D5B000F0BD0822C4F80025B269C4F84425C4F8B7
:10D5C00048350123A360D4F82031002BFBD0002381
:10D5D000C4F82031D4F820310123E3604FF4807384
:10D5E000C4F80433BBE76FF00400E0E70000AD0BC4
:10D5F00070B5012383400E4ABFF35B8FDC4352E8D2
:10D60000001F01EA040542E80056002EF7D1BFF3DF
:10D610005B8F4FF4803282400648C0F80823BFF386
:10D620005F8FBFF36F8F0B4214BF0120002070BDCE
:10D630000C4E01200010014070B40E49D1E90034B5
:10D64000D01AC31844F1000422F07F46C1E9003427
:10D65000A6F50013B3F5400F09D2074B1B681A0A51
:10D660001B069C19054B42F10005C3E9004570BC3F
:10D6700001F020BEE84B0120104E0120F04B0120AC
:10D6800011B3BFF35B8F0123104A834052E800CFF0
:10D690004CEA030C42E800C10029F7D1BFF35B8FCD
:10D6A0000B4A4FF480338340C2F80433094BBFF375
:10D6B0005B8F1B68BFF35B8FC340DB0742BF064B2A
:10D6C0004FF40032C3F80021704700BF0C4E012018
:10D6D00000100140084E012000E100E00D4B1868E9
:10D6E000010A0006BFF35F8F0B4BD3F804351818FF
:10D6F00041F10001B3F5801F0AD2084BD3E90023A2
:10D70000904271EB030303D210F1807041F10001EC
:10D71000704700BF104E012000100140F04B012067
:10D720002DE9F04F85B016461F469DF840A00446EF
:10D73000FFF75EFF0190FFF7D1FFB04271EB0703E7
:10D7400054D23E4B301A67EB0101984271F100014F
:10D750004FD23B4B03EB0413D3E902239F4208BF94
:10D7600096425ED037494FF4803804F1500508FAEC
:10D7700004F8AD00C1F848832046ADB202F041FB89
:10D7800026F07F4B05F1804504F5A87305F5883533
:10D79000DC464FF003090293029A2CF07F4341F8D4
:10D7A0002230C1F84483D1F80435274A6FF00200D3
:10D7B000C01A604420F07F40904232D9286868B196
:10D7C000D1F804350393A3EB0B0020F07F40B0F5B4
:10D7D000000F26D9204602F014FB039BBAF1000F7C
:10D7E00007D109EB030C09F10109D5E7BAF1000FE4
:10D7F00009D06FF0150520460199FFF741FF284633
:10D8000005B0BDE8F08F0123104ABFF35B8FA34042
:10D8100052E8000F184342E800010029F8D1BFF395
:10D820005B8F07490E98230101EB0412C8500F9B30
:10D830005360C2E902670025DDE700BF01008000F8
:10D84000D84B012000100140FDFF7F00084E012051
:10D850007FB51C4C1C4BC4F80833C4F848331B4B31
:10D8600000254FF0FF304FF0FF31C4F80855C3E9F1
:10D8700002014FF48033C4F80433154B02264FF4F1
:10D8800000320121C4F804631120C3F880212A4624
:10D89000FFF7CEF81120FFF7AFF80E4A0123A3607F
:10D8A000236013600C4B0D4A0093CDE90155002312
:10D8B0002846FFF735FF3046FFF7A4FA284604B0A4
:10D8C00070BD00BF0010014003000F00D84B0120C5
:10D8D00000E100E00C4E012039160120FFFF7F001F
:10D8E0002DE9F7432F4CD4F8043399070BD5D4F81E
:10D8F000043143B12C4A0023C4F80431D4F8043174
:10D90000136801331360D4F80433DA0329D5BFF365
:10D910005B8F264B53E8002F22F0010143E80010F3
:10D920000028F7D1BFF35B8FD30702D4D4F840317E
:10D93000BBB10025C4F84051D4F84031FFF7CEFE0A
:10D94000EFF31182202383F31288BFF36F8F184BFC
:10D95000D3E90267B042B94106D282F31188BFF31E
:10D960006F8F03B0BDE8F0834FF0FF384FF0FF3901
:10D97000C3E90289D3E900101D604FF48033C4F875
:10D980004833C4F84051D4F8403182F31188BFF3D2
:10D990006F8F0029E5D0009032463B4628468847E5
:10D9A000DFE700BF00100140104E0120084E0120AB
:10D9B000D84B012030B5431C124C85B005D08442B1
:10D9C000A8BF0446012CB8BF0124FFF787FE0E4B09
:10D9D0000C4DD3E90013401AB0F5000F10D22218F5
:10D9E000AA4228BF2A4652184FF00000074900916A
:10D9F000CDE9010043F10003FFF792FE05B030BD11
:10DA00002A46F0E7FFFF7F00E84B0120391601208E
:10DA100008B5FFF763FE024B1B68C01A08BD00BFC4
:10DA2000E84B01204FF08053D3F83021082A06D16B
:10DA3000D3F83431052B02D8024AD05C704700205D
:10DA4000704700BFE6450120024AD2F80034002B9F
:10DA5000FBD0704700E0014010B54FF08053D3F881
:10DA60003021082A4ED14FF080420021C2F80C111B
:10DA7000C2F81011C2F8381502F54042D3F8041468
:10DA8000C2F82015D3F80814C2F82415D3F80C14E2
:10DA9000C2F82815D3F81014C2F82C15D3F81414B2
:10DAA000C2F83015D3F81814C2F83415D3F81C1482
:10DAB000C2F84015D3F82014C2F84415D3F8241442
:10DAC000C2F84815D3F82814C2F84C15D3F82C1412
:10DAD000C2F85015D3F83014C2F85415D3F83414E2
:10DAE000C2F86015D3F83814C2F86415D3F83C14A2
:10DAF000C2F86815D3F84014C2F86C15D3F8443452
:10DB0000C2F87035FFF78EFF18B13A4B3A4AC3F8A6
:10DB10008C26FFF787FF18B1384BFB22C3F8182576
:10DB2000FFF780FF70B14FF080414FF08053D1F884
:10DB3000E42ED3F8583222F00F0203F00F03134300
:10DB4000C1F8E43EFFF76EFF20B12D4B4FF4007299
:10DB5000C3F840264FF08053D3F83031082B1AD148
:10DB60004FF08043D3F80024D20744BF6FF0010286
:10DB7000C3F800244FF08053D3F83431052B02D87A
:10DB8000204AD35C3BB14FF01023D3F808224FF06A
:10DB90008043C3F858254FF01023D3F80022002A01
:10DBA00003DBD3F80432002B22DA174901234FF0AC
:10DBB0001020C1F804351224FFF746FFC0F80042D8
:10DBC000FFF742FFC0F80442FFF73EFF0023C1F811
:10DBD0000435FFF739FFBFF34F8F0C490C4BCA6870
:10DBE00002F4E0621343CB60BFF34F8F00BFFDE749
:10DBF00010BD00BF005000404881030000F000400D
:10DC000000900240E045012000E0014000ED00E00E
:10DC10000400FA0530B50468CCB1BFF35B8FB4FAE9
:10DC200084F3C3F11F03DBB201229A4024EA02020B
:10DC300050E8005FA54204D140E8002CBCF1000F81
:10DC4000F6D1BFF35B8FE6D102480B7030BD0248BE
:10DC5000FCE700BF0000AD0B0200AD0B10B5036880
:10DC6000CB40DB0714D401238B400268BFF35B8FEA
:10DC700043EA020150E8004F944204D140E8001CFE
:10DC8000BCF1000FF6D1BFF35B8FEED1014810BDA0
:10DC90000148FCE70000AD0B0400AD0B014BC3F8DD
:10DCA0000405704700F00140F7B50546F8B10128BA
:10DCB0001BD104224FF4807301464FF0804003448F
:10DCC0000244C0F808130026012111601E608D4235
:10DCD0001B688DF8071008BF0DF1070642F210749B
:10DCE0004FF0804745B1012D28D003B0F0BD0C2284
:10DCF0004FF482730221E0E7D7F8183403F480333D
:10DD00003EB9002BF1D0012002F088F8013CF3D19C
:10DD1000EBE7D7F8182402F003023260002BE4D0BE
:10DD20009DF80700012803D102F078F8013CD9D111
:10DD3000012DDAD10C4B00225A71D6E7D7F80C34FA
:10DD400003F480333EB9002BF4D0012002F066F8D2
:10DD5000013CF3D1EEE7D7F80C2402F00102327057
:10DD6000002BDDD1E6E700BF144E0120044B1A79E9
:10DD700022B9012218609A80024870470248704711
:10DD8000144E01200000AD0B0C00AD0B08B5074B85
:10DD90001B682BB10020FEF73DFE08B9FEF72CFEF4
:10DDA0004FF080430022C3F8182508BD144E01200F
:10DDB00010B510B1012843D010BD4FF08043D3F807
:10DDC0001814D3F81824C80321D502F00303012B3B
:10DDD00004D013B10020FFF767FF00234FF080420B
:10DDE0000220C2F8183508224FF4827303F18043F1
:10DDF0000021196002F180421C6801241460154A58
:10DE000012680AB34FF08043C3F80403D4E7D3F891
:10DE10001424D107E1D5D3F81C249207DAD40D4A93
:10DE200012681AB10222C3F80423C5E7D3F804210B
:10DE3000002AFBD00022C3F80421D3F80431BBE749
:10DE400000224FF48073D1E71A68002AFCD01960D1
:10DE50001B68B1E7144E012010B54FF08043D3F892
:10DE600000216AB10022C3F80021D3F80021012269
:10DE7000C3F80823114B587910B95A711B68984799
:10DE80004FF08043D3F8042172B10022C3F804217B
:10DE9000D3F80421D3F81824D3F81824920704D116
:10DEA0000122C3F818259A6010BD0222C3F8082386
:10DEB000024BBDE810401B6801201847144E01209A
:10DEC000036803F01F025B09026004D0012B0348C2
:10DED00018BF002070474FF0A0407047000300506B
:10DEE000034A430900F01F00D35C1844C0B27047D6
:10DEF000EC45012070B50546FFF7F2FF0C4C0830E9
:10DF00000E4634F81030DA0508D5C3F3432304EB8A
:10DF1000C302284654F8333052689847A3682BB19F
:10DF2000E26831462846BDE87040184770BD00BF22
:10DF30003C4B012008B5FFF7D3FF034B083033F803
:10DF40001000400B08BD00BF3C4B012008B5FFF797
:10DF5000C7FF034B083033F81000C0F3400008BD82
:10DF60003C4B012008B5FFF7BBFF034B083033F8EB
:10DF70001000C0F3401008BD3C4B0120034611F0D7
:10DF8000010010B5CCB20DD1A207C4F3400012D5E8
:10DF9000094AD2F820055860C2F82005003818BF99
:10DFA000012008E04FF0A041D1F820251A60C1F807
:10DFB0002025002AE8D010BD0003005010B5FFF75F
:10DFC0008FFF124A083032F81030D9051CD5C3F340
:10DFD000432123F4F85322F8103002F10E040020FC
:10DFE00034F8023F13F4807F03D0C3F343239942F4
:10DFF0000AD001303028F3D1002342F831300448F0
:10E00000BDE81040FFF72ABE10BD00BF3C4B012009
:10E01000B44B0120F0B50546002004460126074612
:10E020008C420BD1114BD3F87C2132B10022C3F8C2
:10E030007C21D3F87C3140F00040F0BDE3B29B007E
:10E0400003F580729B0806FA03F31D420BD002F120
:10E05000804202F5C042D2F800C0BCF1000F02D0ED
:10E060001760126818430134DAE700BF006000400F
:10E07000F7B506460846FFF733FF194F00F10805CC
:10E080000C4637F81530DB0727D5304601F02EFF58
:10E090002046FFF767FF40B12046FFF74BFF31688E
:10E0A00000F5A270002341F820302046FFF786FFDC
:10E0B000002301A827F815300194FFF701FF019B09
:10E0C00000EB8300074BD0F80027134043F0020316
:10E0D000C0F80037044803B0F0BD0448FBE700BFB8
:10E0E0003C4B0120F0F8FCFF0000AD0B0400AD0B31
:10E0F0002DE9FF41164680460846FFF7F1FE0D4622
:10E100003168044609B32846FFF720FF18B12846B6
:10E11000FFF728FF10BB0023CDE900338DF80E3048
:10E120008DF80F300DF10F020B4628460DF10E0150
:10E1300001F084FE474A04F1080132F8113023F05F
:10E14000020343F0010322F81130736863B32846D9
:10E150001F785968FFF7FAFE10B1D1B13E4826E0AA
:10E160003C4A04F1080032F8103023F02003DB04AD
:10E17000DB0C22F8103061B1032FEFD871684968C9
:10E1800091F800C0D8F80010A7B90CF5A27C41F8AE
:10E190002C70304A04F1080132F8113023F01C03CE
:10E1A00043EA870322F81130B3684BBB2B4804B015
:10E1B000BDE8F08101EB8C0143EA4C33D1F810E566
:10E1C0002EF0030EC1F810E5D8F8001001EB8C0E0C
:10E1D00043F02003DEF8101522F8103021F44F31FF
:10E1E00021F44071CEF810152902DEF8108501F4F3
:10E1F0007C5141EA074141EA0801CEF81015C8E711
:10E20000D3E900672846FFF7D9FE002ECED0114D86
:10E21000D5E90023964203D19F4201D1002209E0B3
:10E220000F480DF10F01FFF7F5FC0C4B9842BED1E2
:10E230009DF80F2045F8326005EBC20308345F609B
:10E2400035F8143043EA422343F4807325F8143040
:10E25000ACE700BF3C4B01200400AD0B0000AD0B50
:10E26000B44B01202DE9F0430C4685B08046204692
:10E2700011461E46FFF734FE054629B32046FFF738
:10E2800065FE18B92046FFF76DFE18BB314F05F14A
:10E29000080937F8193013F01C0F02D04B78012B06
:10E2A00018D001238DF80F300023CDE900134A1C4C
:10E2B0008B1C20460DF10F0101F0C0FD37F819301D
:10E2C00043F0030327F81930002E41D02046FFF712
:10E2D0003DFE18B9204805B0BDE8F08396F800C0AF
:10E2E000D8F800301B4F0CF5A272002143F8221021
:10E2F00005F1080237F8121021F02001C904C90CF9
:10E3000027F8121075781DB3D8F80000B67800EB26
:10E310008C002D04D0F8103523F4991323F4F8530E
:10E32000C0F81035230203F47C5305F4403536055C
:10E33000D0F810E52B4306F4801641EA4C31334304
:10E3400041F0200143EA0E0327F81210C0F81035FF
:10E350000248C0E73C4B01200400AD0B0000AD0BB0
:10E36000014BC3E9021270473C4B012010B508462F
:10E370001446FFF7F7FD50B10846FFF7B1FD054B16
:10E38000083033F8103004485B0B237010BD03488D
:10E39000FCE700BF3C4B01200000AD0B0400AD0BBF
:10E3A00070B5164D95F8804006462CBB214660227C
:10E3B00005F1100001F040FF30682E6F21468E42BB
:10E3C0000ED10023C0F87C31D0F87C3140F3073007
:10E3D000FEF712FB01230A4885F88030AB6770BD59
:10E3E000CBB29B0003F580727C2B08BF845001F1F7
:10E3F000010108BF8358E2E70248F0E73C4B0120E7
:10E400000000AD0B0C00AD0B034B93F880000038FF
:10E4100018BF0120704700BF3C4B01200148FFF7A7
:10E420001DBC00BFB04B01200148FFF7F3BB00BF8C
:10E43000B04B012073B503681646D3F80423002AB5
:10E44000A8BF4FF000420546A8BFC3F80423084602
:10E450000C46FFF787FD00B30846FFF777FD01463E
:10E46000D8B92046FFF766FD04B2A40004F5807217
:10E47000034628688150296882582144D1F8102524
:10E4800042F00102C1F810252EB12968012202FADA
:10E4900003F3C1F8043302B070BD2046FFF720FD3E
:10E4A0000F4B083033F81030C3F38203042B12D023
:10E4B000052B12D001A80194FFF702FD019AD0F8B4
:10E4C0001035D34003F00103991C204602B0BDE88B
:10E4D000704001F0FCBC0321F7E70221F5E700BF23
:10E4E0003C4B01202DE9F04F694BDFF8A881D3F8B0
:10E4F0000403D8F87010C0B289B040F00040FFF7B4
:10E5000089FD051E2FDAC24600235AF87C1F06A893
:10E51000CDE90633FFF732FD5F4B01930DF118098A
:10E520004FF0000B019A12F8013B0192DA0803F058
:10E5300007031AF8022022FA03F3DA071CD409F1C0
:10E540000409BBF1000F14D0D8F870104FF0004050
:10E55000FFF760FDD8F87C1006A8FFF70FFD002834
:10E56000DAD125F000450124002D79D109B0BDE8AC
:10E57000F08F4FF0010BD5E7484B5B440293D9F87D
:10E5800000100029DBD0029B91FAA1F11C78B1FAAE
:10E5900081F141EA44142046FFF7A2FC08300594BB
:10E5A00038F81070C808BB0819F80020039301F070
:10E5B0000701012303FA01F122EA010209F8002010
:10E5C00005A8FFF77DFC059A039B02F5E072C7F3EF
:10E5D000820650F822205B073746C2F3014224D559
:10E5E00020463946D6B2FFF785FC05A80594FFF70B
:10E5F00067FC059B03F5E07350F82330C3F3014338
:10E600009E4207D10021204601F061FC31462046A0
:10E6100001F05DFC05A80594FFF752FC059B012263
:10E6200002FA03F3C0F82035A9E7022A0CD103212E
:10E63000204601F04CFC06F00503012BEAD13946D7
:10E640002046FFF757FCE5E702212046039201F040
:10E650003EFC032EF3D0039A032ADBD1022EEDE712
:10E6600095FAA5F3B3FA83F304FA03F29B0003F1DE
:10E67000804303F5C04325EA0205D3F81005D3F81B
:10E680001015C0F30520C1F30141FFF733FC6BE720
:10E69000006000403C4B0120FC450120FC4501206E
:10E6A00001460148FFF7B6BAC04B012008B5144B2C
:10E6B000A8220021184601F0BFFD03220261114982
:10E6C0004261114A8161C2614FF48062026200229C
:10E6D00082624262C26201660C4941661021816613
:10E6E00003460267C2664267BFF35F8F084911F8AD
:10E6F000010D98540132102AF9D1BFF35F8F08BD84
:10E70000804A0120FE4501208046012070460120FC
:10E710001746012010B4BFF35F8F0B4A0B4900234B
:10E72000C85C12F8014D844209D10133102BF7D196
:10E730000023BFF35F8F23B110BCFFF7B7BF0123E6
:10E74000F7E710BC704700BF17460120804A012040
:10E7500038B5EFF31185202383F31288BFF36F8F51
:10E76000064B9C6801F007FC85F31188BFF36F8F9F
:10E770002046BDE83840FEF7EDB800BF1C4E012032
:10E7800038B5094B53F82040013053F82050A542CA
:10E7900000D838BD636823B1204601F0EFFB083490
:10E7A000F5E723689847FAE75C45012070B52B4BE5
:10E7B0002B4C2C4D012286B003201A70FFF7E0FF8E
:10E7C00000F0EEFD01F0F4FB0420FFF7D9FF264630
:10E7D000AE4204F1300410D300F0A8FA204C224ECF
:10E7E000AC4226D300F0B6FAFDF78AFD1F4A137B30
:10E7F00023F00103137306B070BD54F80C3C05936D
:10E8000054F8103C049354F8143C039354F8183C07
:10E81000029354F81C3C019354F8203C009354E9B3
:10E820000A2354E90C0100F021F954F8303C5E65EC
:10E83000CDE7D4E90A23B3F1FF3F08BFB2F1FF3FB0
:10E8400005D052EA0301206803D100F043FB3034C5
:10E85000C6E73146183000F0B7FCF8E74E4E01200D
:10E860006C4401206C440120A1400120684C01202F
:10E8700008B50348034A0021121A01F097FB08BDAE
:10E88000D84B0120504E012070B5144E144D15493F
:10E89000702386B003FB006601220023CDE9042328
:10E8A0000F22CDE902320193142303FB00554FF4EC
:10E8B000A072044602FB00110B4B0095304600F09D
:10E8C000D5F8737B2C7423F004037373074BEE604D
:10E8D000013403EBC4236B6006B070BDF84B01201C
:10E8E0001C4E012050560120B33F0120504E012004
:10E8F000BFB50020FFF744FF274B83F30888274C60
:10E90000274F636943F4007363610025E02384F8B3
:10E910002230E57725766576A57684F82050636AFF
:10E9200043F4E023636284F82350FDF7A3FFFEF76E
:10E93000E9F84FF0FF33A3621A48E36200F0CEF823
:10E9400001F005FB0120FFF71BFF0220FFF718FF76
:10E9500000F034FA144B154C5C61154B0593012300
:10E9600014490095CDE903534FF480623B46CDE94D
:10E970000155204600F07AF8627B064622F0040238
:10E980002046627301F060FB2846FFF77DFF3A46A0
:10E9900031462046FEF79AF85056012000ED00E07F
:10E9A000AD270120D84C01201C4E0120684C0120CD
:10E9B000184601209057012070B5EFF311862023EF
:10E9C00083F31288BFF36F8F0468A0421AD0CCB1D2
:10E9D000D4E9003213605A60637B002523F0020300
:10E9E0006373C4E90055A56004F1180001F08EFBC3
:10E9F0002046E56601F028FB31460848BDE8704036
:10EA000000F06EB9D0E902329A4218BF0133836038
:10EA100086F31188BFF36F8F70BD00BF4F4E01208A
:10EA200013B5EFF31181202484F31288BFF36F8FA5
:10EA3000846844B1013C846081F31188BFF36F8F17
:10EA4000002002B010BD52EA030406D181F3118800
:10EA5000BFF36F8F6FF00F00F3E7CDE9002302469D
:10EA6000014800F011F9ECE74F4E01202DE9FF417C
:10EA7000984600F15803D51DC0E916330E9B037369
:10EA800025F007050423002643730D440D9B837373
:10EA90000F46C0E9066629468660C6730446FDF740
:10EAA0008BFD0C9B029307300B9B019320F007001A
:10EAB0000A9B00932D1A43462A4639462046FDF705
:10EAC000E9FF054B66659B6803B11B6E236628460C
:10EAD00004B0BDE8F08100BF1C4E012040F20113DC
:10EAE000838100230366014B986070471C4E012010
:10EAF000094A93686FF00A01D966084998664B681D
:10EB000043F080534B60002383F31188BFF36F8F72
:10EB10009368D86E704700BF1C4E012000ED00E0E6
:10EB200070B590F90D20437B002A36DBD90634D12D
:10EB30001B4C63F07F032246437352F8183FE16990
:10EB4000934207D1C0E900210860E06111E09942D9
:10EB5000F8D01B68002BF5D090F90E5093F90E6099
:10EB6000B542F4D0AE42F2DD5968C0E90031086028
:10EB70005860A569954200D005B9E568A3685A7B3D
:10EB8000D20604D1DA897F2A01D9AA6932B1AB420F
:10EB900002D0284600F092FA656170BD6361FCE71F
:10EBA0001C4E012038B590F90D20437B002A014608
:10EBB00004DA03F07F03437301F00CFA0D4D2A468B
:10EBC000AB6852F8184F944200D004B9EC688B42FD
:10EBD00007D05A7BD20604D1DA897F2A01D9A269EB
:10EBE0002AB1A34202D0204600F068FA23466B61A6
:10EBF00038BD00BF1C4E012070B590F90D20437B3D
:10EC0000002A014604DA03F07F03437301F0E2F9BE
:10EC10004B7B1C4C63F07F0322464B7352F8183F2A
:10EC2000E069934207D1C1E900200160E16111E090
:10EC30009842F8D01B68002BF5D091F90E5093F94B
:10EC40000E60B542F4D0AE42F2DD5868C1E9003042
:10EC500001605960A569A368954200D005B9E568CF
:10EC60008B4207D05A7BD20604D1DA897F2A01D998
:10EC7000AA692AB1AB4202D0284600F01FFA2B46FF
:10EC8000636170BD1C4E0120F8B5124B0C46114655
:10EC9000114A98681060DDE90676EFF311822022B0
:10ECA00082F31288BFF36F8F9D68284601F0A4F9A4
:10ECB000B6F1FF3F08BFB7F1FF3F06D007493A461C
:10ECC000334605F1180000F07FFA2046BDE8F84011
:10ECD000FFF70EBF1C4E01203C4E0120A140012039
:10ECE00049B9EFF3058030B9054B5A699B689A42E0
:10ECF00001D0FFF7FDBE81F31188BFF36F8F70471E
:10ED00001C4E0120034648B9EFF3058232B9064A8A
:10ED100051699268914201D0FFF7EABE83F31188EE
:10ED2000BFF36F8F704700BF1C4E0120EFF31181BE
:10ED3000202383F31288BFF36F8F054B9A68D37B30
:10ED4000013BD37381F31188BFF36F8F704700BF0E
:10ED50001C4E012070B5EFF31186202383F3128837
:10ED6000BFF36F8F144DAB68DA7B0132DA732A463A
:10ED700052F8184F944200D004B9EC685A7BD2067E
:10ED800004D1DA897F2A01D9A2692AB1A34202D02B
:10ED9000204600F093F923466B6186F31188BFF398
:10EDA0006F8FEFF31180202383F31288BFF36F8FEF
:10EDB000BDE87040FFF7A6BF1C4E0120024B03F1D7
:10EDC0001802C3E9062270471C4E012070B5EFF30C
:10EDD0001186202383F31288BFF36F8F1B4CA16829
:10EDE000E0690B68814214BF1A46002249680B6033
:10EDF0005960A368E1692AB9154AC3E900210B608B
:10EE0000E3610CE093F90E0092F90E50A84218D07D
:10EE1000854216DD5168C3E900210B605360A56986
:10EE20000B4B9D4200D005B9E568A3689D4202D016
:10EE3000284600F043F965613046BDE87040FFF7B1
:10EE400057BE8A42D8D01268D5E700BF1C4E0120B9
:10EE5000344E012050EA01032DE9F04105460E46EB
:10EE600004D1FFF7B3FF0020BDE8F081831C71F1EE
:10EE7000FF3324DB01F06BF94419EFF311882023F1
:10EE800083F31288BFF36F8F0F4F104BB868186071
:10EE9000FFF788FEB8680E492A463346183000F05E
:10EEA00093F9BA68537B43F0040353734046FFF76A
:10EEB0001FFE01F04CF9201A20EAE070D4E76FF051
:10EEC0000104241AD9E700BF1C4E01203C4E01204A
:10EED000A140012038B50446EFF31185202383F3C8
:10EEE0001288BFF36F8F437B5B070FD5183001F09B
:10EEF0000DF9637B23F0040320466373FFF710FED4
:10EF000029460548BDE83840FFF7EABE85F3118879
:10EF1000BFF36F8F38BD00BF4F4E0120014B986883
:10EF2000704700BF1C4E01202DE9F8430446077BC3
:10EF3000EFF31185202383F31288BFF36F8F437B98
:10EF4000190705D585F31188BFF36F8FBDE8F883E6
:10EF5000D90943F008025AD14273A36813B120467D
:10EF600001F040F804F1180001F0D0F8A66D04F1AA
:10EF70005808B04511D04FF0000976B1304601F085
:10EF800031F806F1180001F0C1F8C6F86C9030466F
:10EF9000FFF7C6FDA66DB045EFD1DFF8B880D8F811
:10EFA00008309C423BD1EFF30589B9F1000918BF45
:10EFB0004FF00109D8F81860274A964200D00EB9E0
:10EFC000D8F80C60B34202D0304600F077F8C8F8A9
:10EFD0001460B9F1000F02D02048FFF77FFDD8F888
:10EFE00008309C4231D1EFF3058373BB227BD207FB
:10EFF00018D42846FFF77CFDFB07A7D5002383F331
:10F000001188BFF36F8F0423184602DF9EE703F0D9
:10F010007F0343F00803437300F0DCFF9DE74FF0EC
:10F020000009C7E785F31188BFF36F8F83F3118859
:10F03000BFF36F8F0423184602DFEFF31180202304
:10F0400083F31288BFF36F8FD4E785F31188BFF382
:10F050006F8FD1E71C4E0120344E0120D84C012087
:10F06000044BC01A044BC0105843044B01221A54DD
:10F07000704700BF484D0120ABAAAAAA4F4E0120FD
:10F08000C3897F2B12D80A4B1B6863B1094B90F9D7
:10F090000E201B689A4209DB437BDB0606D1064B38
:10F0A000C31A18BF012303F0010070470023FAE7D9
:10F0B000444E0120404E0120F84B012070B50E4B0C
:10F0C0000E4C1E7C06EB460304EBC30405462046AB
:10F0D00001F01CF80A4B002228469A55FFF7D0FF92
:10F0E00048B1084B08491A68013A2046D317BDE8D1
:10F0F000704000F069B870BD1C4E0120484D0120E1
:10F100004F4E0120444E01206130012038B5EFF30D
:10F110001185202383F31288BFF36F8F104B114AA0
:10F120009C681068A04206D1FFF7C8FF85F31188DC
:10F13000BFF36F8F38BD00211B7C11600A4AD35C7E
:10F14000002BF3D02046FFF79BFF0028EED0637B17
:10F15000DB0602D12046FFF74FFD2046E4E700BF63
:10F160001C4E01203C4E01204F4E0120024B1868DE
:10F17000984208BF00207047C44B0120034B1B6816
:10F180000BB9FEF745BC0020704700BF484E012078
:10F1900030B570B10B4B5B6898420AD0036843B13D
:10F1A000D3E90421D0E90445121941EB0501C3E973
:10F1B0000421D0E9003213605A600023C0E9003313
:10F1C00030BD00BFC44B0120B3F1FF3F08BFB2F117
:10F1D000FF3FF8B504461D4616465AD08160EFF34E
:10F1E0001187202383F31288BFF36F8F013275F1EB
:10F1F000FF3321DA2C49D1E900206FF001039B1A7B
:10F200004FF0FF3262EB00009E1B60EB0500012E09
:10F2100070F1000301DA01260020C4E90460FFF761
:10F22000A5FF224E84467068BCF1000F0DD1C4E9E1
:10F230000060046074601CE0FFF7A0FF013645F138
:10F240000005361845EBE070E7E7DCE90425D4E972
:10F250000431934271EB050E1CDAD21ADCF804304B
:10F2600065EB0105CCE90425C4E900C31C60CCF8BA
:10F270000440FFF77BFF844207D10D4B1C6824B983
:10F2800000F02BFF2146FEF795FB87F31188BFF3B3
:10F290006F8FF8BD9B1A61EB05018445C4E9043109
:10F2A000C5D0DCF800C0BFE7604D0120C44B012091
:10F2B000484E01202DE9F047EFF31185202383F319
:10F2C0001288BFF36F8FDFF8A090DFF8A080C9F835
:10F2D0000000FFF74BFF00260027D9F80030D8E9DF
:10F2E00000ECD91750B1D0E90442A34271EB020AF5
:10F2F0001ADAE41A62EB0102C0E9044213EB0E03CE
:10F300004CEB01010024C8E90031C9F8004000F0CD
:10F31000E4FE2146FEF74EFB85F31188BFF36F8FA5
:10F32000BDE8F047FFF7F2BE14EB0E024CEBE473BE
:10F33000C0E90467C8E90023FFF72AFF85F31188B5
:10F34000BFF36F8F83689847EFF31185202383F312
:10F350001288BFF36F8FD9F800301B1BC9F800303B
:10F36000FFF704FFB9E700BF484E0120604D0120C0
:10F3700010B5EFF31184202383F31288BFF36F8F4E
:10F38000FFF7FCFE054A0346D2E90001181841EBDD
:10F39000E37184F31188BFF36F8F10BD604D0120BE
:10F3A000014800F0DDBA00BF1D4601200FB407B5CB
:10F3B000064B04AA186852F8041B019200F008F8E2
:10F3C00003B05DF804EB04B0704700BFC8440120EF
:10F3D0002DE9F04F8DB043680293837815469A0764
:10F3E000804640F10D8100240E78002E00F00A8145
:10F3F000252E0BD04B1C03930134029B4146304613
:10F4000098470028C0F2F6800399EDE74E788B1CF0
:10F41000252E0393F0D00027B946BB46BBF11F0F42
:10F4200038D8A6F12003102B0AD8DFE803F02A0908
:10F4300009300909092109090928092D09091F00AD
:10F44000A6F13003092B33D92A2E37D11BF0400FF8
:10F4500055F8043B40F08280002BA7BF4BF0200BF7
:10F460009946C3F100094BF0280B01E04BF0010B6A
:10F47000039B13F8016B0393002ECFD130E04BF0C8
:10F48000020B4BF0040BF3E74BF0080BF0E74BF0EB
:10F49000100BEDE7BBF17F0F19D8A6F13003092B54
:10F4A000D2D81BF0400F03D00A2101FB0737DFE75A
:10F4B0000A2101FB09394BF0200BD9E72E2E06D18A
:10F4C0001BF0400F40F09E804BF0400BD0E76C2EBD
:10F4D00031D02BD8682E36D06A2E3CD04C2E3AD064
:10F4E000002F46F02003B8BF2BF04002A3F16501C6
:10F4F000BCBF1FFA82FB0027022901D9612B2FD143
:10F50000073525F00705DFF8ACA2083507271BF003
:10F51000080F66D00AEB070B56465E4563D1A4EB95
:10F520000A0A06EB0A02A9EB07096FE1742E9FD0C5
:10F530007A2E9DD0D4E71BF0800F18BF4BF4007BD0
:10F540004BF0800B94E71BF4807F18BF4BF4007BDB
:10F550004BF4807B8CE74BF4207B89E71F4687E7E1
:10F56000A6F16301122900F2F080DFE811F0130028
:10F570004F00EE00EE00EE00EE004F00EE00EE0059
:10F58000EE00EE00EE00FE00E900EE00EE001B00D3
:10F59000EE00AF0055F8043B8DF8183001270DF14F
:10F5A000180AB4E755F804AB834BBAF1000F08BF53
:10F5B0009A461BF0400F14BF39464FF0FF315046BA
:10F5C00000F0C9FD0746A2E7029B4146202098476C
:10F5D00000280FDB013EB742F6D34C44A41BB146D2
:10F5E00098E74E46F7E716F8010B029B414698470D
:10F5F000002892DA98F8023043F0040388F80230C9
:10F600004FF0FF3420460DB0BDE8F08F1BF0800FA7
:10F6100034D01BF4007F2CD0073525F00705AA460F
:10F6200069685AF8080B2BF010050029ADB237DADB
:10F63000404261EB410145F480650DF1180B0A234E
:10F640005A4600F094FDA0EB0B0301936B0662D5C4
:10F65000019B25F001019F4289B240F3A180002E59
:10F6600000F0998015F0100240F09C80BB460D46DA
:10F6700023E0AA465AF8040BC117D4E7AA461BF4A4
:10F68000807F5AF8041B01D10846F5E71BF4007F80
:10F6900015BF48B208B241F3C01141F3C031C2E70F
:10F6A00050EA0103C9D11BF0400FC6D0002FC4D1CE
:10F6B0002BF0110295B2BB46019740F2064115EAC4
:10F6C00001021CBF0BF1010B00222CE02BF01002F9
:10F6D0001FFA82FB0A231BF0800C49D01BF4007137
:10F6E0001DBF073525F00705AA46AA461ABF5AF8D6
:10F6F000080B69685AF8040B50EA010545D12BF054
:10F7000016051BF0400FADB242D0002F40D12BF0B8
:10F71000170295B2019715F0100248D0019B002EF8
:10F7200042D103F1010B29075AD4EB0706D5D9457D
:10F730006FDD0199A9EB0B035F18CB465B4649E0EF
:10F740004BF0100B10237826C5E7782B04D1C6F1B7
:10F75000780343F01003BEE7029B414625209847FB
:10F760000028FFF647AF023447E608230026B2E739
:10F77000AA461BF480715AF8040BBDD01BF400712B
:10F780001ABFC0B2614680B2B6E72BF0060295B24E
:10F790000DF1180B54E725F01105ADB2BB468CE70F
:10F7A0000D46B8E73B460D4603F1020BBBE7DDF81B
:10F7B00004B082E7624601205B460120CDE90432B5
:10F7C0004146029B202098470028FFF613AF049B78
:10F7D000059A01339945F1DCA4EB0B01CC189B464B
:10F7E0000AB3029B4146302098470028FFF602AF3B
:10F7F0008EB901342744019B391B994224DC1D46F4
:10F800005DBB019AA9EB0B0922445546144691446D
:10F8100035E0019F92E7023441463046029B98470B
:10F820000028E7DAE6E640F206410D42E2D015F0A4
:10F83000020F14BF2B20202015F4806F04F1010467
:10F84000414618BF2D20E9E7029B414630209847EA
:10F85000002804F10104CEDACCE606AB013D4146B6
:10F86000585D029B98470028CADAC3E6029B4146CE
:10F8700020209847002804F10104FFF6BBAEA9EB55
:10F880000403002BF2DCBFE5704700EBC1004088A9
:10F8900040087047F8B50346FFF7F7FFB0FA80F06D
:10F8A000C0F11F0003EB800CCA00DCF81060171DCC
:10F8B0000C4606328DB256B9012101FA00F0D96822
:10F8C0000143D960CCF81040DD539D52F8BDF100E2
:10F8D0000431585AD85303EBC0009E52C5805D5284
:10F8E000F4E7043A2DE9F041CC1D114424F007045B
:10F8F00021F007010E1BF708B7FA87F2C2F12405C1
:10F90000AD004FF000080735C2F12002ED08046099
:10F910004146A760C4F80C80920004F1100000F08A
:10F920008BFC6B0043F00103638004EBC5027B1B7F
:10F930005900A4F800805180A21924F83550A2F88B
:10F940000280A35304EBC70329465A8842F0010200
:10F950005A802046BDE8F041FFF79CBF0020704769
:10F960000FB407B504A951F8040B0191FCF7E0FCB2
:10F9700003B05DF804EB04B07047038B13F007038A
:10F9800005D10368002B0CBF002003207047022B19
:10F9900005D1408BB0FA80F0400980007047012B00
:10F9A00005D10368002B0CBF002005207047002004
:10F9B000704710B50C4600B111B96FF0150010BDBD
:10F9C000081D00F093F80028F9D1A368032BF6D99D
:10F9D000F3E72DE9F0410D4607461946281D9046EC
:10F9E0001E4600F094F8044638B133464246294694
:10F9F0003846A446BDE8F0416047BDE8F08110B448
:10FA0000EFF31182202484F31288BFF36F8F4161DA
:10FA100010BC0121FCF7BEBC38B50C46054658B1F8
:10FA200051B10B6843B14B6833B11C22002100F087
:10FA300003FC2C61002038BD6FF01500FBE770B5AA
:10FA400005460E46FFF7B5FF041E14DBEFF31182E7
:10FA5000202383F31288BFF36F8F6B8B2C8B4FF6B1
:10FA6000FF718B4204F0070407D182F31188BFF3C2
:10FA70006F8F6FF00A04204670BD022C0CD1013349
:10FA80006B8382F31188BFF36F8F002322463146C8
:10FA90002846FFF79EFFEEE7062C14D8DFE804F0B7
:10FAA00004131313041A0400002333606B683BB97A
:10FAB000C5E90066ACB902212846FCF76BFCDAE721
:10FAC0001E606E60F6E782F31188BFF36F8F6FF0F0
:10FAD0000404D0E782F31188BFF36F8F6FF08504C1
:10FAE000C9E782F31188BFF36F8FC4E7034658B1AB
:10FAF000426802F00302012A03D0032A04D10268FB
:10FB000012B10020986070476FF01500704742688E
:10FB1000816002F00302032A4FF0000203460CBF8B
:10FB2000006810465A6070477047012801D1EFF312
:10FB30000583FEF70DBE01460068FFF7F6BF08B566
:10FB4000FCF736FDBDE80840FCF756BD002101205A
:10FB5000FFF7EBBF61B662B680F31188BFF36F8F1A
:10FB6000704772B6002383F31188BFF36F8FBFF322
:10FB70004F8F30BF62B6BFF36F8F704772B60023EE
:10FB800083F31188BFF36F8FBFF34F8F20BF80F3D4
:10FB90001188BFF36F8F62B6704708B5FCF7D6FFC8
:10FBA000002008BD0369C9B20C2201FB0233186CA6
:10FBB00000F00700704770B5C9B20369EFF3118513
:10FBC000202484F31288BFF36F8F0C2606FB0134C8
:10FBD000246C14F0C00408D0A24206D085F311882A
:10FBE000BFF36F8F4FF0FF3070BD06FB0133012272
:10FBF0001A6485F31188BFF36F8F436803EBC10369
:10FC00005B6898470020EFE78022FFF7D4BFF8B584
:10FC1000069F0469C9B2EFF31186202585F3128887
:10FC2000BFF36F8F0C2505FB0144256C05F0070C15
:10FC3000BCF1010F0CD1276486F31188BFF36F8FDD
:10FC4000C4E90E23436853F8313098470020F8BDCB
:10FC500005F0C005AF4286F31188BFF36F8F0CBF6C
:10FC60006FF077004FF0FF30F1E713B58024009478
:10FC7000FFF7CDFF02B010BD10B40069CBB21C2459
:10FC800003FB0400002110BC10470020FEF790B8D1
:10FC9000002000F0D1B81046FEF78EBE43685B68C6
:10FCA000D3F810350B600020704743685B6802EAA8
:10FCB000010021EA0201C3F80805C3F80C15002071
:10FCC000704743685B680020C3F8081570474368B5
:10FCD0005B680020C3F80C15704743685A68D2F877
:10FCE000043521EA03000B40C2F80805C2F80C35C0
:10FCF0000020704710B503695868F8B1884219D1DF
:10FD00009C6808685860A14200D198600020086093
:10FD10002AB15A680A609A68596002B9996000204D
:10FD200010E0814206D10868206098688142EDD1D8
:10FD30009C60EBE7044600680028F2D1002AE8D175
:10FD40006FF0150010BD30B543681360057A446844
:10FD500004EBC504A34202D36FF0010030BD5C790F
:10FD60008C4201D00833F0E70020F7E743681B68B6
:10FD7000D3F88004C3F88004704742681368D3F84E
:10FD8000100150B1D269002012780A70C3F8100136
:10FD9000D3F8102101221A6070474FF0FF307047EE
:10FDA00002680346D2F8580140B95B68DB0706D405
:10FDB000D2F82001003818BF012070470120704799
:10FDC00043681B68D3F80423D20517D5D3F8202144
:10FDD000A2B1EFF31182202181F31288BFF36F8F5C
:10FDE000D3F8201131B10021C3F82011D3F820112C
:10FDF0000121D96082F31188BFF36F8FD3F8583196
:10FE0000704700F150039B009BB203F1804303F560
:10FE1000883300221A601B687047004700F093B8CF
:10FE2000C00000F1804000F5F830C0F81015C0F8AF
:10FE300014257047FEF734BCFDF736BFF7B50190C7
:10FE400001A8DDE9084716461D46FEF739F8019B73
:10FE5000B6F1000C18BF4FF0010C00EB83000B1E35
:10FE600018BF0123002D43EA4C0314BF4FF00C0CC4
:10FE70004FF0000C002C43EA0C0314BF4FF4E06C6D
:10FE80004FF0000C002F43EA0C03D0F8002714BFFA
:10FE90004FF4403C4FF0000C43EA0C0322EA03030A
:10FEA00001B109780EB13678760019430DB12D787D
:10FEB000AD0031430CB12478240229430FB13F78BF
:10FEC0003F040C433C43C0F8004703B0F0BD1FB5EE
:10FED0000DF10F03019300238DF80F1000931A46C4
:10FEE0001946FFF7ABFF05B05DF804FB38B50546D2
:10FEF00008460C46FEF736F8B0B10846FEF726F87D
:10FF000090B90846FEF716F82A6801238340C2F824
:10FF100008332A6803B202EB8303D3F8102522F0DA
:10FF20000302C3F8102538BD20460021BDE8384043
:10FF3000FFF7CDBFFEF79CB8FFF7D8BF08B5FEF7B7
:10FF4000E9FB002008BD08B1FCF748BE70477047C8
:10FF500040B1C368587810F001001EBF1878B0FA9D
:10FF600080F040097047EFF31183202383F3128858
:10FF7000BFF36F8FFEE708B5FFF7F5FF10B5D0E9C7
:10FF8000003433B90020E268537843F00103537022
:10FF900010BD204698470028F4D00028B8BF404242
:10FFA000E368FF28A8BFFF201870ECE700F044B911
:10FFB000704708B52024EFF3118384F31288BFF350
:10FFC0006F8FFFF7CEFDF6E7EFF30580003818BF1F
:10FFD00001207047D0E9003213605A600023C0E965
:10FFE0000033704708B5FFF7F5FF437B23F00203AA
:10FFF00043730023836008BD38B504460D46FEF701
:020000040001F9
:10000000D1FD637B43F002036373E5B1A5602B6808
:100010009D4209D16B68C4E900531C606C6012E01A
:100020006A689A42F6D01B68002BF3D094F90E2030
:1000300093F90E108A42F3D09142F1DD5A68C4E977
:10004000003214605C6038BD10B5EFF311842023DA
:1000500083F31288BFF36F8FFEF762FD84F311887C
:10006000BFF36F8F10BD10B50146EFF3118420234D
:1000700083F31288BFF36F8F437B13F0280F0AD1ED
:1000800083680BB1FFF7AEFF4B7B23F004034B7388
:100090000846FEF745FD84F31188BFF36F8F10BD4E
:1000A00001211838FFF7DFBF38B50C460546FEF7CB
:1000B000D1FEB4F1FF3F08BFB5F1FF3F1FBF47F6C8
:1000C000FF7300224FF47A71C0FB01321ABFD80BC4
:1000D00040EA42404FF0FF3038BD10B5FFF746F818
:1000E0000446FFF74BF874B1D4E904321B1A62EBF3
:1000F000E072B3F1004F72F1000104DA002AACBFE4
:100100001846002010BD6FF00040FBE738B50246EE
:10011000EFF31185202383F31288BFF36F8F0368F9
:1001200093B1FFF723F804461046FFF731F88442F5
:1001300004D1FFF7D2FF0021FDF73CFC002085F33E
:100140001188BFF36F8F38BD6FF01500F7E708B562
:10015000FFF70EF908BD10B5024601448A42134666
:1001600003D01C780132002CF8D1181A10BDF0B55C
:10017000C3F137070446FFB203F01F031046082BF4
:10018000E6B233D0102B3ED06508A40844EA81744F
:1001900045EAC1752D194FEA910242EB5102290936
:1001A00041EA02716D1842EB1212290A41EA02611A
:1001B0006D1842EB1222290C41EA02416D1842EB04
:1001C0001242AD1842F10002EC0844EA4274D10830
:1001D00004EB8402A6EB4205EDB2092D0CD90134E3
:1001E000A5F10A0541F10001EDB212E0E40844EA8C
:1001F000417406F00705C908303554EA010200F8D9
:10020000015BBCD1F0BD240944EA017406F00F057E
:100210000909092D84BFED19EDB2EDE70A449142B9
:1002200000F1FF3300D1704710B511F8014B03F80E
:10023000014F9142F9D110BD02440346934200D1CF
:10024000704703F8011BF9E7014800687047000098
:10025000684D0120990B012000000000990C01203D
:100260009C4201203D3F0120000000005110012070
:10027000C442012051100120B0420120E9140120A4
:10028000D8420120010F0120000000005118012078
:1002900000000000750B0120000000009F450120B8
:1002A000D844012090440120CC4B0120904D0120E6
:1002B000AE450120E84401206C440120CE4B0120D2
:1002C000E44D0120BC450120004501206C44012083
:1002D000D04B0120F04D0120D245012018450120CE
:1002E000AC440120D24B0120FC4D0120591E0120BD
:1002F0001B3E0120000000004D3B0120D8420120A0
:10030000C13D0120000000004D3B01200000000025
:100310004D3B0120000000004D3B0120E524012061
:100320001B3E0120000000004D3B012000000000AA
:100330004D3B0120000000004D3B0120000000006B
:100340004D3B0120000000004D3B0120000000005B
:100350004D3B0120000000004D3B0120000000004B
:100360004D3B0120000000004D3B0120000000003B
:100370004D3B012000000000E118012000000000BA
:100380004D3B0120000000004D3B0120000000001B
:100390004D3B0120000000004D3B0120000000000B
:1003A0004D3B0120000000004D3B012000000000FB
:1003B0004D3B0120000000004D3B012000000000EB
:1003C0004D3B0120000000004D3B012000000000DB
:1003D0004D3B0120000000004D3B012000000000CB
:1003E0004D3B0120000000004D3B012000000000BB
:1003F0004D3B0120000000004D3B012000000000AB
:100400004D3B0120000000004D3B0120000000009A
:100410004D3B0120000000004D3B0120000000008A
:100420004D3B0120000000004D3B0120000000007A
:100430004D3B0120000000004D3B0120000000006A
:100440004D3B0120000000004D3B0120000000005A
:100450004D3B0120000000004D3B0120000000004A
:100460004D3B0120000000004D3B0120E510012024
:100470009D3C0120AB3C0120C33C0120CF3C01202E
:10048000DB3C0120510F0120F53C01200000000061
:10049000F10C0120093C01206B3C01200000000010
:1004A000A53B012000000000000000007B3D012072
:1004B000351401206D3D0120FFFFFFFFFFFFFFFF0F
:1004C0000338FDD8704700002C4B0120210C01207F
:1004D000F10B012000000000710D0120650C0120CE
:1004E0008B3C0120913C0120FFFF000000030050E5
:1004F000000000000100000000600040000000005B
:10050000BCF801FF000000500000000000000000E7
:1005100000600040000000000020004001000000DA
:1005200000000000384501200000D6010000000056
:100530004D4E01204C4E012000200040444501203A
:10054000010000004C4501200400000006000000EE
:1005500005000002080600010706000354420120BE
:10056000544201208C420120944201209C420120EF
:100570009C4201206E72663532383430646B2F6EC7
:10058000726635323834300048656C6C6F20576FB6
:10059000726C64212025730A0000000100000063D2
:1005A0006C6F636B40343030303030303000677007
:1005B000696F403530303030333030006770696FEC
:1005C0004035303030303030300000010203040557
:1005D000060775617274403430303032303030008C
:1005E0000000000000010100000000000020303089
:1005F0003030303030303030303030300001546501
:10060000726D696E616C000000000000005454526D
:1006100020524547474553006D61696E002A2A2ADA
:1006200020426F6F74696E67205A65706879722016
:100630004F53206275696C642076342E312E302D34
:100640007263332D3133342D673364306137646125
:100650006231613937202A2A2A0A00286E756C6CAB
:1006600029002A666C6F61742A000000FFFFFFFFFB
:10067000FFFFFFFFFFFFFFFFFFFFFFFFFFFFFFFF8A
:10068000FFFFFFFFFFFFFFFFFFFFFFFFFFFFFFFF7A
:10069000FFFFFFFFFFFFFFFFFFFFFFFFFFFFFFFF6A
:1006A000FFFFFFFFFFFFFFFFFFFFFFFFFFFFFFFF5A
:100B2000FFFFFFFFFFFFFFFF5D3901200000000016
:100B30009B3B0120000000000000000000000000BE
:100B400000000000000000000000000000000000A5
:100B50000000000000000000000000000000000095
:100B60000000000000000000000000000000000085
:100B70000000000000000000000000000000000075
:100B80000000000000000000000000000000000065
:100B90000000000000000000000000000000000055
:100BA000000000000000000000000000080000003D
:100BB000FF00000000000000030000000000000033
:100BC000FFFF0F00C44B0120C44B012000000000B8
:100BD0000000000015E015E007695001100020003A
:100BE000496B4F8A614F3A7DBA104037F7BA96F594
:100BF000D2F92D768F166E2D645287943025A7403A
:100C000001002000FC5701DC6135E1323847BDC4EA
:100C10000F04D2E5BEE5833B23C29F93593D0001FB
:100C20008CFA999420000001839D50A1870BD3D3A7
:100C3000F18FC2A818EF35B8C4F764968BC6C917F0
:100C40003783E66AA2A186542A3EA0AA3E4FF6291F
:100C5000F0347A4D17B55D045F65C096E0B797191B
:100C6000C2ED071A522E25EA764CFB2C9B1F48E357
:100C7000C86F6D058F0322FE1FE257AE35DB53D5DB
:100C800089DCDD81FEDA01A501D65760D22F87D637
:100C900058DB848E9FB6B7BCC0397F0D8330CB7BC9
:100CA0006FC084F780E0507A578F3945156807B1D7
:100CB000189723A91E4E733400242A62F7A9E22F45
:100CC000CD25BB312A1779FABCA23E234DBEC5F80B
:100CD000F3CD04D7791D9DFF5F6B601F8B67E9CF54
:100CE00052FB29FCD1FAF2F6066A0A5CB9A29D5FB2
:100CF000354A38E89511E8DAA3919C91B595CAD6A2
:100D0000CDE93DFB923C0A0437BA7E70B383FADA30
:100D10008DFFFE1D1F2166953A4BE7E229A0704525
:080D2000B4977A47BBA4F0A2CE
:00000001FF
